:020000040800F2
:1000000000000320210600080D2200080F2200082E
:100010001122000813220008152200080000000029
:10002000000000000000000000000000B17A00089D
:100030001722000800000000417B0008B17300088F
:1000400071060008710600087106000871060008B4
:1000500071060008710600087106000871060008A4
:100060007106000871060008710600087106000894
:100070007106000871060008710600087106000884
:100080007106000871060008710600087106000874
:100090007106000871060008710600087106000864
:1000A0007106000871060008710600087106000854
:1000B0007106000871060008710600087106000844
:1000C0007106000871060008710600087106000834
:1000D0007106000871060008710600087106000824
:1000E0007106000871060008710600087106000814
:1000F0007106000871060008710600087106000804
:1001000071060008710600087106000871060008F3
:10011000710600087106000819220008710600081F
:1001200071060008710600087106000871060008D3
:1001300071060008710600087106000871060008C3
:1001400071060008710600087106000871060008B3
:1001500071060008710600087106000871060008A3
:100160007106000871060008710600087106000893
:100170007106000871060008710600080000000002
:100180007106000871060008710600087106000873
:100190007106000871060008710600087106000863
:0C01A0002522000871060008312200082A
:1001B00010B5054C237833B9044B13B10448AFF3A1
:1001C00000800123237010BD800300200000000088
:1001D0003C44020808B5034B1BB103490348AFF385
:1001E000008008BD00000000840300203C44020899
:1001F00001F0FF01102A2BDB10F0070F08D010F8D8
:10020000013B013A8B422DD010F0070F42B3F6D1DB
:10021000F0B441EA012141EA014122F007047FF0F4
:1002200000070023F0E80256083C85EA010586EA4B
:10023000010685FA47F5A3FA87F586FA47F6A5FA87
:1002400087F68EB9EED1F0BC01F0FF0102F0070293
:1002500032B110F8013B013A83EA010313B1F8D13E
:100260000020704701387047002D06BF354603381F
:10027000073815F0010F07D1013015F4807F02BF58
:10028000013015F4C03F0130F0BC0138704700BFA9
:100290007BB972B90029BEBF00204FF0004106E0D3
:1002A00008BF00281CBF6FF000414FF0FF3000F086
:1002B000B5B9ADF1080C6DE904CE002909DB002BBE
:1002C0001ADB00F04DF8DDF804E0DDE9022304B0AC
:1002D0007047404261EB4101002B1BDB00F040F80E
:1002E000DDF804E0DDE9022304B0404261EB4101A6
:1002F000524263EB43037047524263EB430300F007
:100300002FF8DDF804E0DDE9022304B0404261EBA0
:1003100041017047524263EB430300F021F8DDF8DE
:1003200004E0DDE9022304B0524263EB430370476B
:1003300053B94AB9002908BF00281CBF4FF0FF314C
:100340004FF0FF3000F06AB9ADF1080C6DE904CE52
:1003500000F006F8DDF804E0DDE9022304B07047A0
:100360002DE9F047089D0C46002B4ED194468C4554
:100370008646B2FA82F262D94AB1C2F120039140B4
:1003800020FA03F30CFA02FC194300FA02FE4FEACA
:100390001C471FFA8CF6B1FBF7F44FEA1E4307FB2C
:1003A000141143EA014304FB06F199420AD91CEBFC
:1003B000030304F1FF3080F01281994240F20F8173
:1003C000023C6344591A1FFA8EF3B1FBF7F007FBA6
:1003D000101143EA014300FB06F69E420AD91CEBCA
:1003E000030300F1FF3180F0FC809E4240F2F9806F
:1003F000634402389B1B40EA044000211DB1D340F6
:100400000022C5E90032BDE8F0878B4205D90DB165
:10041000C5E9000100210846F5E7B3FA83F1002998
:1004200046D1A34202D39042C0F0F080861A64EB1A
:1004300003030120002DE6D0C5E90063E3E7002AAD
:1004400040F09080A1EB0C044FEA1C481FFA8CF797
:100450000121B4FBF8F64FEA1E4308FB164443EAB9
:10046000044307FB06F0984208D91CEB030306F18E
:10047000FF3402D2984200F2CD8026461C1A1FFAA1
:100480008EF3B4FBF8F008FB104443EA044300FB8E
:1004900007F79F4208D91CEB030300F1FF3402D297
:1004A0009F4200F2B0802046DB1B40EA0640A5E7F1
:1004B000C1F120068B4022FA06F71F4320FA06FC02
:1004C00004FA01F343EA0C03F44000FA01F8380C93
:1004D0004FEA1349B4FBF0FE1FFA87FC00FB1E44F1
:1004E00049EA04440EFB0CF9A14502FA01F20AD9CB
:1004F0003C190EF1FF3A80F08480A14540F28180E2
:10050000AEF1020E3C44A4EB09041FFA83F9B4FBDC
:10051000F0F300FB134449EA044403FB0CFCA4453C
:1005200007D93C1903F1FF3067D2A44565D9023BD6
:100530003C4443EA0E40A0FB0293A4EB0C049C4213
:10054000CE469C4651D34ED055B1B8EB0E0364EB6A
:100550000C0404FA06F6CB401E43CC40C5E9006407
:10056000002150E7C2F1200320FA03F10CFA02FC4B
:1005700024FA03F394400C434FEA1C4800FA02FEAD
:100580001FFA8CF7B3FBF8F008FB1031230C43EA99
:10059000014300FB07F1994208D91CEB030300F16A
:1005A000FF362CD299422AD9023863445B1AA4B28E
:1005B000B3FBF8F108FB113344EA034401FB07F3F2
:1005C000A34208D91CEB040401F1FF3613D2A34265
:1005D00011D902396444E41A41EA004139E704467A
:1005E000F0E6084606E7C845AED2B9EB020E63EB6B
:1005F000070C0138A8E73146EDE7034699E7304696
:10060000D4E7D6467FE7634402384DE706462346E3
:1006100008460FE7023E634430E700BF704700BF63
:10062000DFF834D0002103E00C4B5B584350043119
:100630000B480C4B42189A42F6D30B4A02E00023B7
:1006400042F8043B094B9A42F9D304F00FFC23F023
:1006500085F901F0A3F8704700000320F064060854
:10066000000000206401002080030020105B0120B6
:10067000FEE7704708B500F0ABFDBDE8084000F0AC
:100680002DBD00F0A7BD704710B50421044621F030
:100690006FFF204610BD000038B50C4B0C4C188085
:1006A0000C4B822019806368984740F611039842EA
:1006B0000AD1094D23682C60822098472B6882203C
:1006C000DB689847002038BD0120FCE7A603002026
:1006D0004C000020A4030020A80300204FF4A071C8
:1006E000F020FFF7D9BF0000F7B5334D2B68044663
:1006F0001B6982209847208000284AD02B680DF182
:1007000006025B6901A982209847BDF8063040F6D1
:10071000746293423FD9ADF80620BDF80630D21A74
:1007200092B20A2A3DD90B23B2FBF3F2234B1B886A
:100730009A4201D9013B9AB2BDF8043040F6B83173
:100740008B4230D8C3F571630E339BB20F21B3FBDC
:10075000F1F31B4909888B4201D901398BB2194E3B
:10076000194D30682F68834281B28CBF591AC91A5B
:10077000B8B2BA428CBF101A801A89B280B2014452
:100780000529C8BF33603368C8BF2A6063802B68FF
:10079000A38003B0F0BDB32B9CBFB423ADF80630EB
:1007A000BBE70022C8E7C3F56D6308339BB20E2B8D
:1007B000CCD80023D3E700BFA8030020A403002067
:1007C000A6030020A00300209C03002037B5684644
:1007D0000D461446FFF788FFBDF8000030B1BDF8A4
:1007E00002302B60BDF804302360012003B030BD1F
:1007F000032821D8DFE800F0020B12190F4B1A680A
:10080000B2FA82F2520904210D4804F0C5BD0B4B27
:100810005A68B2FA82F252090821F5E7074B9A6842
:10082000B2FA82F252091021EEE7044BDA68B2FA0A
:1008300082F252092021E7E7704700BFAC03002095
:1008400000100240032821D8DFE800F0020B121943
:100850000F4B1A68003A18BF012204210D4804F01A
:100860009BBD0B4B5A68003A18BF01220821F5E7DF
:10087000074B9A68003A18BF01221021EEE7044B9B
:10088000DA68003A18BF01222021E7E7704700BF6D
:10089000AC0300200010024003280DD8DFE800F070
:1008A0000206080A0421054804F07BBD0821FAE786
:1008B0001021F8E72021F6E7704700BF0010024042
:1008C00008B5032811D8DFE800F0020A0C0E042155
:1008D000074804F05BFD431E5842584108BD0821FB
:1008E000F6E71021F4E72021F2E70020F3E700BF4C
:1008F0000010024070B5084D00240126E0B2FFF759
:10090000DFFF18B12B68012B18BF2E600134052CB6
:1009100005F10405F2D170BDAC030020012380F87D
:10092000781080F87930704700207047034B41649D
:10093000003918BF01211970704700BFCF4D012049
:1009400000207047836B0BB10846184770474FF67D
:10095000FF707047406803689B691847704770478D
:100960007047000010B5044600F042FD23680349BB
:10097000D3F88C302046BDE810401847000000D066
:1009800008B503680446D3F88030984723682046AA
:100990009B6F984700F0ECF8236820461B6F984740
:1009A000292001F053F900F0E3F8236820461B6F7B
:1009B0009847F8E710B5044609F054FE236820462E
:1009C000D3F8AC30BDE81040184700F0F3BC00F09D
:1009D000F7BC00F02BBD00F0C9BC00F03BBD00F03F
:1009E00043BD00F0CDBC09F0A9B810B57C21044688
:1009F00021F0BEFD204610BD10B590F8341090F8DF
:100A000078400C4B8C421A7809D03AB90A4A0B4903
:100A10001488088810800C8001221A7010BD002AEA
:100A2000FCD0054A05491488088810800C800022F3
:100A3000F3E700BFC84D0120C44D0120C64D012081
:100A400070B50D46194635B9094B0A4A0A4840F2B5
:100A5000D22122F0D3FCC0E90F52084B003A18BF54
:100A600001221A700368BDE87040D3F88C30184733
:100A7000C8440208004502084E450208CE4D012038
:100A800008B5094B1B888B4203D8084B1B8893423F
:100A900005D9074B074A08489E2122F0AFFC074BB7
:100AA0001980074B1A8008BDC44D0120C64D012096
:100AB00093450208F64502084E450208CA4D01203A
:100AC000CC4D0120034690F87A0018B158680368AD
:100AD0001B68184770470000012108B5002208462E
:100AE00006F0F3FC0A4B186028B90A4B0A4A282181
:100AF0000A4822F083FC00220421012006F08DFD2B
:100B0000074B186018B9074B034A2C21F0E708BDC2
:100B1000C0030020144702085D4702088C47020802
:100B2000BC030020D0470208024B4FF0FF31186889
:100B300006F015BDC0030020014B186806F03BBD50
:100B4000C0030020024B0021186806F008BD00BF5A
:100B5000C0030020FFF7F0BF0348044900680023EA
:100B60001A4606F095BD00BFBC030020040000201B
:100B700013B5084C00231A4601A9206806F0B9FDF8
:100B800020684FF0FF33002201A906F0B2FD02B049
:100B900010BD00BFBC03002003685B6C1847012038
:100BA000704703689B6A1847FEE740F2EF307047D2
:100BB000054B0360054B4FF08062C3F88820BFF3FC
:100BC0004F8FBFF36F8F70476449020800E100E068
:100BD00010B504464FF45A61FFF7EAFF204621F0B2
:100BE000C7FC204610BD000082B0002301930E4BCD
:100BF0001A6B42F400021A631A6B02F400020192AB
:100C0000019A1A6942F400021A611A6922F4000278
:100C10001A61064B064A1A61064A5A61064B4FF0A2
:100C200080629A6002B0704700380240F03E0020B7
:100C3000890E0008A90B000800E100E008B50A28A9
:100C400009D8DFE800F006100E0808080810101098
:100C50001000022008BD054B054A0648902122F0ED
:100C6000CDFB0020F6E70120F4E700BF12480208A0
:100C70002D4802087848020838B50C46887FFFF7EF
:100C8000DDFFA58AE28A164B2169586342EA0542D4
:100C90005A64628BD963521B1A642568082D0ED1E1
:100CA0009A611A615862207F0E4A42EA0062DA6154
:100CB000E2681A620C4A5961D9601A6038BD002294
:100CC000D8611A61E1680A0A480902F4784200F41E
:100CD000FC600243C1F3C4010A439A63034AECE790
:100CE00000B00240090001000123020001230300BB
:100CF00008B50B280BD8DFE800F00612100A0A0A24
:100D00000A0808080808022008BD0520FCE7054B72
:100D1000054A06486F2122F071FB0020F4E701200C
:100D2000F2E700BF12480208BA48020878480208F1
:100D30002DE9F04191F81D800C464046FFF7D8FFA1
:100D4000A77F05463846FFF7D3FF06463846FFF72C
:100D500075FFA18A628B444B521A1A649A61228BE6
:100D6000521A1A61E28A586342EA01425A642169BE
:100D70006268D963DA602068802828D0227F0FD883
:100D8000202867D0402865D004281AD0364B45EA81
:100D9000026545F40035B845DD6161D0334A44E071
:100DA000B0F5807F04D0B0F5007FEFD1304800E08F
:100DB000304840EA0262DA61E2681A625E625961B2
:100DC00032E045EA026242F40032DA61F6E7A068F6
:100DD000021DDA62227F45EA026545F40035DD61D5
:100DE0005E625961017841B1012921D0224B234A29
:100DF00023484FF48D7122F001FBDA69418822F417
:100E00007F42013922F0100242EA0122DA61012117
:100E1000154BDA6942F02002DA61DA699206FCD4F5
:100E200010229A600029B9D0164A1A60BDE8F081F4
:100E3000B2F1FF01DA69408822F47F4200F1FF300D
:100E400022F0100242EA002242F0100218BF0121F3
:100E5000DA61DDE745EA0262034B42F40032B4E7AF
:100E600042F20132E1E700BF00B00240012301007D
:100E7000090002000A000200044902081E49020893
:100E80007848020801230200024B1B685868036877
:100E90005B691847D04D012070B5044625460A4BC2
:100EA0000C30002660602672667245F8203B602296
:100EB000294609F02FFD04F55A63EE6024359D4262
:100EC000FBD1204670BD00BF64490208034B1A687D
:100ED000D207FCD423229A60704700BF00B00240C2
:100EE0007047000030B50F4C2568ED07FCD4232572
:100EF0000904A56041F001010225FF2B65636164CF
:100F0000E0630AD00849656241EA0363E361074B85
:100F100022626061E060236030BDE561039BA363F2
:100F2000034BF8E700B00240090001000100020095
:100F30000100030030B50E4C2568ED07FCD42325D5
:100F40001204A56042F001020225FF2B6563626472
:100F5000E063E16008D01B0643F00213E361054B38
:100F600065626061236030BD034BE3610123F9E7F3
:100F700000B0024001000200020002FF30B50B4C3D
:100F80002568ED07FCD4232512041B06A56043F455
:100F90000033022542F0010265636264E063E160B0
:100FA000E361034B65626061236030BD00B00240C5
:100FB00001000200012070474020704700EB8110C3
:100FC0000830704700EB81100830704701207047EF
:100FD00042F62000704742F6200303FB0100083070
:100FE000704742F6200303FB0100083070470120E0
:100FF00070471020704700EB01100830704700EB7D
:10100000011008307047084601F0D0BD10B5034B01
:101010000360044608F0E9FA204610BD1C4A0208A5
:1010200010B50446FFF7F2FF2046482121F0A0FA50
:10103000204610BD10B5034B0360044608F0D5FAF6
:10104000204610BDE849020810B50446FFF7F2FF3C
:10105000204642F6280121F08BFA204610BD000000
:1010600010B5034B0360044608F0BFFA204610BDDC
:10107000B449020810B50446FFF7F2FF20461821D4
:1010800021F076FA204610BD10B5094B03600446E6
:1010900000F521501430FFF7B9FF04F12C00FFF7E1
:1010A000C9FF04F11400FFF7DBFF204610BD00BFAD
:1010B000504A020808B50248FFF7E6FF08BD00BF26
:1010C0009412002010B50446FFF7DEFF204642F6DA
:1010D000FC1121F04DFA204610BD00002DE9F3412E
:1010E00001F020F9054601F021F9002401462346CC
:1010F00028462246009412F0DFF9284B284A1A604D
:10110000204602F00BFF274D274B284A28489A60BB
:1011100012F03AF92B68BFF35B8FDB0737D4284610
:1011200021F028FA98B3234C234B236004F11400D8
:1011300000F5215707F14C0604F12C086060C4F853
:101140000880E760266108F051FA1C4B6361404655
:1011500008F04CFA1A4BE362384608F047FA04F5F7
:10116000005303F69C00174AC3F8542802F0B8FF56
:10117000224607F14801304602F04EFF304601F0AA
:1011800015FD114822F058F9284621F0FFF90F48C3
:1011900002B0BDE8F041FFF7E5BB00BF344E0120CF
:1011A000400400209012002060040020440400202D
:1011B0000800002094120020504A0208B449020896
:1011C000E84902081C4A0208B5100008C4030020C0
:1011D000704700000148FFF7D3BB00BFC4030020E5
:1011E00070B5244E244C254D254B23603046FFF727
:1011F00053FE284617F066FA22480FF09FFE224B56
:101200002248DC6000224FF48071C3E912122049A9
:101210001A86C3E91A121F4999671F4983F8582093
:101220000B60F02101801D485A6601801C4883F83C
:1012300070204FF4A071C3E90422C3E90622C3E978
:101240000822C3E90A22C3E90E22C3E91022C3E936
:101250001422C3E917225A67C3E9016501801148C6
:10126000018011490A70012283F834200F4A1A6064
:1012700070BD00BFEC0400208C1200206004002030
:10128000B844020844040020C4030020C44D0120D7
:101290000100000100000101D04D0120CA4D0120D4
:1012A000C64D0120CC4D0120C84D01204446020806
:1012B0000148FFF77DBC00BFEC0400200020704710
:1012C00081807047C18070470181704741817047BC
:1012D0007047704770477047704710B4C488036800
:1012E000121B84885B6D091B12B25DF8044B09B2B6
:1012F00018474FF6FF7383814FF0FF330362136883
:10130000C36110607047002070478B888380012084
:101310007047704780F82610704790F82600704795
:1013200010B50022B1F90840B1F90A1002804280DC
:101330008480C18010BD0022028042808280C280F1
:1013400070470177704780ED080A704780F82410D5
:10135000704780F82510704701207047983070471B
:101360008C3070478430704770470000034B9022E8
:1013700083F85A2383F85823704700BF00E100E048
:10138000094A0A49D3680A48C3F30A03013B9BB2DE
:101390000B801169C1F30A01013901801364536B99
:1013A00043F001035363704700680140923C002002
:1013B000903C0020014BD3F8AC007047006801401E
:1013C000024B0122C3F8AC105A627047006801401A
:1013D0007047704710B52C21044621F0C9F820460B
:1013E00010BD10B5BC21044621F0C2F8204610BD46
:1013F00070B5044608F0F7FB23685D6E0EF000FC44
:1014000001462046A8472368054AD3F8885020465D
:10141000AC460023BDE87040A2F51631604700BF1E
:1014200000B004D008F0C6BB08F0D0BB08F08CBBFD
:1014300008F0EDBC90F8252012B103685B691847ED
:10144000704790F825201AB190F8242002B1186056
:1014500070470000034B4FF080629A604FF080723B
:101460009A60704700E100E0084B4FF08062C3F8DB
:101470008820BFF34F8FBFF36F8F4FF08072C3F898
:101480008820BFF34F8FBFF36F8F704700E100E0FC
:1014900070B50023124E8380124B0360336893F8BB
:1014A000582005460AB1D86C00B998680368DB6A11
:1014B00098473368B0FA80F4D86C640930B1036897
:1014C000DB6A9847002808BF44F001042CB9064B9A
:1014D000064A07482C2121F091FF284670BD00BF25
:1014E000D04D0120604B02085C4A0208BA4A02084B
:1014F000F34A020870B5244E3568BFF35B8F15F0D0
:1015000001053FD1304621F035F800283AD01F4C74
:101510001F4B256104F13400C4E90035C4E90255CC
:10152000E584A562A5850FF068FF04F158000AF074
:10153000EDFD184BA3652046174B40F8843BFFF7A1
:10154000A7FF164BC4F884302433C4F88C306423CE
:10155000C4E928350023C4F8AC30C4F8B030C4F86E
:10156000B430C4F8B8300E480E4BC4F89050C4F8EC
:101570009C50C4F8A850C4F8983021F05DFF304664
:1015800021F004F8014870BD943C0020983C0020F4
:1015900038670208804B0208F84B0208EC66020824
:1015A00069130008CC66020810B5144C236823B3F5
:1015B000134B144A1B6C11888B4213D1124B1988A0
:1015C00004F0FCFC226892F86A30013382F86A3039
:1015D000FFF7C2FA206809F045F8BDE81040002086
:1015E000FFF706B904F0EAFC206803681B6A984715
:1015F000BDE810400020FFF725B910BDD04D0120F7
:1016000000680140923C0020903C002007B5064B4A
:10161000ADF806001B68054801220DF1060105F032
:101620006DFA03B05DF804FB0C0000209C3D002027
:10163000F7B5304E304C314F0821304603F0A6FE4E
:10164000054670B9206806F084F8012809D84C23B3
:101650008DF8073020680A232A460DF1070106F0AD
:1016600017F82021384603F091FE054688B9206816
:1016700006F06FF801280CD84F238DF8073020684A
:101680000A232A460DF1070106F002F8962005F01C
:1016900010FF1021384603F079FE054688B920680E
:1016A00006F057F801280CD844238DF8073020683D
:1016B0000A232A460DF1070105F0EAFFFA2005F09A
:1016C000F8FE0421304603F061FE054670B920683B
:1016D00006F03FF8012809D852238DF8073020681A
:1016E0000A232A460DF1070105F0D2FF642005F018
:1016F000E0FEA1E7001802405C3D0020000C024023
:1017000030B595B0102200210AA822F07EF81422EC
:10171000002103A822F079F800241E4B01941A6CD2
:1017200042F080521A641B6C03F080530193019BBA
:10173000194B02941A6842F440421A601B6803F481
:10174000404302930122029B4FF48033CDE90823EA
:1017500002254FF480030821CDE90E534FF4B473F2
:10176000CDE9101308A804231393129504F07EFC0E
:1017700004F042FC0F23CDE903354FF4A0504FF4A1
:101780008053CDE90603052103A8059404F04AFE21
:1017900015B030BD00380240007000402DE980488F
:1017A0009BB003F071FBFFF7ABFF142200210DA8E3
:1017B000002422F02AF8C54B00941A6BC448C54D8A
:1017C00042F010021A631A6B02F010020092009AA3
:1017D00001941A6B42F020021A631A6B02F0200285
:1017E0000192019A02941A6B42F080021A631A6BFA
:1017F00002F080020292029A03941A6B42F00402F1
:101800001A631A6B02F004020392039A04941A6B8F
:1018100042F001021A631A6B02F001020492049A68
:1018200005941A6B42F002021A631A6B02F002026C
:101830000592059A06941A6B42F040021A631A6BDD
:1018400002F040020692069A07941A6B42F00802D0
:101850001A631B6B03F00803079322463C21079B86
:1018600003F09AFD9C482246042103F095FD224690
:101870009A484FF4405103F08FFD01264FF00308C2
:101880003C239348CDF840800DA902274FF004096E
:10189000CDE90D360F9403F095FC8F480F940DA9F8
:1018A000CDE90D96109703F08DFC4FF440538B4813
:1018B0000DA9CDE90D36CDE90F4703F083FC0C23CC
:1018C00087480F960DA9CDE90D3403F07BFC0DA9D7
:1018D000302382480F96CDE90D3403F073FC814824
:1018E000814B036003F062FB804A814B2C62C5E9A7
:1018F000002328464FF48043C5E90434C5E9024477
:10190000C5E9064403F056FF1021284604F09AF971
:101910002146284604F0B5F97648774984624FF4A9
:101920008273C0E900134FF400751823C0E9065311
:101930000A23724DC362C0E90244C0E90444C0E90D
:10194000084405F07FF86E4B0D97C5E900364FF05F
:10195000100A4023C5E904A34FF4C073C5E9063457
:101960004FF40063C5E908344FF40053AB620DA98E
:1019700007232846CDE91038CDE90E394FF0080B82
:10198000C5E90249CDE9127704F040FF4FF6FF7236
:1019900009A92846CDE90AB6089409960C9404F0E2
:1019A00055FF304603F09CFA4FF6FF7209A928460E
:1019B000CDE9097BCDE90B6404F048FF4FF6FF72D7
:1019C00009A92846CDE9098BCDE90B9404F03EFF27
:1019D0004FF40C730893089B0C934FF6FF7209A900
:1019E0002846CDE9099B0B9604F030FF40F26A517E
:1019F000284604F049FF342221460DEB020021F075
:101A000004FF404D404B2C61C5E900340923C5E972
:101A100005361D2340F20D1CC5E9073840F243137B
:101A2000C5E909C340F2171E40F247132846C5E92D
:101A30000BE3C5E90244AC8685F8364004F0C6F9EC
:101A4000FF21F022CDE912144FF4806805214FF4F4
:101A5000A073CDE90E24CDE91481CDE916420DA97C
:101A600022462846CDE91037284D18930D94ADF83D
:101A700064408DF8664004F074FA254B2B601B68B7
:101A800098472B68234DDB689847234B2846C5E9C8
:101A90000034C5E90274C5E90A47C5E90C4403F0FE
:101AA00095FA3146284603F049FBFEF7E3FDFEF7C1
:101AB000E0FD05F08BFC194A3946504605F0ADFDB6
:101AC000174B184A186021462EE000BF003802402C
:101AD000001002409C3E002000080240000C024022
:101AE00000180240303F002000300240005C0040FF
:101AF000A08601009C3D002000500140683D002070
:101B0000400100A0F43D002000680140543D002049
:101B100014000020F03E002000B00240584C0208A3
:101B20005C3D0020944C0208074805F07BFC074B05
:101B3000074A18602146074805F074FC064B1860F8
:101B400005F056FCFEE700BF31160008643D00209A
:101B5000704C020883060008603D00207047704703
:101B60007FB5094B8DF817201B6802930DF1170202
:101B70000123009201930A460146044803F0C2FE85
:101B800007B05DF804FB00BF100000209C3E002061
:101B90007FB500238DF81730084B1B6802930A4667
:101BA00001230DF11701009101930146044803F050
:101BB00039FF9DF8170007B05DF804FB1000002006
:101BC0009C3E00201FB5084C24680092CDE90134EA
:101BD0000A4601230146054803F024FF003818BFD8
:101BE000012004B010BD00BF100000209C3E00206A
:101BF00003F076B910B5064C00222046042103F00C
:101C0000CBFB20460122BDE81040042103F0C4BBF9
:101C10000008024038B50B4D044601220A484FF433
:101C2000005103F0B9FB00220421284603F0B4FB65
:101C30002046FFF7EBFC28460122BDE8384004218E
:101C400003F0AABB00080240000C024038B50B4D5F
:101C5000044600220A484FF4005103F09DFB002285
:101C60000421284603F098FB2046FFF7CFFC2846C6
:101C70000122BDE83840042103F08EBB0008024079
:101C8000000C0240F7B5144E144F05460C46304682
:101C90000022042103F080FB00224FF4005138465B
:101CA00003F07AFB2846FFF7B1FC0D4B0D481B688B
:101CB000224601A905F0CEF8384601224FF4005122
:101CC000019C03F069FB30460122042103F064FB10
:101CD000204603B0F0BD00BF00080240000C0240E7
:101CE0000C0000209C3D002003F0FAB80268034B72
:101CF0009A4201D103F0E2B8704700BF00100040E3
:101D00007047000082B00E4B00220092596C41F4E3
:101D100080415964596C01F480410091009901920D
:101D2000196C41F0805119641B6C03F080530193CE
:101D3000019B0F216FF0010002B003F0F7B800BF64
:101D4000003802400268094B9A4282B00BD100234E
:101D50000193074B1A6B42F480521A631B6B03F416
:101D600080530193019B02B0704700BF00300240D6
:101D70000038024007B50F4B02689A4216D1002284
:101D8000A3F5F0430192196B41F4000119631B6B39
:101D900003F40003019305215A20019B03F0C6F8C8
:101DA0005A2003B05DF804EB03F0F2B803B05DF81D
:101DB00004FB00BF00B002402DE9F043044689B0A7
:101DC0001422002103A821F020FD2268244B9A420E
:101DD00043D1244C244800250095236B43F0040391
:101DE0002363236B03F004030093009B0195236B93
:101DF00043F001032363236B03F001030193019B71
:101E00004FF012094FF400734FF001080327042626
:101E100003A9CDE90339CDE90587079603F0D2F987
:101E20004FF480731148079603A9CDE90339CDE932
:101E3000058703F0C7F90295236C43F4000323647C
:101E4000236C03F400030293029B236A43F4000310
:101E50002362236A23F40003236209B0BDE8F08300
:101E6000005C0040003802400008024000000240D0
:101E7000F0B599B004461422002107A821F0C5FC52
:101E800030220DEB0200002121F0BFFC22685E4BE6
:101E90009A4240F0B78008230C93C0231093042388
:101EA00012930CA84FF40033159304F083FB08B190
:101EB000FFF726FF554B5648002400945A6C42F019
:101EC00080625A645A6C02F080620092009A019417
:101ED0001A6B42F020021A631A6B02F02002019280
:101EE000019A02941A6B42F001021A631A6B02F013
:101EF00001020292029A03941A6B42F002021A63E0
:101F00001A6B02F002020392039A04941A6B42F0D5
:101F100040021A631A6B02F040020492049A05947C
:101F20001A6B42F004021A631A6B02F00402059263
:101F3000059A06941A6B42F008021A631B6B03F0B1
:101F40000803069302250E26069B0B964FF480632A
:101F500007A9CDE90735CDE9094503F033F941F685
:101F600058032C480B9607A9CDE907350927CDE979
:101F7000094503F027F9032327480B9707A9CDE963
:101F80000735CDE9094503F01DF94FF47063224888
:101F90000B9607A9CDE90735CDE9094503F012F9FC
:101FA0004FF40C631D480B9607A9CDE90735CDE921
:101FB000094503F007F9C02319480B9607A9CDE995
:101FC0000735CDE9094503F0FDF8082315480B96C0
:101FD00007A9CDE90735CDE9094503F0F3F84FF43A
:101FE000A0530E480B9707A9CDE90735CDE9094560
:101FF00003F0E8F858202246052102F097FF582008
:1020000002F0C6FF19B0F0BD006801400038024080
:102010000014024000000240000402400018024088
:1020200000080240000C024010B5044688B014229B
:10203000002103A821F0E9FB2268144B9A4223D126
:1020400003F56843002101915A6C114842F4801253
:102050005A645A6C02F480120192019A02911A6B2E
:1020600042F020021A631B6B03F020030293029BD1
:102070004FF4607202230321CDE903230523CDE948
:10208000061303A903F09EF808B010BD00500140EC
:10209000001402402DE9F04186B0002303932B4B3E
:1020A0001C68002C4FD14FF00108C3F80080284B6A
:1020B00000949A6B274842EA08029A639B6B03EAF2
:1020C00008030093022703260C25009B01A94FF665
:1020D0003F03CDE90137CDE9046503F073F81E48ED
:1020E000059501A9CDE90187CDE9034603F06AF81A
:1020F00048F233131948059501A9CDE90137CDE917
:10210000034603F05FF84FF683731548059501A960
:10211000CDE90137CDE9034603F054F84CF20373DF
:102120001048059501A9CDE90137CDE9034603F033
:1021300049F860230C48059501A9CDE90137CDE99F
:10214000034603F03FF806B0BDE8F081383F0020B9
:10215000003802400014024000080240001802400B
:1021600000100240000C02400004024070B588B02C
:1021700000230293204B1A6C42F010021A641B6C6D
:1021800003F010030293054601A903A8029B04F083
:10219000F3F9069B4BBB04F0DFF9184E184B336084
:1021A00040F2E733F360174BB0FBF3F3013B73608E
:1021B000304600233361B360B36105F02FF8044665
:1021C00080B9304604F0ECFE044658B9362002F0DF
:1021D000DFFE0F2D0DD822462946362002F0A6FE3E
:1021E000094B1D60204608B070BD04F0B5F94000F1
:1021F000D3E70124F6E700BF003802403C3F00204F
:102200000010004040420F007C0000207047FEE7B5
:10221000FEE7FEE7FEE77047014804F0FFBE00BF9F
:102220003C3F0020014803F03FBE00BFF43D0020CA
:10223000014802F0F9BE00BFF03E002001207047C7
:1022400008B521F085FB162303604FF0FF3008BD71
:1022500008B521F07DFB16230360FEE770B50D463F
:1022600014460E46731B9C4201DC204670BDAFF342
:10227000008006F8010BF5E770B50D4614460E46D2
:10228000731B9C4201DC204670BD16F8010BAFF3B6
:102290000080F5E74FF0FF3070474FF400534B607C
:1022A0000020704701207047002070470A4A1168DB
:1022B00008B5034609B90949116010686946034425
:1022C0008B4206D921F044FB0C2303604FF0FF3012
:1022D00008BD1360FCE700BF843F0020105B0120B5
:1022E000704710B50421044620F042F9204610BD85
:1022F00008B5032913D8DFE801F002060A0E01F041
:1023000059FE006808BD01F055FE4068FAE701F08B
:1023100051FE8068F6E701F04DFEC068F2E700204C
:10232000F0E7000000487047CC4C020805207047D9
:1023300013B5002451B1036801948DF8034001AA3C
:102340009C680DF10303A04702B010BD0846FBE7EF
:10235000C0897047008A7047C0887047808870477E
:10236000807A00F07F007047807AC00970470020B3
:10237000704700009FED010A704700BF0000000099
:10238000704710B50821044620F0F2F8204610BD31
:102390007047704700F598730868496803C3704731
:1023A000704770474160704710B50022B1F908408E
:1023B000B1F90A10028042808480C18010BD70474C
:1023C00070470000064BC0F84C310023C0F8503174
:1023D00000F5A273C0F84801C0F84031704700BF53
:1023E00075260008012303727047704770477047D5
:1023F0007047704701464068036810315B6E1847AC
:1024000070B5054640680368DB69984704463CB9E7
:102410006868036805F110011B6EBDE8704018473D
:10242000A188AB89C91A236820461B6B09B298475B
:10243000A469ECE7704710B4C268416854100346C1
:1024400001EB6200D20748BF0A599B685DF8044B54
:1024500048BFD35818470346406830B19A681AB944
:10246000D86800F0010070470120704710B50C21BA
:10247000044620F07DF8204610BD10B5102104461A
:1024800020F076F8204610BD10B54FF4AE7104462A
:1024900020F06EF8204610BD10B53821044620F01B
:1024A00067F8204610BD10B52821044620F060F8DA
:1024B000204610BD10B54021044620F059F82046B2
:1024C00010BD10B50DF09CFB0368BDE81040DB6B40
:1024D0001847000037B50546807A6B7A0130C0B2E4
:1024E0009842A87205D901232B720023AB7203B066
:1024F00030BDB5F90C20B5F90E4000210FF008FCF5
:10250000C30706D500284FF6FF73C8BF0123184440
:1025100000B2AB7AE881041B012BA4B206D1174BA1
:102520001B781BB10DF06CFB0DF070FB144A0023FF
:102530001288ADF80230EB891A445B42ADF80430E2
:10254000104BADF800201B88ADF806300DF058FB9D
:10255000036802AA12E906001B6C984768680368C2
:10256000DB6998470546002DC1D0A9882B68214416
:1025700028461B6B09B29847AD69F4E7CE4D0120A0
:10258000C44D0120C64D0120054B1B7801462BB1DF
:10259000406818B103680C315B6E1847704700BF84
:1025A000CF4D0120037A70B50546BBB9406803687A
:1025B000DB69984704463CB96868036805F10C017B
:1025C0001B6EBDE870401847A1886B8FC91A23683D
:1025D00020461B6B09B29847A469ECE770BD10B5A3
:1025E0000446D0F8400158B10368DB68984738B119
:1025F000D4F8400103689B6898470023C4F8403131
:1026000010BD70B5044690F8390094F838300130A8
:10261000C0B2984284F8390005D9012323720023FF
:1026200084F8393070BDB4F93A2000210FF070FB06
:10263000C30706D500284FF6FF73C8BF012318440F
:1026400000B2238AC01AA08760680368DB699847D4
:1026500005462DB960680368BDE870405B6918479E
:10266000A988A38F19442B6828461B6B09B2984789
:10267000AD69EEE72DE9F14FD0E9556A0746B0683C
:1026800003681B6A9847B0F5C67F05D2444B454A9C
:10269000A321454820F0B2FE706803681B6A984782
:1026A0000F2803D8414B3F4AA421F2E7F0680368A2
:1026B0001B6A98470B2803D83D4B3A4AA521E8E707
:1026C0000DF09EFADFF8F09004300DF0FFFAD9F823
:1026D000000010B10368DB689847D9F8000010B11A
:1026E00003681B689847DFF8D480D8F8000010B161
:1026F00003685B699847D7F83C0110B103685B68D1
:102700009847D8F8000010B103681B689847D7F8BD
:102710003C0110B103689B689847F068036800218A
:102720005B6A98474FF0000B224BC0F804B0044698
:1027300080F808B00360B068036859465B6A984740
:10274000054601F0B5FC7068036859465B6A984716
:102750002946064601F078FC331DC7F83C61C9F8EC
:102760000040C8F80050CAF800302B68C6F808A02E
:102770002846DB68EE639847336830461B68984705
:10278000214628460FF0BEFA236820461B69984769
:1027900023685B69204601B0BDE8F04F184700BFD1
:1027A000404D0208CE4D02089A4E0208E14E020842
:1027B000844F0208C8520208184E0120144E01200E
:1027C0002DE9F0411D460368BDF918701B6B0446E6
:1027D000164698472368314620465B6B9847236826
:1027E000294620469B6B9847236839462046DB6B79
:1027F000BDE8F041184700002DE9F74FD0E9556AD0
:102800000746B06803681B6A9847B0F5C67F05D2D3
:10281000544B554AA321554820F0F0FD70680368D9
:102820001B6A98470F2803D8514B4F4AA421F2E75F
:10283000F06803681B6A98473F2803D84D4B4A4A03
:10284000A521E8E70DF0DCF9DFF8389104300DF050
:102850003DFAD9F8000010B10368DB689847D9F851
:10286000000010B103681B689847DFF81C81D8F896
:10287000000010B103685B699847D7F83C0110B1BC
:1028800003685B689847D8F8000010B103681B68BC
:102890009847D7F83C0110B103689B689847F068E7
:1028A000036800215B6A984705460022324B42606C
:1028B000027245F80C3B0446284609F0CFFC14236D
:1028C00023872E4B1B780022A287002B35D10123B2
:1028D0002372B068036800215B6A9847054601F0DF
:1028E000E7FB7068036800215B6A98472946064643
:1028F00001F0AAFB331DC7F83C61C9F80040C8F8D5
:102900000050CAF800302B68C6F808A02846DB68DB
:10291000EE639847336830461B689847214628463F
:102920000FF0F0F9236820461B69984723685B691C
:10293000204603B0BDE8F04F1847114BDFF84CB00C
:10294000B3F900300093BBF9003011462846FFF779
:1029500037FF284609F0FDFBBBF800305B42638778
:10296000B7E700BF404D0208275002089A4E020800
:10297000E14E0208844F020810530208CF4D012097
:10298000C64D0120184E0120144E0120C44D0120D7
:102990002DE9F74FD0E955BA0746DBF80800036880
:1029A0001B6A984742F61F03984205D8544B554A74
:1029B000A321554820F022FDDBF8040003681B6AC0
:1029C00098470F2803D8514B4E4AA421F1E7DBF872
:1029D0000C0003681B6A9847372803D84C4B494AB8
:1029E000A521E6E70DF00CF9DFF8389104300DF081
:1029F0006DF9D9F8000010B10368DB689847D9F881
:102A0000000010B103681B689847DFF81C81D8F8F4
:102A1000000010B103685B699847D7F83C0110B11A
:102A200003685B689847D8F8000010B103681B681A
:102A30009847D7F83C0110B103689B689847DBF8CA
:102A40000C00036800215B6A9847324B03604FF427
:102A5000A05303814FF4807343632F4B03612F4BCB
:102A60001B885A4282812E4A0025B2F90020456017
:102A700004468572C581C0E90555C0E90755C0E91E
:102A80000955C0E90B55294600921BB22A46103061
:102A9000FFF796FEDBF80800036829465B6A984753
:102AA000064601F075FEDBF80400036829465B6A00
:102AB00098473146054601F025FB2B1DC7F83C51D0
:102AC000C9F80040C8F80060CAF800303368C5F89B
:102AD00008A03046DB68F56398472B6828461B68DA
:102AE0009847214630460FF00DF9236820461B69B0
:102AF000984723685B69204603B0BDE8F04F18474C
:102B0000404D0208065102089A4E0208E14E0208A2
:102B1000844F0208EC520208F4510208C44D01200F
:102B2000C64D0120184E0120144E0120044B1B6895
:102B300093F858200AB1D86C00B99868704700BF64
:102B4000D04D0120F8B5174604460E460DF08CF91D
:102B5000124B1C60124B2360124B0025C4E9513507
:102B6000114BC4E953551868036801219B68C4E9F7
:102B70004F55C4E955769847284601F0CFF9FFF73D
:102B8000D5FF17F0F2FBFFF7D1FF17F069FCFFF755
:102B9000CDFF17F071FC2046F8BD00BF244E012088
:102BA000745202085C520208D04D0120064BC0F856
:102BB0004C310023C0F8503100F5A273C0F8480131
:102BC000C0F84031704700BF75260008064BC0F8BA
:102BD0004C310023C0F8503100F5A273C0F8480111
:102BE000C0F84031704700BFF9270008064BC0F815
:102BF0004C310023C0F8503100F5A273C0F84801F1
:102C0000C0F84031704700BF91290008406A704702
:102C1000806A704770478B88C0690A68DB0A50F881
:102C200023001044704710B50446BAB1107B68B158
:102C3000537BD27A1B0203F4E0631A43236A03EB4B
:102C400082031A888A4202D193F9020010BD05D886
:102C5000013880B204330028F3D1F7E70020F5E70C
:102C600010B52C2104461FF083FC204610BD000047
:102C700030B58BB00446BDF860500895BDF85C5087
:102C800007959DF8505006959DF84C5005959DF878
:102C9000485004959DF8445003959DF84050029586
:102CA0009DF83C500195BDF8385000950EF062FC3F
:102CB000064B2360159BE361169B2362199B63629D
:102CC0001A9BA36220460BB030BD00BF34530208EC
:102CD0007047704770477047704730B5036801818F
:102CE00085B06D460146D3F884300446284698479F
:102CF00095E807003C3484E8070005B030BD30B5E6
:102D00000368418185B06D460146D3F8843004469E
:102D10002846984795E807003C3484E8070005B04A
:102D200030BD0022028042808280C280704780F8DD
:102D30003610704770B5036804461B6B15469847FC
:102D40002368294620465B6EBDE870401847002086
:102D50007047806C70477047704770470368DB6A44
:102D600018477047704730B4C2684468551003462E
:102D700004EB6200D20748BF62599B6830BC48BF71
:102D8000D35818470346406830B19A681AB9D868D2
:102D900000F0010070470120704710B54C21044637
:102DA0001FF0E6FB204610BD10B5102104461FF0B1
:102DB000DFFB204610BD10B54FF4C67104461FF06E
:102DC000D7FB204610BD08B5FEF734FB08BD000058
:102DD000036870B55E6B124B1B6804468DB22BB94D
:102DE000104B114A6C21114820F008FB1049828DCC
:102DF0000988914203D80F4B0B4A6D21F3E713F872
:102E000012200D4B1B6853F8220003681B6B984778
:102E1000291A3346204609B2BDE87040184700BF62
:102E2000284E012094530208D65302081154020878
:102E30002C4E012058540208304E01209830884210
:102E400008B505D10CF0DCFEBDE80840FFF7CEBEAA
:102E500008BD00224FF0FF31C0E9002182607047B9
:102E600070B5036804461B6B1546984723682946CE
:102E700020465B6BBDE8704018470000F8B5194B61
:102E8000018F1B888B4206462AD9174B1B682BB92A
:102E9000164B174A17486C2120F0B0FA13F811208E
:102EA000154B1B6853F82250144B186801F072F848
:102EB0002B6807469B6B284698472B6804469B6CFB
:102EC0003946284698472B6814FB00F45B6A39465C
:102ED00028469847A4B223181BB2A6F84630F8BD7E
:102EE0000023FAE72C4E0120284E012094530208BB
:102EF000D653020811540208304E0120344E0120EE
:102F00004FF4807181840D4901600D4981624FF653
:102F1000FF7181854FF47F01002241634FF0FF3143
:102F2000C0E90122C0E90322C0E90522C0E9072265
:102F3000C0E9101202630287C2637047E0680208AA
:102F4000384D02082DE9F04F04468BB0A34600250A
:102F50000EF02CFD774BE5634BF8403B764B256636
:102F6000C4E910354FF4807304F16C0AA4F864309E
:102F7000FF2304F1980908A984F8663050464FF6FB
:102F8000FF73C4E91255C4E91455C4E91655A56682
:102F900004F1E008ADF8203009F0CAF948460AF01B
:102FA00067FA04F594764046FFF7AAFF3046FFF72C
:102FB000A7FF624BC4F82831614BC4F87051C4E9D3
:102FC0005F34604BC4E961354FF4A0732A4658461C
:102FD00000932946F023FFF7F3FB271D4FF07F43B3
:102FE000A3665946384606F013FB504608A9ADF8CB
:102FF00020500AF005F94FF4A0732A46504600937A
:103000002946F023FFF7DCFB5046294609F04BF92F
:103010005146384606F0FCFA4846BB222946FFF7DF
:103020001FFF4FF0010A022308AA07A94846ADF87E
:103030002030ADF81CA009F01CFF0723A4F8D03005
:103040004846FFF71BFF4FF0FF3B04F5BE724946B1
:10305000C4F8C0203846C4E935BB06F0D9FA0DF1F2
:103060000809412240462F21FFF7FAFE4146484613
:10307000C4F810B1A4F8145109F004FC99E8070051
:1030800004F58E7C8CE807002F4B089306224046FF
:1030900008A9ADF8242009F08FFE4146384606F015
:1030A000B7FA8F2245213046FFF7DAFED4F82831EF
:1030B000C4F858B1D3F88430A4F85C51314648467E
:1030C000984799E8070004F5B27383E807001F4B9F
:1030D0001B6804F5BA782BB91D4B1E4A60211E48A7
:1030E00020F08CF91D4B1B881BB91D4B194A61211F
:1030F000F5E71C4B2946186800F04CFF1A4A0346B6
:103100000421404610F032F93046C4F8708109F0CD
:1031100033FE0D4B089308A93046ADF824A009F002
:103120004BFE3846314606F073FA20460BB0BDE838
:10313000F08F00BF9455020870690208EC54020831
:103140007C5502083D2E0008384D0208284E01200B
:103150009453020896540208115402082C4E012080
:1031600058540208344E0120E1540208806A704726
:10317000704770477047806C7047C06C70477047ED
:103180007047704770477047704770470368DB6A45
:1031900018477047704790F82C304BB100F174021B
:1031A000126842663BB100F17C031B68836670477E
:1031B00000F17002F4E700F17803F6E708B590F843
:1031C0002C303BB100F1CC031B68C0F8B030FFF7E6
:1031D000E2FF08BD00F1C803F6E790F82C304BB1D0
:1031E00000F16C021268C2653BB100F174031B6808
:1031F0000366704700F16802F4E700F17003F6E738
:1032000008B590F82C303BB100F1C4031B68C0F83E
:10321000A830FFF7E2FF08BD00F1C003F6E77047F2
:10322000704770477047704730B4C26844685510A3
:10323000034604EB6200D20748BF62599B6830BC6A
:1032400048BFD35818470346406830B19A681AB946
:10325000D86800F0010070470120704790F82D30C9
:1032600080F8AE3080F85A30704790F82D3080F8F2
:103270005A30704790F82D3080F86030704790F8E1
:103280002D3080F8B63080F86230704790F82D30DD
:1032900080F8623070470146383091F82C3013B115
:1032A000363109F0ADBF3431FBE710B534210446A7
:1032B0001FF05EF9204610BD10B5642104461FF0D2
:1032C00057F9204610BD10B5502104461FF050F9A3
:1032D000204610BD10B5802104461FF049F9204654
:1032E00010BD10B5D02104461FF042F9204610BD94
:1032F00010B5782104461FF03BF9204610BD10B5EB
:10330000C82104461FF034F9204610BD10B5102125
:1033100004461FF02DF9204610BD10B54FF4B461DE
:1033200004461FF025F9204610BD38B500F5197385
:10333000994204460D4602D103681B6B984704F579
:103340004D739D4203D1236820465B6B984704F17F
:10335000C4039D4203D1236820469B6B984704F524
:10336000CA739D4203D123682046DB6B984704F261
:1033700004439D4203D10CF043FCFFF727FC04F506
:103380008D64A54205D10CF03BFCBDE83840FFF749
:103390001DBC38BD10B50446006B50B10368DB6836
:1033A000984730B1206B036821469B68BDE8104008
:1033B000184710BD90F82C3010B504466BB1B0F929
:1033C0003830B0F93A209A4208D10368D3F88830EF
:1033D000984700232387E38E638710BD013303875B
:1033E000FBE738B50B7990F82C2004460D468BB9D5
:1033F0008AB123682046D3F8883098470023238772
:10340000A38E63870CF0FCFB21460430BDE83840F6
:103410000CF0ECBC82B1B3FA83F35B0984F82C3076
:1034200023682046D3F88C309847236820465B6990
:1034300098472B79002BDCD00CF0E2FB21460430BE
:10344000BDE838400CF029BC0B7970B590F82C60C1
:1034500004460D460BB916B170BD002EFCD0B3FA70
:1034600083F35B0984F82C3023682046D3F88C3032
:103470009847236820465B699847002EECD02B794B
:10348000012BE9D123682046D3F88830BDE870408D
:1034900018470B882DE9F04183861388B0F908504E
:1034A000C38604461046904610F01AF8B4F90A3064
:1034B000074603EBD3734046C3F34F0610F044F8BE
:1034C00005EBD575C5F34F0500EBD07007EBD7774B
:1034D000A6EB6002A5EB670104F1380012B209B255
:1034E000FFF7BEFC23682046D3F88C30BDE8F041DE
:1034F000184770B5036804469B6B154698472368C8
:1035000029462046DB6BBDE8704018470022C0E921
:103510000122C0E90322C0E90522C0E907224FF4D5
:1035200080728284014A0260704700BFCC55020855
:1035300010B526220446002120F067F92046FFF747
:10354000E5FF044B2360FF2384F826300023A362A9
:10355000204610BD70690208094A02600022C0E9D5
:103560000122C0E90322C0E90522C0E907228262E4
:103570004FF47F41026340F20112818582847047DB
:103580003456020870B50446FFF7E6FF154B0025D8
:103590002646C4E90D35144B46F83C3B3046FFF750
:1035A000C7FF124BE3632A4629463046C4E91C553F
:1035B000C4E91E55A566A4F86C50FFF751FC3146CE
:1035C0002046264606F024F8094B46F8803B304654
:1035D000FFF796FC2046C4E93255314606F018F84C
:1035E000204670BD1E000F0060570208D86902080F
:1035F000FC57020810B48367019BC36703685DF83A
:10360000044BD3F88C30C0E91C12184738B5044677
:1036100000F18005284609F0CFFBB4F90A20B4F97F
:1036200008102846FFF765FF38BD0368C0E932126D
:10363000D3F88C30184700002DE9F04F044695B0C0
:10364000A04600250EF0B2F9D94BE56348F8403B9F
:1036500004F16C074046FFF76BFF4FF6FF7B12A9A2
:1036600004F19809384604F1C406ADF848B008F0F2
:103670005FFE4846FFF75CFF3046FFF783FF04F527
:10368000CA7318460493FFF77DFF04F519731846B3
:103690000593FFF777FF04F54D7318460693FFF780
:1036A00071FF04F20443294634221846079320F0A0
:1036B000ACF80798FFF750FFBE4BC4F8043404F28F
:1036C0003C4A4FF0FF3326222946C4F8383450468E
:1036D000ADF848B020F099F85046FFF717FFB64B09
:1036E000C4F83C34BDF84830A4F86234504684F83D
:1036F00064B412A909F084FD5146079805F088FFCB
:1037000004F58D63294634221846039320F07DF892
:103710000398FFF721FFA94BC4F8683404F29C43D7
:1037200018460B93FFF704FFA54BC4F89C342A46B8
:1037300029460B98C4F8C854A4F8CC54C4F8D05403
:10374000C4F8D454C4F8D854C4F8DC54FFF788FB48
:103750000B99039805F05CFF9A4BC4F8683404F5A4
:103760009C6318460A93FFF7CBFB0A990398C4F8A9
:103770002855C4F82C5505F04BFF04F5A6631846F0
:103780000893FFF7BDFB904BC4F830358F4BC4F85E
:1037900090358F4BC4F898354FF4A07304F1040BA7
:1037A0002A46C4F87855C4F87C55C4F89C55294677
:1037B00040464FF07F4AC4F894450093F023FEF74B
:1037C000FFFF4146C4F868A0584605F021FF38467F
:1037D00012A9ADF8485009F013FD4FF4A0732A4622
:1037E000294638460093F023FEF7EAFF294638467B
:1037F00008F059FD3946584605F00AFF3C234FF4BE
:103800008272294648460093F023FEF7D9FF5C23D5
:103810004946C4F8C0A084F8BE3058461A2705F0BF
:10382000F7FE4FF01E13C4F8F8302A4629460097D9
:10383000322304F58070FEF7C3FFDFF8ACA1654AC0
:103840006549DFF8A8814FF00203A4F83031304613
:10385000624BCDF800A0FFF7CDFE4FF00809604B9A
:103860001293304612A9ADF84C90FFF7CFFE3223E9
:103870004A462946009704F5A270FEF7A1FF42468A
:1038800041463046FFF7D1FE04F5B26284F8E950B4
:10389000C4F8F42032233046099200974FF4917215
:1038A0005F21FEF78DFF3146584605F0B1FE4FF01F
:1038B0000F13C4F8C8312A4629460097322304F56D
:1038C000E870FEF77DFF4FF00202A4F80022434BA0
:1038D000404A41490498CDF800A0FFF78BFE4FF015
:1038E0000A013F4B0498ADF84C1012A91293FFF750
:1038F0008DFE32234A462946009704F50570FEF7EF
:103900005FFF424641460498364EFFF78EFE099A05
:1039100084F8B951C4F8C421322340F2011204984A
:1039200000975F21FEF74CFF0499584605F070FEA2
:10393000C4F898622A4629460097322304F5287075
:10394000FEF73EFF4FF00202A4F8D022234B214A9B
:1039500021490598CDF800A0FFF74CFE204B0598B3
:10396000129312A90B23ADF84C30FFF74FFE322310
:103970004A462946009704F53970FEF721FF424672
:1039800041460598FFF751FE099A84F88952C4F818
:10399000942232234FF4877205980097A521FEF7F1
:1039A0000FFF0599584605F033FEC4F868631FE021
:1039B000885A020898580208406A020838590208D2
:1039C000D8690208D4590208D0560208705A020871
:1039D0002B330008CC9900FF00990DFF076600FF0C
:1039E000384D020803000600996633FF0A0A0AFFF1
:1039F0002A4629460097322304F55C70FEF7E0FE64
:103A00004FF00202A4F8A0237E4B7F4A7F4906981C
:103A1000CDF800A0FFF7EEFD7D4B0698129312A99A
:103A20000923ADF84C30FFF7F1FD32234A46294611
:103A3000009704F56D70FEF7C3FE424641460698B6
:103A4000FFF7F3FD099A84F859533223C4F864232D
:103A5000069800974FF487721921FEF7B1FE069978
:103A6000584605F0D5FD4FF003090798ADF844908E
:103A700012AA11A90426ADF84860FFF70AFD142325
:103A8000099AC4F84054C4F83424079800934FF4BA
:103A90009672DC21FEF794FE32270799584605F00E
:103AA000B7FD2A4629460B9800978C23FEF788FE1F
:103AB000584BC4F8D034584BC4F8D43403F54123E0
:103AC00003F2EA63C4F8D834544BC4F8DC34D4F8B5
:103AD00068340398D3F88C304FF0050AA4F8CCA4CE
:103AE00098474B4B0A98129312A9ADF84CA009F0D5
:103AF00063F9B4F97224B4F970140A98FFF7F9FC69
:103B000029468C230A220A980097FEF759FE03984B
:103B1000C4F82885C4F82C85FFF772FB099B84F84C
:103B20008D54C4F898346E228C230398009739463C
:103B3000FEF746FE0399DFF80481584605F068FD5C
:103B40004FF4877208980621FFF78AF94FF0FF3388
:103B5000C4F86035D4F83035A4F864550CADD3F80A
:103B6000843008992846984795E8070004F26C537A
:103B700083E80700D8F8003004F5B06A2BB9284B69
:103B8000284A602128481FF039FC284F3B88032B26
:103B900003D8274B234A6121F4E7264D494628687C
:103BA00000F0F8F9244A0346314650460FF0DEFB98
:103BB000D8F80030C4F878A504F5B169002BDED040
:103BC0003B88022BE5D92868022100F0E3F91A4A64
:103BD0000346314648460FF0C9FB0898C4F87C9567
:103BE00009F0CAF80A4B0898129312A9ADF84C6074
:103BF00009F0E2F85846089905F00AFD204615B08C
:103C0000BDE8F08F076600FFCC9900FF00990DFF1B
:103C1000384D02083338CCFF2C72D4FF31DEF5FF6B
:103C20009453020896540208115402082C4E0120A5
:103C300058540208344E0120E1540208284E012055
:103C40007047000030B5174D2C68BFF35B8F14F040
:103C500001048FB023D128461EF08CFCF8B1124B22
:103C6000124913480A94CDE90B433F230993114BA2
:103C70000893114B0594CDE9064301220423CDE9B5
:103C800003320E23009316221123CDE90144FEF7DF
:103C9000EFFF0A481FF0D0FB28461EF077FC0448CF
:103CA0000FB030BD883F0020C85A02083C8502088A
:103CB0008C3F0020348802085C880208413C0008E0
:103CC0007047000030B5174D2C68BFF35B8F14F0C0
:103CD00001048FB022D128461EF04CFCF0B13F23E6
:103CE0000993114B0893114B114912480A94CDE9DD
:103CF000064301220423CDE903320A2300930E2256
:103D00000C23CDE90B44CDE901440594FEF7B0FF47
:103D100009481FF091FB28461EF038FC05480FB0FB
:103D200030BD00BFB83F0020388802086088020814
:103D300070860208BC3F0020C13C000870470000AC
:103D400030B5164D2C68BFF35B8F14F001048FB0B3
:103D500021D128461EF00EFCE8B13F230993104BF9
:103D60000893104B07930123CDE9054304930423E3
:103D7000CDE9024316230C4900930922CDE90B44F7
:103D80000A480A940194FEF773FF09481FF054FB98
:103D900028461EF0FBFB05480FB030BDE83F002071
:103DA0003C8802086488020834870208EC3F00203F
:103DB0003D3D00087047000030B5174D2C68BFF33B
:103DC0005B8F14F001048FB022D128461EF0D2FB85
:103DD000F0B13F230993114B0893114B0793012333
:103DE000CDE9054304930423CDE9024328230D497B
:103DF000009309222923CDE90B440B480A9401942E
:103E0000FEF736FF09481FF017FB28461EF0BEFBE1
:103E100005480FB030BD00BF1840002040880208A0
:103E200068880208B48702081C400020B53D0008DD
:103E300000207047002070470EB403B503AB00218B
:103E400053F8042B01930CF099FE02B05DF804EBDB
:103E500003B070470CB407B504AB53F8042B0193BF
:103E60000CF08CFE03B05DF804EB02B0704700006C
:103E7000436C10B5044673B3038F2BB9184B194A22
:103E8000C52119481FF0BAFAC38E00EB43035B8CBF
:103E90000BB30EF0C2FC238F012B03D8134B144A33
:103EA000CB21EEE7E28E531C9BB2092B194688BF4B
:103EB000A3F10A0104EB410140F63F10498C814215
:103EC00009D10A2B04EB420228BF002304EB430371
:103ED000508C588451842046BDE810400EF0A0BBA1
:103EE0001E5F0208275F0208D25F02081C600208FA
:103EF0002A6002080EF05BBB10B586B002AC84E805
:103F000006001A460AAB05930193099B00932146CC
:103F1000089B0BF0F7F906B010BD000038B518BBD0
:103F2000124B13481C681349B4B122682244026042
:103F3000626822440A60A26814440F4B00221A806F
:103F400000F038F8054600F033F80C4B1C600C4BC1
:103F50001D600C4B188007E00B4B03600B4B0B6094
:103F60000B4B1C68002CE8D138BD00BF544000202A
:103F70004C4000204840002050400020284E0120A6
:103F8000304E01202C4E01209C8802086C880208CB
:103F900030890208044B1B6853F82100034B1B684F
:103FA00003EB4000704700BF484000204C40002019
:103FB0000C207047004870475840002010B5FFF7AC
:103FC00041FE064C2060FFF7F7FE6060FFF77AFEC7
:103FD000A060FFF7B5FEE06010BD00BF58400020B4
:103FE00010B5002404600C6014601C6010BD7047A4
:103FF00010B54FF4AE7104461EF0BAFA204610BD5B
:1040000010B50446D0F8580100F06DF82046BDE820
:1040100010400BF0B9BE000010B50446FEF792FD4B
:10402000014B2360204610BD04610208704704382C
:104030007047704710B5102104461EF099FA2046CB
:1040400010BDA0F10400F5E700228260024A026080
:1040500018324260C1607047586102087047000022
:1040600010B5034B03600446FEF776FE204610BDF4
:104070008461020810B50446FFF7F2FF20464FF4B2
:10408000C6711EF075FA204610BD000008B5074B3A
:10409000186803F05EFB40B10BF0B2FDFEF7A6FD21
:1040A000BDE80840C82003F004BA08BD5C3D00200C
:1040B00010B50446FEF746FF054B2360054B064A44
:1040C0001B88042104F5BA700FF050F9204610BD8A
:1040D00084610208583D002078610208FEF73DBE69
:1040E000002202607047704770470438704770477D
:1040F00010B5102104461EF03BFA204610BDA0F179
:104100000400F5E700228260024A02601832426031
:10411000C1607047BC610208704700000F4B70B56A
:104120000446036042F2CC7540F2E46663596019BC
:104130001B68343D9847B542F8D14FF4D16540F241
:104140008456635960191B68343D9847B542F8D1CD
:104150002046FFF719F8204670BD00BFE461020851
:1041600010B50446FFF7DAFF204642F620011EF0A4
:10417000FFF9204610BD00220A21C0E90022C0E953
:104180000312826070470000F7B5124F044600F139
:1041900010060025D4E903C02268A16800EB820064
:1041A00005EB800007EBC0020FFA8CF3526812FB9C
:1041B0000C1257F830106068009311FB0C0112B21A
:1041C00056F8040F09B20135FEF7FAFA042DE1D1D1
:1041D00003B0F0BD24620208F8B506ACC0E90012D5
:1041E00054F8045B0B4F0C4EC0E902350346002225
:1041F00043F8102F00F12001022554F8042B43F856
:10420000042F8B42C2E90A761586F6D1FFF7BCFF70
:10421000F8BD00BFE8760CFFBD2706FF10B4446868
:104220000C448168446011445DF8044B8160FFF7E1
:10423000ABBF0368012B0BD003690133594201F076
:10424000030103F0030358BF4B420361FFF79CBF18
:104250007047012380F88D3400F50352002380F865
:10426000593380F8893280F8E93080F8B93180F824
:104270002934283280F83D3734309042FAD17047E3
:10428000084BD0F8B0251B8803FB03230722B3FBA0
:10429000F2F2C2EBC2029B1A03F5206350F823002E
:1042A000704700BF583D0020D0F8B025D0F8A835A1
:1042B0001344074A128813440722B3FBF2F2C2EBFD
:1042C000C2029B1A03F5206350F82300704700BF19
:1042D000583D002030B501F5E363002201F520517F
:1042E000012493F8255045B9032A40F8223002F101
:1042F000010583F8254003D02A4634338B42F0D1A0
:1043000030BD2DE9F04703F110070446203300F5D6
:10431000205957F8041FB1F904C0B1F90680BCF167
:10432000000F2BDBB1F908506544F02D26DCB1F904
:104330000A604644B6F5827F20DC04F5E36292F819
:10434000250098B1914211D0B2F904A055450DDD78
:10435000B2F908E0D644E64508DDB2F906A05645B4
:1043600004DDB2F90AE0D644C64505DC3432914595
:10437000E5D1BB42CDD10020BDE8F0870120FBE7AD
:104380002DE9F04F90F8143793B00446002B66D116
:1043900090F88D34002B62D1FFF786FF04F5DE68BC
:1043A000074601ADB1B12046FFF76AFF2146064638
:1043B00006A8D4F8A095D4F8A4A5FFF78BFF0FC8E2
:1043C00085E80F00142300934A4653463146404681
:1043D000FFF702FFD4F804370A93D4F808370B9399
:1043E000D4F80C370C93D4F810370D930AAB0FCBDD
:1043F00085E80F004FF0140904F2CC66CDF8009068
:1044000000237822D4F8F0163046FFF7E5FE0EA818
:104410002146D4F8A0A5D4F8A4B5FFF75BFF0FC8D8
:1044200085E80F005B46524639464046CDF800907D
:10443000FFF7D2FE7821334600222046FFF761FFC6
:10444000211D40B12046FFF704FF084613B0BDE828
:10445000F04F0CF0BDBC012384F81437F5E713B01E
:10446000BDE8F08F2DE9F04190F8145704460F464F
:1044700090469DB100F2CC663046FFF7CFFED4F8EF
:10448000D426D4F8D01633462046FFF73AFF48B179
:10449000C8F1000279423046FFF7C0FE00252846E9
:1044A000BDE8F081201D0CF093FCF8E710B5044640
:1044B000142200212046FFF7D5FF0028F8D110BDB7
:1044C00000226FF01301FFF7CDBF00221421FFF788
:1044D000C9BF38B590F814370446DBB100F2CC659B
:1044E0002846FFF7A6FED4F8D426D4F8D0162B46DB
:1044F0002046FFF706FF40B12846FFF79AFE284600
:10450000FFF797FE2846FFF794FE201DBDE83840D0
:104510000CF05EBC38BDFFF7DCBF000037B51C4DAA
:104520000446286803F015F9D8B14FF0FF33286826
:1045300000220DF1070103F0DCF894F8143733B9C9
:104540000BF05EFBFEF742FBC82002F0B2FF9DF8C5
:1045500007304C2B07D100226FF013012046FFF7E4
:1045600081FF03B030BD522B02D100221421F5E7A8
:104570004F2B03D12046FFF7ACFFF2E7442BF0D1DD
:10458000142200212046FFF76DFF0028F8D1E8E74C
:104590005C3D00202DE9F04F89B00023884601F1F1
:1045A0000C0204468DF80C3003A912F801090B78AF
:1045B00008B10133DBB2424501F8013DF5D1D4F831
:1045C00004370493D4F808370593D4F80C370693CE
:1045D000D4F81037079304F5E36504F520594FF03C
:1045E000140A4FF0000B95F82530B3B304AA00234A
:1045F00052F8041BA94230D00133042BF8D1B5F98D
:10460000062092FBFAF6F6B218F80630EBB906F17E
:1046100020036B44B5F9041013F8207C07EB8703E3
:1046200002EB83022B6812B29B6D28469847A219B1
:10463000374492F8BC362744013B82F8BC3697F8E1
:10464000BC36013387F8BC3607E0264485F825B030
:1046500096F8BC36013B86F8BC3634354D45C2D1A0
:10466000B4F8B4259DF8003003FB03239BB20D4A38
:10467000A4F8B435042104F5B0600EF077FE0A4AC0
:10468000B4F8B4351188994206D213800421054A42
:1046900004F5B1600EF06AFE201D09B0BDE8F04FD0
:1046A0000CF096BB78610208583D00202DE9F043DC
:1046B00090F8AC35013380F8AC35D0F8B03504460D
:1046C000013304F50056C0F8B03585B0FFF726FF7A
:1046D00094F8AC25D6F81C389A4253DBD4F8A835A8
:1046E00094F814770021013384F8AC15C4F8A83588
:1046F000002F47D014222046FFF7B4FE054690BB9A
:1047000001460D2268461FF080F8DFF880C004F2F1
:10471000DC6104F2EC604FF0140E4FF0010851F828
:10472000043FC3F828C0B3F9063093FBFEF304EB53
:10473000030999F8BC260132D2B20C2A01BF10330A
:104740006B443D4603F8108C814289F8BC26E6D1C3
:104750001DB169462046FFF71DFF002184F814179C
:104760002046FFF70DFED4F8A835322B0AD90023D6
:10477000C4F8A835D6F81C38053B132BD8BF142332
:10478000C6F81C3805B0BDE8F08300BFC8C8C8FF34
:104790002DE9F7430446FEF74FFF3F4B2360962376
:1047A0000026C4F8A035DFF80491C4F8A8654FF4DA
:1047B0008773C4F8A43584F8AC65C4F8B065A4F870
:1047C000B46504F5B76504F2BC672846FEF7B0FE91
:1047D000343545F8349C45F8086C25F8046CBD4226
:1047E000F3D10D22002128461FF00FF804F2CC600F
:1047F000FFF7C1FC04F5E36704F5DE60FFF7BBFCDF
:1048000004F5205884F814673D4600262846FEF734
:104810008FFE343545F8349C45F8086C25F8046C57
:104820004545F3D11D4E0FCE45460FC596E807000E
:1048300004F5005C3C2385E80700261DCCF81C38F5
:1048400000253946304604F0E3FE343707F80F5CA4
:104850004745F6D1B4F8B435114A124D042104F598
:10486000B0600EF083FD104B0D4A1B88042104F547
:10487000B1600EF07BFD286802F06BFF38B128684C
:104880004FF0FF3300220DF1070102F032FF204606
:1048900003B0BDE8F08300BFE4610208544402089D
:1048A000786102085C3D0020583D0020D86902086C
:1048B0002DE9F743074600F5B76427254FF48279C1
:1048C0000FFA85F80022204602234146CDF80090D9
:1048D000FDF776FF4FF0FF33C4E90A33142384F861
:1048E00026303E1D012323862146304604F090FEEB
:1048F0002368283520469B6D00224146ADB298477B
:10490000EF2D04F13404DBD1304603B0BDE8F043B1
:104910000CF05EBA10B50446FEF737FC2046FFF7F0
:10492000C7FF20460121BDE81040FFF729BDF02058
:1049300070474FF4A07070472920FDF787B92820F1
:10494000FDF784B908B5FDF755F9CA20FDF77EF9E2
:10495000C320FDF75FF90820FDF75CF95020FDF753
:1049600059F9CF20FDF772F90020FDF753F9C12066
:10497000FDF750F93020FDF74DF9ED20FDF766F910
:104980006420FDF747F90320FDF744F91220FDF7F5
:1049900041F98120FDF73EF9E820FDF757F9852020
:1049A000FDF738F90020FDF735F97820FDF732F9E9
:1049B000CB20FDF74BF93920FDF72CF92C20FDF722
:1049C00029F90020FDF726F93420FDF723F902200C
:1049D000FDF720F9F720FDF739F92020FDF71AF946
:1049E000EA20FDF733F90020FDF714F90020FDF768
:1049F00011F9B120FDF72AF90020FDF70BF91B2072
:104A0000FDF708F9B620FDF721F90A20FDF702F9B4
:104A1000A220FDF7FFF8C020FDF718F91020FDF7E0
:104A2000F9F8C120FDF712F91020FDF7F3F8C520C1
:104A3000FDF70CF94520FDF7EDF81520FDF7EAF834
:104A4000C720FDF703F99020FDF7E4F83620FDF7C5
:104A5000FDF8C820FDF7DEF8F220FDF7F7F800209A
:104A6000FDF7D8F8B020FDF7F1F8C220FDF7D2F835
:104A7000B620FDF7EBF80A20FDF7CCF8A720FDF7EC
:104A8000C9F82720FDF7C6F80420FDF7C3F82A204F
:104A9000FDF7DCF80020FDF7BDF80020FDF7BAF8BF
:104AA0000020FDF7B7F8EF20FDF7B4F82B20FDF755
:104AB000CDF80020FDF7AEF80020FDF7ABF801209F
:104AC000FDF7A8F83F20FDF7A5F8F620FDF7BEF8A2
:104AD0000120FDF79FF80020FDF79CF80620FDF768
:104AE00099F82C20FDF7B2F8C820FDF7FDF8262034
:104AF000FDF7ACF80120FDF78DF8E020FDF7A6F8F2
:104B00000F20FDF787F82920FDF784F82420FDF712
:104B100081F80C20FDF77EF80E20FDF77BF80920C8
:104B2000FDF778F84E20FDF775F87820FDF772F85C
:104B30003C20FDF76FF80920FDF76CF81320FDF716
:104B400069F80520FDF766F81720FDF763F81120D6
:104B5000FDF760F80020FDF75DF8E120FDF776F83D
:104B60000020FDF757F81620FDF754F81B20FDF73D
:104B700051F80420FDF74EF81120FDF74BF80720FF
:104B8000FDF748F83120FDF745F83320FDF742F8EE
:104B90004220FDF73FF80520FDF73CF80C20FDF71B
:104BA00039F80A20FDF736F82820FDF733F82F20D2
:104BB000FDF730F80F20FDF72DF81120FDF746F82E
:104BC000C820FDF791F82920FDF740F8BDE808401E
:104BD0002C20FDF73BB808B5FDF70CF80321D320D6
:104BE000FDF750F880B208BD10B5C4B2022203210F
:104BF0002046FCF7B5FF0A20FCF7FAFF204600220A
:104C00000321FCF7ADFFBDE810400220FCF7F0BF28
:104C100038B50446E4B2FCF7A1FF00212046FCF7BA
:104C2000B7FF012105462046FCF7B2FF40EA052008
:104C300080B238BD10B5C4B240212046FCF7A8FFB1
:104C4000030607D54C212046FCF7A2FF003818BF09
:104C5000012010BD01224B212046FCF781FF204698
:104C600000224B21FCF77CFF0020F2E773B5042300
:104C7000C4B20E461546D7210DEB03022046FCF7C1
:104C8000A1FF019B1BBA1A0DC3F30B2332802046F0
:104C90002B8001224B21FCF763FF00224B21204691
:104CA000FCF75EFF02B070BD10B50A4A1378984257
:104CB00004460DD0517888420AD00BB141B9012386
:104CC000D454FCF74BFF2046BDE81040FFF78CBFE3
:104CD00010BD00BF6840002010B5C4B209212046B5
:104CE000FCF756FF40F00102D2B220460921BDE890
:104CF0001040FCF735BF10B5C4B209212046FCF7BF
:104D000047FF092100F0FE022046BDE81040FCF7F5
:104D100027BF38B5C4B20D4620460A21FCF738FF3C
:104D200040EA0502D2B220460A21BDE83840FCF72D
:104D300017BF10B50446FCF712FF20461F21FFF7EE
:104D4000E8FF2046BDE81040FFF7C6BF38B5C4B243
:104D50000D4620460A21FCF71BFF20EA0502D2B2CD
:104D600020460A21BDE83840FCF7FABE10B50446DB
:104D7000FFF7C1FF20461F21BDE81040FFF7E6BF47
:104D800010B5C0B20C460B21FCF702FF204010BD4D
:104D90001F21FFF7F5BF0A46C0B20B21FCF7E0BEAA
:104DA0001F21FFF7F8BF38B5C4B20D4620461721C2
:104DB000FCF7EEFE20EA0502D2B220461721BDE83C
:104DC0003840FCF7CDBE70B5C4B20646042120467B
:104DD000FCF7DEFE042100F0FB0205462046FCF74E
:104DE000BFFE3046F021FFF7DEFF05F0F802204657
:104DF0000421FCF7B5FE492220212046FCF7B0FE35
:104E00000220FCF7F5FE204601222121FCF7A8FE36
:104E100020469A224121FCF7A3FE204601224A2186
:104E2000FCF79EFE204601224B21FCF799FE20460E
:104E300000224B21FCF794FE204601225621FCF76C
:104E40008FFE204601225821FCF78AFE20460122CF
:104E50004021FCF785FE2046FF220B21FCF780FE57
:104E6000BDE870400220FCF7C3BE0000054BD3F83C
:104E7000882042F47002C3F888204FF000629A60E4
:104E8000704700BF00ED00E008B50B4B1A6842F414
:104E900000721A601A6842F480621A601A6842F45A
:104EA00080721A60032000F02FF80020FDF75EF9F1
:104EB000FCF728FF002008BD003C0240034A044BD9
:104EC00011681B780B441360704700BF6C400020D2
:104ED00078000020014B1868704700BF6C4000202C
:104EE00038B50446FFF7F6FF631C1CBF054B1B7863
:104EF000054618BFE418FFF7EDFF431BA342FAD3A2
:104F000038BD00BF780000200749CA6822F4E0627B
:104F10000302120403F4E063120C134343F0BF6373
:104F200043F40033CB60704700ED00E0164B30B522
:104F3000DC68C4F30224C4F10703251D042B28BF39
:104F40000423062D4FF0FF358CBF033C002405FAE7
:104F500003F321EA0303A54022EA0502A340002847
:104F600043EA0203ACBF00F16040084A4FEA031372
:104F7000B8BF00F00F00DBB2AABF00F561401354C8
:104F800080F8003330BD00BF00ED00E014ED00E01C
:104F9000002807DB044A4109012300F01F00834079
:104FA00042F82130704700BF00E100E010B5044630
:104FB00050B1437903F0FF0213B90271FCF7C2FE4E
:104FC00001236371002010BD0120FCE710B50446E9
:104FD00030B390F8393003F0FF021BB980F8382065
:104FE000FCF7C8FE22686168022384F83930136830
:104FF00023F440330B431360536BA16823F0070382
:105000000B435363136CE16823F47F5323F03F0396
:105010000B43136400200123E06384F8393010BD92
:105020000120FCE770477047036870B55E681D6833
:10503000F207044614D5E90512D51A6822F48072E5
:105040001A60C26B42F00102C26301229A6004231B
:1050500080F83930002380F83830436903B198472D
:10506000B20616D5AB0414D523681A6822F4005290
:105070001A6020229A60E36B43F00203E363042387
:1050800084F83930002384F8383063690BB1204646
:105090009847300716D5290514D523681A6822F4D5
:1050A00000621A6008229A60E36B43F00403E36332
:1050B000042384F83930002384F8383063690BB155
:1050C0002046984772070BD56B0509D523681A68E7
:1050D00022F480621A6004229A602046FFF7A2FF41
:1050E000B00714D5A90512D523681A6822F40072F6
:1050F0001A6002229A60E36BE363012384F839307B
:10510000002384F8383023690BB120469847F20613
:1051100013D5EB0411D523681A6822F480521A6063
:1051200010229A60E36BE363012384F83930002393
:1051300084F838302046FFF776FF70BDF0B590F860
:105140003820012A03464FF002002BD0012283F8B9
:10515000382083F8390003EB0112D2E90740556A81
:10516000174F44EA0040093C012C9CBF05F07F42E8
:1051700010434FEA01161A6888BF40EA056091B9EA
:10518000516A394001435162012C9969916103D8F8
:10519000596A21F07F4191620122002083F8392071
:1051A00083F83800F0BDD16939400143D1619919C4
:1051B000012C896911619CBF25F07F451562EBE7E1
:1051C000F0FFFC002DE9F74FDFF8BC916C4A00239B
:1051D0000D6801249C4004EA0506AC4340F0B7800A
:1051E0004D68032705F003044FEA430807FA08FC5B
:1051F000671E012F6FEA0C0C34D8876807EA0C0E83
:10520000CF6807FA08F747EA0E078760476827EA7A
:10521000060EC5F300179F4047EA0E074760C768B0
:1052200007EA0C0E8F6807FA08F747EA0E07022C08
:10523000C76019D14FEAD30A00EB8A0A03F0070BC3
:10524000DAF820704FEA8B0B4FF00F0E0EFA0BFEC0
:1052500027EA0E0E0F6907FA0BF747EA0E07CAF89E
:10526000207001E0032CDAD1076804FA08F407EA99
:105270000C073C4315F4403F046068D000240194BF
:10528000D9F8444044F48044C9F84440D9F8444033
:1052900023F0030707F1804704F4804407F59C37A7
:1052A000019403F0030C019CD7F808E04FEA8C0C42
:1052B0000F2404FA0CF42EEA040E324CA0424DD016
:1052C00004F58064A0424BD004F58064A04249D02C
:1052D00004F58064A04247D004F58064A04245D024
:1052E00004F58064A04243D004F58064A04241D01C
:1052F00004F58064A0423FD004F58064A0423DD014
:1053000004F58064A04214BF0A24092404FA0CF4B2
:1053100044EA0E04BC609468F74315F4801F0CBF88
:105320003C4034439460D46815F4001F0CBF3C40EB
:105330003443D460546815F4003F0CBF3C40344300
:1053400054601468ED0354BF3C403443146001338F
:10535000102B7FF43DAF03B0BDE8F08F0024D5E7FC
:105360000124D3E70224D1E70324CFE70424CDE7C7
:105370000524CBE70624C9E70724C7E70824C5E7C7
:10538000003C01400000024000380240036919421D
:1053900014BF0120002070470AB1816170470904E1
:1053A000FBE7436901EA030221EA030141EA024102
:1053B0008161704701684B6913F480634FF000020C
:1053C00010D06FF480634B612023026380F83D307E
:1053D00080F83E20036C80F83C2043F00403036413
:1053E00001207047184670472DE9F84606460F46DB
:1053F00091461D464FEA114A3368BAF1010F0CBFBE
:105400005C699C6927EA0404A4B2B4FA84F46409D0
:10541000A14501D0002025E06A1CEED0FFF75AFD1F
:10542000089BC01AA84201D8002DE5D13368BAF113
:10543000010F0CBF5B699B6927EA03039BB2B3FAB8
:1054400083F35B099945D7D100232022336386F883
:105450003D2086F83E30326C86F83C3042F0200227
:1054600032640120BDE8F8862DE9F04104460F467C
:10547000164698462568686927EA000080B2C0B1E0
:105480006B695A0517D52B6843F400732B606FF4D2
:1054900080636B6120220023236384F83D2084F81D
:1054A0003E30236C43F004032364002384F83C3033
:1054B0000120BDE8F081731CDDD0FFF70BFDA0EBF0
:1054C0000800B04201D8002ED4D123685A6927EAD7
:1054D000020292B2002ACDD000232022236384F856
:1054E0003D2084F83E30236C1343DDE770B504465D
:1054F0000D46164623685B691B0601D500201EE099
:105500002046FFF757FFC8B96A1CF3D0FFF7E2FC4B
:10551000801BA84201D8002DECD123685B6913F0F1
:105520008003E7D12022236384F83D2084F83E30B5
:10553000226C84F83C3042F020022264012070BDCD
:105540002DE9F0431546026885B0DDE90C789946EF
:10555000136843F4807313600E463B46CDF8008019
:1055600000224FF001110446FFF73EFF236838B1D7
:105570001B68DB0502D54FF400732364032620E08B
:1055800006F0FE061E611A4943463A462046FFF7DA
:105590006BFFA8B9236803905A6903929B69039330
:1055A000424639462046039BFFF7A0FF064660B1FE
:1055B000236C042B01BF2268136843F4007313604B
:1055C0000126304605B0BDE8F083B9F1010F23682C
:1055D00002D1EDB21D61F4E72A0A1A61394642464A
:1055E0002046FFF783FF0028E2D12368F1E700BFE0
:1055F000020001002DE9FF479A46036815461A6824
:1056000042F480621A601A68DDE90C7842F4807214
:105610001A600E463B46CDF8008000224FF0011183
:105620000446FFF7E1FE236838B11B68DB0544BF81
:105630004FF400732364032021E05FFA86F906F03B
:10564000FE061E612B4943463A462046FFF70CFFF3
:10565000A0B9236803905A6903929B690393424659
:1056600039462046039BFFF741FF58B1236C042BBA
:1056700001BF2268136843F400731360012004B073
:10568000BDE8F087BAF1010F23681AD1EDB24246A6
:105690001D6139462046FFF729FF02460028E5D163
:1056A00021680B6843F480730B602046CDF80080BE
:1056B0003B464FF00111FFF797FE226860B1136877
:1056C000B4E72A0A1A61394642462046FFF70EFF20
:1056D0000028CBD12368D9E749F0010313610549BC
:1056E00043463A462046FFF7BFFE003818BF012068
:1056F000C5E700BF0200010070B504460D4616461E
:1057000023685B695B0701D500201EE02046FFF798
:1057100051FEC8B96A1CF3D0FFF7DCFB801BA8421E
:1057200001D8002DECD123685B6913F00403E7D1A5
:105730002022236384F83D2084F83E30226C84F8D4
:105740003C3042F020022264012070BD70B5044656
:105750000D46164621684B6913F0400301D0002026
:1057600011E04A69D2060FD56FF010024A6120227B
:10577000236384F83D2084F83E30236C23640023A7
:1057800084F83C30012070BDFFF7A4FB801BA842C9
:1057900001D8002DDED123685B6913F04003D9D115
:1057A0002022236384F83D2084F83E30236C134389
:1057B000E4E7000070B5044608B9012070BD90F818
:1057C0003D3003F0FF021BB980F83C20FCF7F4FAEF
:1057D000242384F83D3023681A6822F001021A60FD
:1057E0001A6842F400421A601A6822F400421A60F1
:1057F00000F0B2FE3F4B65689D4294BF3E4B3F4B6D
:1058000098428CBF00230123002BD6D12268394E49
:1058100051683B4BB0FBF3F321F03F011943B54214
:10582000516088BF4FF49676116A88BF734321F0A8
:105830003F0184BF4FF47A76B3FBF6F301330B4399
:105840001362D169431E2B4821F44F41854221F058
:10585000FF0132D86D0040F6FC70B3FBF5F3013365
:10586000034242D0C3F30B031943D161D4E907309B
:105870001168034321F0C0010B4313609168D4E920
:10588000030321F40341034321F0FF010B43936021
:10589000D4E90530D168034321F0FF010B43D36005
:1058A000136843F00103136000202023206484F870
:1058B0003D30206384F83E0080E7A06850B905EBD6
:1058C0004505B3FBF5F30133C3F30B037BB143F49D
:1058D0000043C9E719206843B3FBF0F30133C3F376
:1058E0000B0323B143F44043BEE70423BCE7012389
:1058F000BAE700BFA08601007F841E00FF083D00BC
:1059000040420F002DE9F743044699460C9E0F468E
:105910009046FFF7DFFA94F83D30202B054603D080
:10592000022003B0BDE8F08300903C491923012216
:105930002046FFF759FD0028F2D194F83C30012BA6
:10594000EED02068012384F83C300368D9075EBF9D
:10595000036843F001030360036823F400630360FA
:10596000212384F83D30402384F83E300023236413
:105970000A9B6362BDF82C306385638D2385284BB9
:10598000E3624246CDE900654B4639462046FFF7C3
:10599000D7FD00282AD00120C3E7FFF7A7FD40B1BB
:1059A000236C042B01BF2268136843F40073136057
:1059B000F1E7636A27681A4612F8011B39616262CF
:1059C000628D218D013A92B262857A69481E80B259
:1059D000520720850AD548B15A783A61023363628A
:1059E000638D013B02399BB221856385238D2A4655
:1059F00031462046002BD0D1FFF77EFE0028CFD1C4
:105A00002268136843F400731360202384F83D3048
:105A100084F83C0084F83E0083E700BF02001000D9
:105A20000000FFFF2DE9F043044687B09946109F20
:105A30000D469046FFF74EFA94F83D30202B06466F
:105A400004D00225284607B0BDE8F08300907A49CB
:105A5000192301222046FFF7C7FC0028F1D194F852
:105A60003C30012BEDD02068012384F83C300368E2
:105A7000DB075EBF036843F001030360036823F4A0
:105A800000630360222384F83D30402384F83E30D5
:105A9000002323640E9B6362BDF83C306385638DF5
:105AA0002385664BE3622946CDE900764B464246A4
:105AB0002046FFF79FFD054608B10125C2E7228D6C
:105AC0002368B2B902905A6902929A690292029AC4
:105AD0001A6842F400721A60DFF86481238D002B8B
