:020000040800F2
:10000000000003207D0C00083D2C00083F2C000858
:10001000412C0008432C0008452C0008000000007B
:10002000000000000000000000000000C18B00087C
:10003000472C000800000000518C0008C98400080B
:10004000CD0C0008CD0C0008CD0C0008CD0C00082C
:10005000CD0C0008CD0C0008CD0C0008CD0C00081C
:10006000CD0C0008CD0C0008CD0C0008CD0C00080C
:10007000CD0C0008CD0C0008CD0C0008CD0C0008FC
:10008000CD0C0008CD0C0008CD0C0008CD0C0008EC
:10009000CD0C0008CD0C0008CD0C0008CD0C0008DC
:1000A000CD0C0008CD0C0008CD0C0008CD0C0008CC
:1000B000CD0C0008CD0C0008CD0C0008CD0C0008BC
:1000C000CD0C0008CD0C0008CD0C0008CD0C0008AC
:1000D000CD0C0008CD0C0008CD0C0008CD0C00089C
:1000E000CD0C0008CD0C0008CD0C0008CD0C00088C
:1000F000CD0C0008CD0C0008CD0C0008CD0C00087C
:10010000CD0C0008CD0C0008CD0C0008CD0C00086B
:10011000CD0C0008CD0C0008492C0008CD0C0008BF
:10012000CD0C0008CD0C0008CD0C0008CD0C00084B
:10013000CD0C0008CD0C0008CD0C0008CD0C00083B
:10014000CD0C0008CD0C0008CD0C0008CD0C00082B
:10015000CD0C0008CD0C0008CD0C0008CD0C00081B
:10016000CD0C0008CD0C0008CD0C0008CD0C00080B
:10017000CD0C0008CD0C0008CD0C000800000000DC
:10018000CD0C0008CD0C0008CD0C0008CD0C0008EB
:10019000CD0C0008CD0C0008CD0C0008CD0C0008DB
:0C01A000552C0008CD0C0008612C000854
:1001B00010B5054C237833B9044B13B10448AFF3A1
:1001C00000800123237010BD800600200000000085
:1001D0004C55020808B5034B1BB103490348AFF364
:1001E000008008BD00000000840600204C55020875
:1001F00001F0FF01102A2BDB10F0070F08D010F8D8
:10020000013B013A8B422DD010F0070F42B3F6D1DB
:10021000F0B441EA012141EA014122F007047FF0F4
:1002200000070023F0E80256083C85EA010586EA4B
:10023000010685FA47F5A3FA87F586FA47F6A5FA87
:1002400087F68EB9EED1F0BC01F0FF0102F0070293
:1002500032B110F8013B013A83EA010313B1F8D13E
:100260000020704701387047002D06BF354603381F
:10027000073815F0010F07D1013015F4807F02BF58
:10028000013015F4C03F0130F0BC0138704700BFA9
:1002900070B54FF0FF0C4CF4E06C1CEA11541DBF1C
:1002A0001CEA135594EA0C0F95EA0C0F00F0DEF8E7
:1002B0002C4481EA030621EA4C5123EA4C5350EACC
:1002C000013518BF52EA033541F4801143F480131D
:1002D00038D0A0FB02CE4FF00005E1FB02E506F0AE
:1002E0000042E0FB03E54FF00006E1FB03569CF003
:1002F000000F18BF4EF0010EA4F1FF04B6F5007F09
:1003000064F5407404D25FEA4E0E6D4146EB06067A
:1003100042EAC62141EA55514FEAC52040EA5E5003
:100320004FEACE2EB4F1FD0C88BFBCF5E06F1ED8AD
:10033000BEF1004F08BF5FEA500E50F1000041EBE4
:10034000045170BD06F0004646EA010140EA020091
:1003500081EA0301B4EB5C04C2BFD4EB0C0541EAB3
:10036000045170BD41F480114FF0000E013C00F3C8
:10037000AB8014F1360FDEBF002001F0004170BDEC
:10038000C4F10004203C35DA0C341BDC04F1140405
:10039000C4F1200500FA05F320FA04F001FA05F291
:1003A00040EA020001F0004221F0004110EBD3705E
:1003B00021FA04F642EB06015EEA430E08BF20EA8A
:1003C000D37070BDC4F10C04C4F1200500FA04F32D
:1003D00020FA05F001FA04F240EA020001F00041BF
:1003E00010EBD37041F100015EEA430E08BF20EA32
:1003F000D37070BDC4F1200500FA05F24EEA020E7A
:1004000020FA04F301FA05F243EA020321FA04F0A8
:1004100001F0004121FA04F220EA020000EBD3705F
:100420005EEA430E08BF20EAD37070BD94F0000F5F
:100430000FD101F00046400041EB010111F4801F93
:1004400008BF013CF7D041EA060195F0000F18BF44
:10045000704703F00046520043EB030313F4801F80
:1004600008BF013DF7D043EA0603704794EA0C0F3A
:100470000CEA135518BF95EA0C0F0CD050EA410650
:1004800018BF52EA4306D1D181EA030101F00041CD
:100490004FF0000070BD50EA410606BF10461946F5
:1004A00052EA430619D094EA0C0F02D150EA013601
:1004B00013D195EA0C0F05D152EA03361CBF104642
:1004C00019460AD181EA030101F0004141F0FE41E1
:1004D00041F470014FF0000070BD41F0FE4141F465
:1004E000780170BD81F0004102E000BF83F000435D
:1004F00030B54FEA41044FEA430594EA050F08BFBF
:1005000090EA020F1FBF54EA000C55EA020C7FEA82
:10051000645C7FEA655C00F0E2804FEA5454D4EBFF
:100520005555B8BF6D420CDD2C4480EA020281EAC9
:10053000030382EA000083EA010180EA020281EA01
:100540000303362D88BF30BD11F0004F4FEA013153
:100550004FF4801C4CEA113102D0404261EB410162
:1005600013F0004F4FEA03334CEA133302D05242E8
:1005700063EB430394EA050F00F0A780A4F10104A4
:10058000D5F1200E0DDB02FA0EFC22FA05F28018DE
:1005900041F1000103FA0EF2801843FA05F35941C4
:1005A0000EE0A5F120050EF1200E012A03FA0EFC43
:1005B00028BF4CF0020C43FA05F3C01851EBE3716D
:1005C00001F0004507D54FF0000EDCF1000C7EEB8A
:1005D00000006EEB0101B1F5801F1BD3B1F5001FC8
:1005E0000CD349085FEA30004FEA3C0C04F10104E7
:1005F0004FEA445212F5800F80F09A80BCF1004F10
:1006000008BF5FEA500C50F1000041EB045141EA91
:10061000050130BD5FEA4C0C404141EB0101013C5A
:1006200028BFB1F5801FE9D291F0000F04BF014649
:100630000020B1FA81F308BF2033A3F10B03B3F11B
:1006400020020CDA0C3208DD02F1140CC2F10C02AB
:1006500001FA0CF021FA02F10CE002F11402D8BF09
:10066000C2F1200C01FA02F120FA0CFCDCBF41EAD5
:100670000C019040E41AA2BF01EB0451294330BDA4
:100680006FEA04041F3C1CDA0C340EDC04F1140481
:10069000C4F1200220FA04F001FA02F340EA030058
:1006A00021FA04F345EA030130BDC4F10C04C4F19E
:1006B000200220FA02F001FA04F340EA030029467E
:1006C00030BD21FA04F0294630BD94F0000F83F4C8
:1006D000801306BF81F480110134013D4EE77FEAAB
:1006E000645C18BF7FEA655C29D094EA050F08BFF7
:1006F00090EA020F05D054EA000C04BF19461046D8
:1007000030BD91EA030F1EBF0021002030BD5FEA1B
:10071000545C05D14000494128BF41F0004130BD43
:1007200014F580043CBF01F5801130BD01F0004597
:1007300045F0FE4141F470014FF0000030BD7FEA0A
:10074000645C1ABF194610467FEA655C1CBF0B4605
:10075000024650EA013406BF52EA033591EA030F1C
:1007600041F4002130BD00BF90F0000F04BF002114
:10077000704730B54FF4806404F132044FF0000547
:100780004FF0000150E700BF90F0000F04BF0021C0
:10079000704730B54FF4806404F1320410F0004526
:1007A00048BF40424FF000013EE700BF42004FEA21
:1007B000E2014FEA31014FEA02701FBF12F07F439E
:1007C00093F07F4F81F06051704732F07F4208BF55
:1007D000704793F07F4F04BF41F40021704730B55C
:1007E0004FF4607401F0004521F000411CE700BFA8
:1007F00050EA010208BF704730B54FF000050AE02B
:1008000050EA010208BF704730B511F0004502D52B
:10081000404261EB41014FF4806404F132045FEA2D
:10082000915C3FF4D8AE4FF003025FEADC0C18BFD6
:1008300003325FEADC0C18BF033202EBDC02C2F1C8
:10084000200300FA03FC20FA02F001FA03FE40EA5A
:100850000E0021FA02F11444BDE600BF4FEA410246
:1008600012F5001215D211D56FF47873B3EB625202
:1008700012D94FEAC12343F0004343EA505311F029
:10088000004F23FA02F018BF404270474FF00000BB
:10089000704750EA013005D111F0004008BF6FF0F9
:1008A000004070474FF00000704700BF4A0011D26F
:1008B00012F5001211D20DD56FF47873B3EB6252BA
:1008C0000ED44FEAC12343F0004343EA505323FAC6
:1008D00002F070474FF00000704750EA013002D13B
:1008E0004FF0FF3070474FF0000070477BB972B98E
:1008F0000029BEBF00204FF0004106E008BF0028DD
:100900001CBF6FF000414FF0FF3000F0B5B9ADF102
:10091000080C6DE904CE002909DB002B1ADB00F07E
:100920004DF8DDF804E0DDE9022304B070474042F1
:1009300061EB4101002B1BDB00F040F8DDF804E027
:10094000DDE9022304B0404261EB4101524263EB16
:1009500043037047524263EB430300F02FF8DDF886
:1009600004E0DDE9022304B0404261EB410170473D
:10097000524263EB430300F021F8DDF804E0DDE9C7
:10098000022304B0524263EB4303704753B94AB9A0
:10099000002908BF00281CBF4FF0FF314FF0FF3087
:1009A00000F06AB9ADF1080C6DE904CE00F006F86C
:1009B000DDF804E0DDE9022304B070472DE9F047DB
:1009C000089D0C46002B4ED194468C458646B2FAC3
:1009D00082F262D94AB1C2F12003914020FA03F3B6
:1009E0000CFA02FC194300FA02FE4FEA1C471FFAF8
:1009F0008CF6B1FBF7F44FEA1E4307FB141143EAF0
:100A0000014304FB06F199420AD91CEB030304F1EC
:100A1000FF3080F01281994240F20F81023C634422
:100A2000591A1FFA8EF3B1FBF7F007FB101143EAD6
:100A3000014300FB06F69E420AD91CEB030300F1BA
:100A4000FF3180F0FC809E4240F2F980634402381E
:100A50009B1B40EA044000211DB1D3400022C5E9A0
:100A60000032BDE8F0878B4205D90DB1C5E9000120
:100A700000210846F5E7B3FA83F1002946D1A342E5
:100A800002D39042C0F0F080861A64EB0303012089
:100A9000002DE6D0C5E90063E3E7002A40F090802E
:100AA000A1EB0C044FEA1C481FFA8CF70121B4FBA0
:100AB000F8F64FEA1E4308FB164443EA044307FBDB
:100AC00006F0984208D91CEB030306F1FF3402D26A
:100AD000984200F2CD8026461C1A1FFA8EF3B4FB12
:100AE000F8F008FB104443EA044300FB07F79F4279
:100AF00008D91CEB030300F1FF3402D29F4200F23D
:100B0000B0802046DB1B40EA0640A5E7C1F1200685
:100B10008B4022FA06F71F4320FA06FC04FA01F381
:100B200043EA0C03F44000FA01F8380C4FEA134989
:100B3000B4FBF0FE1FFA87FC00FB1E4449EA0444A4
:100B40000EFB0CF9A14502FA01F20AD93C190EF18B
:100B5000FF3A80F08480A14540F28180AEF1020E20
:100B60003C44A4EB09041FFA83F9B4FBF0F300FB47
:100B7000134449EA044403FB0CFCA44507D93C197F
:100B800003F1FF3067D2A44565D9023B3C4443EAF8
:100B90000E40A0FB0293A4EB0C049C42CE469C4664
:100BA00051D34ED055B1B8EB0E0364EB0C0404FAEC
:100BB00006F6CB401E43CC40C5E90064002150E757
:100BC000C2F1200320FA03F10CFA02FC24FA03F329
:100BD00094400C434FEA1C4800FA02FE1FFA8CF7BF
:100BE000B3FBF8F008FB1031230C43EA014300FB90
:100BF00007F1994208D91CEB030300F1FF362CD210
:100C000099422AD9023863445B1AA4B2B3FBF8F1C3
:100C100008FB113344EA034401FB07F3A34208D95C
:100C20001CEB040401F1FF3613D2A34211D902399F
:100C30006444E41A41EA004139E70446F0E6084614
:100C400006E7C845AED2B9EB020E63EB070C0138DC
:100C5000A8E73146EDE7034699E73046D4E7D646A4
:100C60007FE7634402384DE70646234608460FE710
:100C7000023E634430E700BF704700BFDFF834D066
:100C8000002103E00C4B5B58435004310B480C4BE4
:100C900042189A42F6D30B4A02E0002342F8043B82
:100CA000094B9A42F9D304F069FE23F0DFFE01F00C
:100CB000C5F9704700000320747606080000002084
:100CC0008004002080060020544C0120FEE770477D
:100CD00008B500F0ABFDBDE8084000F02DBD00F008
:100CE000A7BD704710B50421044622F0C9FC204678
:100CF00010BD000038B50C4B0C4C18800C4B8220FA
:100D000019806368984740F6110398420AD1094D4B
:100D100023682C60822098472B688220DB689847E4
:100D2000002038BD0120FCE7A60600206803002053
:100D3000A4060020A80600204FF4A071F020FFF7C1
:100D4000D9BF0000F7B5334D2B6804461B698220DC
:100D50009847208000284AD02B680DF106025B6975
:100D600001A982209847BDF8063040F6746293428C
:100D70003FD9ADF80620BDF80630D21A92B20A2A41
:100D80003DD90B23B2FBF3F2234B1B889A4201D9C6
:100D9000013B9AB2BDF8043040F6B8318B4230D8EE
:100DA000C3F571630E339BB20F21B3FBF1F31B4903
:100DB00009888B4201D901398BB2194E194D30681F
:100DC0002F68834281B28CBF591AC91AB8B2BA428D
:100DD0008CBF101A801A89B280B201440529C8BF9D
:100DE00033603368C8BF2A6063802B68A38003B078
:100DF000F0BDB32B9CBFB423ADF80630BBE7002297
:100E0000C8E7C3F56D6308339BB20E2BCCD8002323
:100E1000D3E700BFA8060020A4060020A6060020F5
:100E2000A00600209C06002037B568460D461446F3
:100E3000FFF788FFBDF8000030B1BDF802302B602D
:100E4000BDF804302360012003B030BD032821D851
:100E5000DFE800F0020B12190F4B1A68B2FA82F2A7
:100E6000520904210D4805F01FB80B4B5A68B2FA1D
:100E700082F252090821F5E7074B9A68B2FA82F22A
:100E800052091021EEE7044BDA68B2FA82F25209F5
:100E90002021E7E7704700BFAC06002000100240A9
:100EA000032821D8DFE800F0020B12190F4B1A6853
:100EB000003A18BF012204210D4804F0F5BF0B4B86
:100EC0005A68003A18BF01220821F5E7074B9A68D3
:100ED000003A18BF01221021EEE7044BDA68003A0D
:100EE00018BF01222021E7E7704700BFAC060020B1
:100EF0000010024003280DD8DFE800F00206080ABF
:100F00000421054804F0D5BF0821FAE71021F8E7CD
:100F10002021F6E7704700BF0010024008B5032803
:100F200011D8DFE800F0020A0C0E0421074804F093
:100F3000B5FF431E5842584108BD0821F6E710216D
:100F4000F4E72021F2E70020F3E700BF00100240A1
:100F500070B5084D00240126E0B2FFF7DFFF18B19D
:100F60002B68012B18BF2E600134052C05F10405F8
:100F7000F2D170BDAC060020012380F8781080F813
:100F80007930704700207047034B4164003918BF27
:100F900001211970704700BF133F012000207047E6
:100FA000836B0BB10846184770474FF6FF707047C8
:100FB000406803689B691847704770477047000096
:100FC00010B5044600F042FD23680349D3F88C3085
:100FD0002046BDE810401847000000D008B503685F
:100FE0000446D3F880309847236820469B6F984783
:100FF00000F0ECF8236820461B6F9847292001F089
:10100000F9FA00F0E3F8236820461B6F9847F8E7E9
:1010100010B504460AF0AEFB23682046D3F8AC3086
:10102000BDE81040184700F0F3BC00F0F7BC00F03A
:101030002BBD00F0C9BC00F03BBD00F043BD00F08B
:10104000CDBC09F003BE10B57C21044622F018FB8C
:10105000204610BD10B590F8341090F878400C4B35
:101060008C421A7809D03AB90A4A0B491488088880
:1010700010800C8001221A7010BD002AFCD0054A95
:1010800005491488088810800C800022F3E700BF0F
:101090000C3F0120083F01200A3F012070B50D469A
:1010A000194635B9094B0A4A0A4840F2D22123F0C1
:1010B0002DFAC0E90F52084B003A18BF01221A70EE
:1010C0000368BDE87040D3F88C301847D855020843
:1010D000105602085E560208123F012008B5094B5F
:1010E0001B888B4203D8084B1B88934205D9074BBA
:1010F000074A08489E2123F009FA074B1980074B3D
:101100001A8008BD083F01200A3F0120A3560208AB
:10111000065702085E5602080E3F0120103F0120CC
:10112000034690F87A0018B1586803681B6818479E
:1011300070470000012108B50022084607F051FA67
:101140000A4B186028B90A4B0A4A28210A4823F09A
:10115000DDF900220421012007F0EBFA074B1860AB
:1011600018B9074B034A2C21F0E708BDC006002040
:10117000245802086D5802089C580208BC0600203A
:10118000F1580208024B4FF0FF31186807F073BAAC
:10119000C0060020014B186807F099BAC00600206D
:1011A000024B0021186807F066BA00BFC006002095
:1011B000FFF7F0BF03480449006800231A4607F010
:1011C000F3BA00BFBC0600200400002013B5084C91
:1011D00000231A4601A9206807F017FB20684FF08A
:1011E000FF33002201A907F010FB02B010BD00BFC1
:1011F000BC06002003685B6C184701207047036839
:101200009B6A1847FEE740F2EF307047054B0360DA
:10121000054B4FF08062C3F88820BFF34F8FBFF3B8
:101220006F8F7047985A020800E100E010B504463D
:101230004FF45A61FFF7EAFF204622F021FA2046D8
:1012400010BD000082B0002301930E4B1A6B42F4D4
:1012500000021A631A6B02F400020192019A1A69E1
:1012600042F400021A611A6922F400021A61064B64
:10127000064A1A61064A5A61064B4FF080629A602C
:1012800002B070470038024034300020E5140008F6
:101290000512000800E100E008B50A2809D8DFE8D7
:1012A00000F006100E0808080810101010000220A8
:1012B00008BD054B054A0648902123F027F9002078
:1012C000F6E70120F4E700BF335902084E5902083F
:1012D0009959020838B50C46887FFFF7DDFFA58ACB
:1012E000E28A164B2169586342EA05425A64628BCE
:1012F000D963521B1A642568082D0ED19A611A61B0
:101300005862207F0E4A42EA0062DA61E2681A629D
:101310000C4A5961D9601A6038BD0022D8611A613F
:10132000E1680A0A480902F4784200F4FC600243CA
:10133000C1F3C4010A439A63034AECE700B00240D8
:1013400009000100012302000123030008B50B2856
:101350000BD8DFE800F00612100A0A0A0A0808088B
:101360000808022008BD0520FCE7054B054A064891
:101370006F2123F0CBF80020F4E70120F2E700BF53
:1013800033590208EC590208995902082DE9F04135
:1013900091F81D800C464046FFF7D8FFA77F054611
:1013A0003846FFF7D3FF06463846FFF775FFA18A98
:1013B000628B444B521A1A649A61228B521A1A6138
:1013C000E28A586342EA01425A6421696268D96339
:1013D000DA602068802828D0227F0FD8202867D0A4
:1013E000402865D004281AD0364B45EA026545F4FA
:1013F0000035B845DD6161D0334A44E0B0F5807F07
:1014000004D0B0F5007FEFD1304800E0304840EA2A
:101410000262DA61E2681A625E62596132E045EAAC
:10142000026242F40032DA61F6E7A068021DDA6275
:10143000227F45EA026545F40035DD615E6259614F
:10144000017841B1012921D0224B234A23484FF48E
:101450008D7123F05BF8DA69418822F47F4201390B
:1014600022F0100242EA0122DA610121154BDA6909
:1014700042F02002DA61DA699206FCD410229A6006
:101480000029B9D0164A1A60BDE8F081B2F1FF0117
:10149000DA69408822F47F4200F1FF3022F0100226
:1014A00042EA002242F0100218BF0121DA61DDE7B2
:1014B00045EA0262034B42F40032B4E742F20132E1
:1014C000E1E700BF00B00240012301000900020073
:1014D0000A000200365A0208505A020899590208B6
:1014E00001230200024B1B68586803685B691847B8
:1014F000143F012070B5044625460A4B0C300026E7
:1015000060602672667245F8203B602229460AF028
:1015100089FA04F55A63EE6024359D42FBD12046DA
:1015200070BD00BF985A0208034B1A68D207FCD45A
:1015300023229A60704700BF00B00240704700004D
:1015400030B50F4C2568ED07FCD423250904A560B0
:1015500041F001010225FF2B65636164E0630AD05D
:101560000849656241EA0363E361074B22626061F7
:10157000E060236030BDE561039BA363034BF8E7A4
:1015800000B0024009000100010002000100030058
:1015900030B50E4C2568ED07FCD423251204A56058
:1015A00042F001020225FF2B65636264E063E160A3
:1015B00008D01B0643F00213E361054B65626061CE
:1015C000236030BD034BE3610123F9E700B0024023
:1015D00001000200020002FF30B50B4C2568ED0748
:1015E000FCD4232512041B06A56043F40033022516
:1015F00042F0010265636264E063E160E361034B12
:1016000065626061236030BD00B0024001000200ED
:10161000012070474020704700EB81100830704770
:1016200000EB8110083070470120704741F20460E0
:10163000704741F2046303FB01000830704741F238
:10164000046303FB0100083070470120704710203D
:10165000704700EB01100830704700EB01100830B4
:101660007047084601F0BABF10B5034B036004464B
:1016700009F043F8204610BD505B020810B504463F
:10168000FFF7F2FF2046482121F0FAFF204610BD67
:1016900010B5034B0360044609F02FF8204610BD37
:1016A0001C5B020810B50446FFF7F2FF204641F22A
:1016B0000C6121F0E5FF204610BD000010B5034B82
:1016C0000360044609F019F8204610BDE85A0208E4
:1016D00010B50446FFF7F2FF2046182121F0D0FF95
:1016E000204610BD10B5094B0360044600F5B1500B
:1016F0001830FFF7B9FF04F12C00FFF7C9FF04F120
:101700001400FFF7DBFF204610BD00BF845B02081A
:1017100008B50248FFF7E6FF08BD00BF941500209A
:1017200010B50446FFF7DEFF20464FF4BF5121F00D
:10173000A7FF204610BD00002DE9F34101F00AFB90
:10174000054601F00BFB00240146234628462246AD
:10175000009412F039FF274B274A1A60204603F005
:10176000F5F8264D264B274A27489A6012F094FE3A
:101770002B68BFF35B8FDB0736D4284621F082FF4E
:1017800090B3224C224F234B236007F14C0604F107
:10179000140004F12C086060C4F80880E76026613A
:1017A00008F0ACFF1C4B6361404608F0A7FF1B4BE1
:1017B000E362384608F0A2FF04F58053184AC3F8E4
:1017C000382604F5B45003F0A3F9224604F5B451C9
:1017D000304603F039F9304601F000FF114822F09D
:1017E000B3FE284621F05AFF0F4802B0BDE8F04191
:1017F000FFF7E6BB783F012040070020901500204E
:1018000060070020440700200800002094150020F5
:10181000CC2B0020845B0208E85A02081C5B0208FB
:10182000505B020811170008C40600207047000032
:101830000148FFF7D3BB00BFC406002070B5244E9B
:10184000244C254D254B23603046FFF753FE284698
:1018500017F0C0FF224810F0F9FB224B2248DC6051
:1018600000224FF48071C3E9121220491A86C3E99D
:101870001A121F4999671F4983F858200B60F021FD
:1018800001801D485A6601801C4883F870204FF47F
:10189000A071C3E90422C3E90622C3E90822C3E90F
:1018A0000A22C3E90E22C3E91022C3E91422C3E9C4
:1018B00017225A67C3E90165018011480180114967
:1018C0000A70012283F834200F4A1A6070BD00BFED
:1018D000EC0700208C15002060070020C855020886
:1018E00044070020C4060020083F01200100000139
:1018F00000000101143F01200E3F01200A3F01209A
:10190000103F01200C3F0120545702080148FFF707
:101910007DBC00BFEC07002000207047818070472D
:10192000C18070470181704741817047704770479F
:1019300070477047704710B4C4880368121B8488CE
:101940005B6D091B12B25DF8044B09B218474FF6E4
:10195000FF7383814FF0FF3303621368C36110602C
:101960007047002070478B88838001207047704744
:1019700080F82610704790F82600704710B50022B6
:10198000B1F90840B1F90A10028042808480C18018
:1019900010BD0022028042808280C28070470177A1
:1019A000704780ED080A704780F82410704780F86F
:1019B0002510704701207047983070478C30704771
:1019C0008430704770470000034B902283F85A23FD
:1019D00083F85823704700BF00E100E0094A0A4934
:1019E000D3680A48C3F30A03013B9BB20B80116919
:1019F000C1F30A01013901801364536B43F0010301
:101A00005363704700680140762D0020742D00203C
:101A1000014BD3F8AC00704700680140024B012233
:101A2000C3F8AC105A6270470068014070477047B5
:101A300010B52C21044621F023FE204610BD10B520
:101A4000BC21044621F01CFE204610BD70B50446A2
:101A500009F051F923685D6E0FF05AF901462046EE
:101A6000A8472368054AD3F888502046AC4600238F
:101A7000BDE87040A2F51631604700BF00B004D049
:101A800009F020B909F02AB909F0E6B809F047BA17
:101A900090F8252012B103685B691847704790F8E9
:101AA00025201AB190F8242002B118607047000078
:101AB000034B4FF080629A604FF080729A607047DB
:101AC00000E100E0084B4FF08062C3F88820BFF3CC
:101AD0004F8FBFF36F8F4FF08072C3F88820BFF332
:101AE0004F8FBFF36F8F704700E100E070B50023A8
:101AF000124E8380124B0360336893F858200546DA
:101B00000AB1D86C00B998680368DB6A98473368F3
:101B1000B0FA80F4D86C640930B10368DB6A984786
:101B2000002808BF44F001042CB9064B064A0748B8
:101B30002C2122F0EBFC284670BD00BF143F012091
:101B4000945C0208905B0208EE5B0208275C0208C6
:101B500070B5244E3568BFF35B8F15F001053FD19A
:101B6000304621F08FFD00283AD01F4C1F4B2561D5
:101B700004F13400C4E90035C4E90255E584A562E6
:101B8000A58510F0C2FC04F158000BF047FB184B80
:101B9000A3652046174B40F8843BFFF7A7FF164B81
:101BA000C4F884302433C4F88C306423C4E9283565
:101BB0000023C4F8AC30C4F8B030C4F8B430C4F872
:101BC000B8300E480E4BC4F89050C4F89C50C4F87E
:101BD000A850C4F8983022F0B7FC304621F05EFDE2
:101BE000014870BD782D00207C2D0020BC780208B3
:101BF000B45C02082C5D020870780208C519000860
:101C00005078020810B5144C236823B3134B144AC0
:101C10001B6C11888B4213D1124B198804F056FFAC
:101C2000226892F86A30013382F86A30FFF7C2FA0C
:101C3000206809F09FFDBDE810400020FFF706B9BD
:101C400004F044FF206803681B6A9847BDE8104011
:101C50000020FFF725B910BD143F012000680140A6
:101C6000762D0020742D002007B5064BADF8060038
:101C70001B68054801220DF1060105F0C7FC03B001
:101C80005DF804FB28030020E02E002038B50D4C41
:101C9000B4FBF2F204681D465308013AE262C260E6
:101CA00039B9636306F0CCFA2846BDE8384006F03F
:101CB0008CBC042901D1A363F4E708290CBFE363BA
:101CC0002364EFE740420F002DE9F047DFF8B8A0AA
:101CD000DFF8B89004460D4600274FF00008264B69
:101CE0001B687BB3DAF80400244B254E18600028EB
:101CF0002ADD244B1B6893FBF0F333603068FEF75A
:101D000043FD19A3D3E90023FEF7C2FAFEF7CEFD87
:101D10003AF8082BC3B229462046FFF7B7FF3068D0
:101D2000FEF732FD12A3D3E90023FEF7B1FAFEF766
:101D3000BDFD06F04AFC02372946204606F0C0FAEF
:101D4000C62FCCD1BDE8F087D8D00E4B40421B68DF
:101D500093FBF0F0FEF718FD42464B46FEF798FA6B
:101D6000FEF77CFD3060C9E7CDCCCCCCCCCCEC3FD1
:101D70009A9999999999B93F3C2E0020442E0020B8
:101D8000402E00200C000020100000200000F83F32
:101D900008B5044C20460821FFF796FF642006F0A2
:101DA00014FCF7E7982E002010B5074C04212046BC
:101DB00032234FF4F772FFF769FF20460421BDE894
:101DC000104006F07DBA00BF982E002010B5074CD9
:101DD00004212046322340F29322FFF757FF20468A
:101DE0000421BDE8104006F06BBA00BF982E002019
:101DF00010B5074C04212046322340F20B22FFF796
:101E000045FF20460421BDE8104006F059BA00BF46
:101E1000982E0020054A536B43F040035363044A55
:101E2000136843F004031360704700BF003802409A
:101E300000080650024B5A68D207FCD598687047D4
:101E4000000806502DE9F3414F4D504E0027FFF793
:101E5000F1FF4F4B08211860284604F01FF8044694
:101E600090B9DFF83881D8F8000006F0FEFC0128B0
:101E70000AD84C238DF80730D8F800000A232246F0
:101E80000DF1070106F090FC2021304604F006F821
:101E90000446A8B9DFF80481D8F8000006F0E5FC94
:101EA00001280DD84F238DF80730D8F800000A23F9
:101EB00022460DF1070106F077FC962006F085FB1F
:101EC0001021304603F0EAFF0446A8B9DFF8CC80C1
:101ED000D8F8000006F0C9FC01280DD844238DF87D
:101EE0000730D8F800000A2322460DF1070106F05A
:101EF0005BFCFA2006F069FB0421284603F0CEFFC4
:101F0000044690B9DFF89480D8F8000006F0ADFCE4
:101F100001280AD852238DF80730D8F800000A2388
:101F200022460DF1070106F03FFC1A4C206806F02E
:101F30009CFC8DF80770C0B218B9642006F045FB10
:101F400085E74FF0FF33206800220DF1070106F00E
:101F50005CFC9DF80730322B08D10F480421FFF7B5
:101F600023FF206806F081FCC0B2E5E7332B04D1E3
:101F700009480421FFF72AFFF3E7342BF1D1064883
:101F80000421FFF735FFECE700180240000C024087
:101F9000382E0020502E0020982E0020542E002095
:101FA00030B595B0102200210AA822F0B6FC142208
:101FB000002103A822F0B1FC00241E4B01941A6CEE
:101FC00042F080521A641B6C03F080530193019B12
:101FD000194B02941A6842F440421A601B6803F4D9
:101FE000404302930122029B4FF48033CDE9082342
:101FF00002254FF480030821CDE90E534FF4B4734A
:10200000CDE9101308A804231393129504F0B6FD2C
:1020100004F07AFD0F23CDE903354FF4A0504FF4BF
:102020008053CDE90603052103A8059404F082FF3F
:1020300015B030BD00380240007000402DE98048E6
:10204000A5B003F0A9FCFFF7E5FEFFF7A9FF1422F6
:10205000002117A8002422F060FCC34B01941A6BE6
:10206000C24842F010021A631A6B02F01002019289
:10207000019A02941A6B42F020021A631A6B02F062
:1020800020020292029A03941A6B42F080021A63B1
:102090001A6B02F080020392039A04941A6B42F0C6
:1020A00004021A631A6B02F004020492049A059463
:1020B0001A6B42F001021A631A6B02F001020592D8
:1020C000059A06941A6B42F002021A631A6B02F028
:1020D00002020692069A07941A6B42F040021A63B3
:1020E0001A6B02F040020792079A08941A6B42F0AA
:1020F00008021A631B6B03F00803089322463C2175
:10210000089B03F0D1FE9A482246042103F0CCFE3E
:10211000224698484FF4405103F0C6FE01264FF086
:10212000030B3C239148CDF868B017A902274FF064
:102130000408CDE91736199403F0CCFD8C481994A6
:1021400017A9CDE917861A9703F0C4FD4FF4405341
:10215000884817A9CDE917364FF00C09CDE9194782
:1021600003F0B8FD8448199417A93025CDE91794D8
:1021700003F0B0FD7F48199417A9CDE9175403F077
:10218000A9FD7D48199617A9CDE9179403F0A2FD82
:1021900017A978481996CDE9175403F09BFD7748A5
:1021A000774B784D036003F089FC774A774B2C62BC
:1021B000C5E9002328464FF48043C5E90434C5E946
:1021C0000244C5E9064404F07DF81021284604F0D5
:1021D000C1FA2146284604F0DCFA6D486D49846254
:1021E0004FF48273C0E900134FF400751823C0E95F
:1021F00006530A23684DC362C0E90244C0E904449F
:10220000C0E9084405F0A6F9644B17974FF0100A8F
:10221000C5E900364023C5E904A34FF4C073C5E9FE
:1022200006344FF400630722C5E9083417A94FF4B8
:1022300000532846AB624FF00809CDE91A2BC5E9D7
:102240000248CDE91828CDE91C7705F067F84FF66C
:10225000FF7210A92846CDE911960994109613949F
:1022600005F07CF8304603F0C3FB4FF6FF7210A96F
:102270002846CDE91079CDE9126405F06FF84FF6E4
:10228000FF7210A92846CDE910B9CDE9128405F0F6
:1022900065F84FF40C720992099A139210A94FF63F
:1022A000FF722846CDE91089129605F057F840F2E2
:1022B0006A51284605F070F82146342217A822F00A
:1022C0002CFB374D374A2C61C5E900240922C5E9AA
:1022D00005261D2240F20D1CC5E9072B40F24312D2
:1022E000C5E909C240F2171E40F247122846C5E967
:1022F0000BE2C5E90244AC8685F8364004F0EEFAFC
:10230000FF20F0214FF4A072CDE91C044FF4806B44
:102310000520CDE91814CDE91A27CDE91EB0CDE985
:102320002041229217A92246284617941E4DADF847
:102330008C408DF88E4004F09CFB1C4A2A60126889
:1023400090472A681A4DD26890471A4A2846C5E92C
:102350000024C5E90274C5E90A47C5E90C4403F045
:10236000BDFB3146284627E00038024000100240FD
:1023700000080240000C02400018024074300020A7
:1023800000300240E02F0020005C0040A0860100E9
:10239000E02E002000500140642E0020400100A0EB
:1023A000382F002000680140482E00203003002014
:1023B0003430002000B0024003F048FC5246214671
:1023C0000CA822F0AAFA1C22214610A8CDE90A4442
:1023D00022F0A3FA2146202217A83B4D22F09DFAB5
:1023E0003A4BAC604722C5E90032284640F2E7325A
:1023F000C5E90324C5E9054405F026FD4FF48052E4
:102400000CA928460C9205F00FFE284605F048FD61
:102410000AA92846CDE90A4405F054FF602210922B
:102420004FF4FA72119210A922462846CDE91344BE
:10243000CDE91544129405F095FD424610A92846B1
:1024400005F090FD4A4610A9284605F08BFD4FF493
:10245000005317A928461C93CDE91744CDE9194428
:102460001B941E9405F06CFF284600F0FFFAFEF75F
:102470002FFCFEF72CFC06F035F8154A394650467D
:1024800006F057F9134B144A18603946504606F0C7
:1024900050F9124B124A18602146124806F04EF8C5
:1024A000114B124A18602146114806F047F8114BAB
:1024B000114A18602146114806F040F8104B186088
:1024C00006F022F8FEE700BF982E00200000014031
:1024D000B85D0208542E0020A05D0208502E002096
:1024E000185E0208451E0008602E0020F45D0208F8
:1024F000DF0C00085C2E0020D05D0208911D000852
:10250000582E0020704770477FB5094B8DF8172073
:102510001B6802930DF117020123009201930A46F2
:102520000146044803F076FF07B05DF804FB00BFE6
:102530002C030020E02F00207FB500238DF81730FA
:10254000084B1B6802930A4601230DF11701009105
:1025500001930146044803F0EDFF9DF8170007B012
:102560005DF804FB2C030020E02F00201FB5084C71
:1025700024680092CDE901340A460123014605484A
:1025800003F0D8FF003818BF012004B010BD00BF11
:102590002C030020E02F002003F02ABA10B5064CCF
:1025A00000222046042103F07FFC20460122BDE8E2
:1025B0001040042103F078BC0008024038B50B4DF0
:1025C000044601220A484FF4005103F06DFC00223A
:1025D0000421284603F068FC2046FFF745FB284607
:1025E0000122BDE83840042103F05EBC000802402F
:1025F000000C024038B50B4D044600220A484FF447
:10260000005103F051FC00220421284603F04CFC49
:102610002046FFF729FB28460122BDE83840042167
:1026200003F042BC00080240000C0240F7B5144E13
:10263000144F05460C4630460022042103F034FCBA
:1026400000224FF40051384603F02EFC2846FFF7D5
:102650000BFB0D4B0D481B68224601A905F082F9C2
:10266000384601224FF40051019C03F01DFC304616
:102670000122042103F018FC204603B0F0BD00BF86
:1026800000080240000C024028030020E02E002039
:1026900003F0AEB90268034B9A4201D103F096B938
:1026A000704700BF001000407047000082B00E4B22
:1026B00000220092596C41F480415964596C01F434
:1026C0008041009100990192196C41F08051196488
:1026D0001B6C03F080530193019B0F216FF00100ED
:1026E00002B003F0ABB900BF003802400268094BEA
:1026F0009A4282B00BD100230193074B1A6B42F42C
:1027000080521A631B6B03F480530193019B02B048
:10271000704700BF003002400038024007B50F4B41
:1027200002689A4216D10022A3F5F0430192196B78
:1027300041F4000119631B6B03F4000301930521AD
:102740005A20019B03F07AF95A2003B05DF804EB9C
:1027500003F0A6B903B05DF804FB00BF00B002406F
:102760002DE9F043044689B01422002103A822F089
:10277000D4F82268244B9A4243D1244C24480025A3
:102780000095236B43F004032363236B03F00403DE
:102790000093009B0195236B43F001032363236B9C
:1027A00003F001030193019B4FF012094FF40073F2
:1027B0004FF001080327042603A9CDE90339CDE929
:1027C0000587079603F086FA4FF480731148079641
:1027D00003A9CDE90339CDE9058703F07BFA02951A
:1027E000236C43F400032364236C03F4000302937B
:1027F000029B236A43F400032362236A23F4000349
:10280000236209B0BDE8F083005C0040003802405C
:102810000008024000000240F0B599B004461422BE
:10282000002107A822F079F830220DEB02000021E8
:1028300022F073F822685E4B9A4240F0B78008237A
:102840000C93C0231093042312930CA84FF400336D
:10285000159304F037FC08B1FFF726FF554B564897
:10286000002400945A6C42F080625A645A6C02F060
:1028700080620092009A01941A6B42F020021A635F
:102880001A6B02F020020192019A02941A6B42F034
:1028900001021A631A6B02F001020292029A039477
:1028A0001A6B42F002021A631A6B02F002020392E0
:1028B000039A04941A6B42F040021A631A6B02F0F6
:1028C00040020492049A05941A6B42F004021A63BF
:1028D0001A6B02F004020592059A06941A6B42F0F4
:1028E00008021A631B6B03F00803069302250E26E9
:1028F000069B0B964FF4806307A9CDE90735CDE918
:10290000094503F0E7F941F658032C480B9607A94F
:10291000CDE907350927CDE9094503F0DBF90323A4
:1029200027480B9707A9CDE90735CDE9094503F0FD
:10293000D1F94FF4706322480B9607A9CDE907350A
:10294000CDE9094503F0C6F94FF40C631D480B9619
:1029500007A9CDE90735CDE9094503F0BBF9C02347
:1029600019480B9607A9CDE90735CDE9094503F0CC
:10297000B1F9082315480B9607A9CDE90735CDE92C
:10298000094503F0A7F94FF4A0530E480B9707A988
:10299000CDE90735CDE9094503F09CF958202246D9
:1029A000052103F04BF8582003F07AF819B0F0BD78
:1029B000006801400038024000140240000002405C
:1029C000000402400018024000080240000C0240CF
:1029D00010B5044688B01422002103A821F09DFF01
:1029E0002268144B9A4223D103F5684300210191D8
:1029F0005A6C114842F480125A645A6C02F48012E4
:102A00000192019A02911A6B42F020021A631B6B29
:102A100003F020030293029B4FF460720223032110
:102A2000CDE903230523CDE9061303A903F052F9E9
:102A300008B010BD00500140001402400268094B6C
:102A40009A4282B00BD100230193074B5A6C42F09B
:102A500001025A645B6C03F001030193019B02B015
:102A6000704700BF000001400038024010B5044626
:102A700086B01422002101A821F04FFF22680E4BDE
:102A80009A4216D1002300930C4B0D481A6B42F06A
:102A900001021A631B6B03F001030093009B4FF4C8
:102AA000C0620223CDE9012301A90123059303F0AC
:102AB00011F906B010BD00BF00000140003802400F
:102AC000000002402DE9F04186B0002303932B4B18
:102AD0001C68002C4FD14FF00108C3F80080284B30
:102AE00000949A6B274842EA08029A639B6B03EAB8
:102AF00008030093022703260C25009B01A94FF62B
:102B00003F03CDE90137CDE9046503F0E3F81E4842
:102B1000059501A9CDE90187CDE9034603F0DAF86F
:102B200048F233131948059501A9CDE90137CDE9DC
:102B3000034603F0CFF84FF683731548059501A9B6
:102B4000CDE90137CDE9034603F0C4F84CF2037335
:102B50001048059501A9CDE90137CDE9034603F0F9
:102B6000B9F860230C48059501A9CDE90137CDE9F5
:102B7000034603F0AFF806B0BDE8F0817C300020DA
:102B800000380240001402400008024000180240D1
:102B900000100240000C02400004024070B588B0F2
:102BA00000230293204B1A6C42F010021A641B6C33
:102BB00003F010030293054601A903A8029B04F049
:102BC00063FA069B4BBB04F04FFA184E184B336068
:102BD00040F2E733F360174BB0FBF3F3013B736054
:102BE000304600233361B360B36105F02DF904462C
:102BF00080B9304604F0E8FF044658B9362002F0A8
:102C00004FFF0F2D0DD822462946362002F016FF21
:102C1000094B1D60204608B070BD04F025FA400045
:102C2000D3E70124F6E700BF0038024080300020DF
:102C30000010004040420F00980300207047FEE75C
:102C4000FEE7FEE7FEE77047014804F0FCBF00BF67
:102C500080300020014803F0AFBE00BF382F0020B5
:102C6000014802F069BF00BF3430002001207047E6
:102C700008B521F0F5FE162303604FF0FF3008BDC4
:102C800008B521F0EDFE16230360FEE770B50D4692
:102C900014460E46731B9C4201DC204670BDAFF308
:102CA000008006F8010BF5E770B50D4614460E4698
:102CB000731B9C4201DC204670BD16F8010BAFF37C
:102CC0000080F5E74FF0FF3070474FF400534B6042
:102CD0000020704701207047002070470A4A1168A1
:102CE00008B5034609B909491160106869460344EB
:102CF0008B4206D921F0B4FE0C2303604FF0FF3065
:102D000008BD1360FCE700BFC8300020584C01200C
:102D1000704710B50421044620F0B2FC204610BDD7
:102D200008B5032913D8DFE801F002060A0E01F006
:102D300059FE006808BD01F055FE4068FAE701F051
:102D400051FE8068F6E701F04DFEC068F2E7002012
:102D5000F0E7000000487047505E02080520704709
:102D600013B5002451B1036801948DF8034001AA02
:102D70009C680DF10303A04702B010BD0846FBE7B5
:102D8000C0897047008A7047C08870478088704744
:102D9000807A00F07F007047807AC0097047002079
:102DA000704700009FED010A704700BF000000005F
:102DB000704710B50821044620F062FC204610BD83
:102DC0007047704700F598730868496803C37047F7
:102DD000704770474160704710B50022B1F9084054
:102DE000B1F90A10028042808480C18010BD704712
:102DF00070470000064BC0F84C310023C0F850313A
:102E000000F5A273C0F84801C0F84031704700BF18
:102E1000A530000801230372704770477047704760
:102E20007047704701464068036810315B6E184771
:102E300070B5054640680368DB69984704463CB9AD
:102E40006868036805F110011B6EBDE87040184703
:102E5000A188AB89C91A236820461B6B09B2984721
:102E6000A469ECE7704710B4C26841685410034687
:102E700001EB6200D20748BF0A599B685DF8044B1A
:102E800048BFD35818470346406830B19A681AB90A
:102E9000D86800F0010070470120704710B50C2180
:102EA000044620F0EDFB204610BD10B5102104466D
:102EB00020F0E6FB204610BD10B54FF4AE7104467D
:102EC00020F0DEFB204610BD10B53821044620F06E
:102ED000D7FB204610BD10B52821044620F0D0FBBA
:102EE000204610BD10B54021044620F0C9FB204605
:102EF00010BD10B50DF00CFF0368BDE81040DB6B92
:102F00001847000037B50546807A6B7A0130C0B2A9
:102F10009842A87205D901232B720023AB7203B02B
:102F200030BDB5F90C20B5F90E4000210FF078FF47
:102F3000C30706D500284FF6FF73C8BF0123184406
:102F400000B2AB7AE881041B012BA4B206D1174B67
:102F50001B781BB10DF0DCFE0DF0E0FE144A0023DF
:102F60001288ADF80230EB891A445B42ADF80430A8
:102F7000104BADF800201B88ADF806300DF0C8FEF0
:102F8000036802AA12E906001B6C98476868036888
:102F9000DB6998470546002DC1D0A9882B682144DC
:102FA00028461B6B09B29847AD69F4E7123F012030
:102FB000083F01200A3F0120054B1B7801462BB139
:102FC000406818B103680C315B6E1847704700BF4A
:102FD000133F0120037A70B50546BBB9406803680A
:102FE000DB69984704463CB96868036805F10C0141
:102FF0001B6EBDE870401847A1886B8FC91A236803
:1030000020461B6B09B29847A469ECE770BD10B568
:103010000446D0F8400158B10368DB68984738B1DE
:10302000D4F8400103689B6898470023C4F84031F6
:1030300010BD70B5044690F8390094F8383001306E
:10304000C0B2984284F8390005D9012323720023C5
:1030500084F8393070BDB4F93A2000210FF0E0FE59
:10306000C30706D500284FF6FF73C8BF01231844D5
:1030700000B2238AC01AA08760680368DB6998479A
:1030800005462DB960680368BDE870405B69184764
:10309000A988A38F19442B6828461B6B09B298474F
:1030A000AD69EEE72DE9F14FD0E9556A0746B06802
:1030B00003681B6A9847B0F5C67F05D2444B454A62
:1030C000A321454821F022FA706803681B6A9847DB
:1030D0000F2803D8414B3F4AA421F2E7F068036868
:1030E0001B6A98470B2803D83D4B3A4AA521E8E7CD
:1030F0000DF00EFEDFF8F09004300DF06FFED9F801
:10310000000010B10368DB689847D9F8000010B1DF
:1031100003681B689847DFF8D480D8F8000010B126
:1031200003685B699847D7F83C0110B103685B6896
:103130009847D8F8000010B103681B689847D7F883
:103140003C0110B103689B689847F0680368002150
:103150005B6A98474FF0000B224BC0F804B004465E
:1031600080F808B00360B068036859465B6A984706
:10317000054601F0B5FC7068036859465B6A9847DC
:103180002946064601F078FC331DC7F83C61C9F8B2
:103190000040C8F80050CAF800302B68C6F808A0F4
:1031A0002846DB68EE639847336830461B689847CB
:1031B000214628460FF02EFE236820461B699847BB
:1031C00023685B69204601B0BDE8F04F184700BF97
:1031D000C45E0208525F02081E60020865600208B1
:1031E000086102084C6402085C3F0120583F01203E
:1031F0002DE9F0411D460368BDF918701B6B0446AC
:10320000164698472368314620465B6B98472368EB
:10321000294620469B6B9847236839462046DB6B3E
:10322000BDE8F041184700002DE9F74FD0E9556A95
:103230000746B06803681B6A9847B0F5C67F05D299
:10324000544B554AA321554821F060F97068036832
:103250001B6A98470F2803D8514B4F4AA421F2E725
:10326000F06803681B6A98473F2803D84D4B4A4AC9
:10327000A521E8E70DF04CFDDFF8389104300DF0A2
:10328000ADFDD9F8000010B10368DB689847D9F8A4
:10329000000010B103681B689847DFF81C81D8F85C
:1032A000000010B103685B699847D7F83C0110B182
:1032B00003685B689847D8F8000010B103681B6882
:1032C0009847D7F83C0110B103689B689847F068AD
:1032D000036800215B6A984705460022324B426032
:1032E000027245F80C3B044628460AF03FF81423C6
:1032F00023872E4B1B780022A287002B35D1012378
:103300002372B068036800215B6A9847054601F0A4
:10331000E7FB7068036800215B6A98472946064608
:1033200001F0AAFB331DC7F83C61C9F80040C8F89A
:103330000050CAF800302B68C6F808A02846DB68A1
:10334000EE639847336830461B6898472146284605
:103350000FF060FD236820461B69984723685B696E
:10336000204603B0BDE8F04F1847114BDFF84CB0D2
:10337000B3F900300093BBF9003011462846FFF73F
:1033800037FF284609F06DFFBBF800305B426387CA
:10339000B7E700BFC45E0208AB6102081E60020806
:1033A000656002080861020894640208133F012066
:1033B0000A3F01205C3F0120583F0120083F0120C7
:1033C0002DE9F74FD0E955BA0746DBF80800036846
:1033D0001B6A984741F20363984205D8544B554AFB
:1033E000A321554821F092F8DBF8040003681B6A1A
:1033F00098470F2803D8514B4E4AA421F1E7DBF838
:103400000C0003681B6A9847372803D84C4B494A7D
:10341000A521E6E70DF07CFCDFF8389104300DF0D3
:10342000DDFCD9F8000010B10368DB689847D9F8D3
:10343000000010B103681B689847DFF81C81D8F8BA
:10344000000010B103685B699847D7F83C0110B1E0
:1034500003685B689847D8F8000010B103681B68E0
:103460009847D7F83C0110B103689B689847DBF890
:103470000C00036800215B6A9847324B03604FF4ED
:10348000A05303814FF4807343632F4B03612F4B91
:103490001B885A4282812E4A0025B2F900204560DD
:1034A00004468572C581C0E90555C0E90755C0E9E4
:1034B0000955C0E90B55294600921BB22A46103027
:1034C000FFF796FEDBF80800036829465B6A984719
:1034D000064601F0E5FEDBF80400036829465B6A56
:1034E00098473146054601F025FB2B1DC7F83C5196
:1034F000C9F80040C8F80060CAF800303368C5F861
:1035000008A03046DB68F56398472B6828461B689F
:103510009847214630460FF07DFC236820461B6902
:10352000984723685B69204603B0BDE8F04F184711
:10353000C45E02088A6202081E6002086560020812
:10354000086102087064020878630208083F0120DD
:103550000A3F01205C3F0120583F0120044B1B68BB
:1035600093F858200AB1D86C00B99868704700BF2A
:10357000143F0120F8B5174604460E460DF0FCFC3A
:10358000124B1C60124B2360124B0025C4E95135CD
:10359000114BC4E953551868036801219B68C4E9BD
:1035A0004F55C4E955769847284601F0CFF9FFF703
:1035B000D5FF17F062FFFFF7D1FF17F0D9FFFFF734
:1035C000CDFF17F0E1FF2046F8BD00BF683F0120A6
:1035D000F8630208E0630208143F0120064BC0F8BC
:1035E0004C310023C0F8503100F5A273C0F84801F7
:1035F000C0F84031704700BFA5300008064BC0F846
:103600004C310023C0F8503100F5A273C0F84801D6
:10361000C0F84031704700BF29320008064BC0F89F
:103620004C310023C0F8503100F5A273C0F84801B6
:10363000C0F84031704700BFC1330008406A70478E
:10364000806A704770478B88C0690A68DB0A50F847
:1036500023001044704710B50446BAB1107B68B11E
:10366000537BD27A1B0203F4E0631A43236A03EB11
:1036700082031A888A4202D193F9020010BD05D84C
:10368000013880B204330028F3D1F7E70020F5E7D2
:1036900010B52C2104461FF0F3FF204610BD00009A
:1036A00030B58BB00446BDF860500895BDF85C504D
:1036B00007959DF8505006959DF84C5005959DF83E
:1036C000485004959DF8445003959DF8405002954C
:1036D0009DF83C500195BDF8385000950EF0D2FF92
:1036E000064B2360159BE361169B2362199B636263
:1036F0001A9BA36220460BB030BD00BFB86402081D
:103700007047704770477047704730B50368018154
:1037100085B06D460146D3F8843004462846984764
:1037200095E807003C3484E8070005B030BD30B5AB
:103730000368418185B06D460146D3F88430044664
:103740002846984795E807003C3484E8070005B010
:1037500030BD0022028042808280C280704780F8A3
:103760003610704770B5036804461B6B15469847C2
:103770002368294620465B6EBDE87040184700204C
:103780007047806C70477047704770470368DB6A0A
:1037900018477047704730B4C268446855100346F4
:1037A00004EB6200D20748BF62599B6830BC48BF37
:1037B000D35818470346406830B19A681AB9D86898
:1037C00000F0010070470120704710B54C210446FD
:1037D0001FF056FF204610BD10B5102104461FF003
:1037E0004FFF204610BD10B54FF4C67104461FF0C0
:1037F00047FF204610BD08B5FEF74AF908BD000096
:10380000036870B55E6B124B1B6804468DB22BB912
:10381000104B114A6C21114820F078FE1049828D1E
:103820000988914203D80F4B0B4A6D21F3E713F837
:1038300012200D4B1B6853F8220003681B6B98473E
:10384000291A3346204609B2BDE87040184700BF28
:103850006C3F0120186502085A6502089565020848
:10386000703F0120DC650208743F012098308842D7
:1038700008B505D10DF04CFABDE80840FFF7CEBE03
:1038800008BD00224FF0FF31C0E90021826070477F
:1038900070B5036804461B6B154698472368294694
:1038A00020465B6BBDE8704018470000F8B5194B27
:1038B000018F1B888B4206462AD9174B1B682BB9F0
:1038C000164B174A17486C2120F020FE13F81120E0
:1038D000154B1B6853F82250144B186801F072F80E
:1038E0002B6807469B6B284698472B6804469B6CC1
:1038F0003946284698472B6814FB00F45B6A394622
:1039000028469847A4B223181BB2A6F84630F8BD43
:103910000023FAE7703F01206C3F01201865020880
:103920005A65020895650208743F0120783F01201E
:103930004FF4807181840D4901600D4981624FF619
:10394000FF7181854FF47F01002241634FF0FF3109
:10395000C0E90122C0E90322C0E90522C0E907222B
:10396000C0E9101202630287C2637047647A0208DA
:10397000BC5E02082DE9F04F04468BB0A34600253B
:103980000FF09CF8774BE5634BF8403B764B256690
:10399000C4E910354FF4807304F16C0AA4F8643064
:1039A000FF2304F1980908A984F8663050464FF6C1
:1039B000FF73C4E91255C4E91455C4E91655A56648
:1039C00004F1E008ADF8203009F03AFD48460AF06D
:1039D000D7FD04F594764046FFF7AAFF3046FFF77F
:1039E000A7FF624BC4F82831614BC4F87051C4E999
:1039F0005F34604BC4E961354FF4A0732A465846E2
:103A000000932946F023FFF7F3FB271D4FF07F4378
:103A1000A3665946384606F083FE504608A9ADF81D
:103A200020500AF075FC4FF4A0732A4650460093CC
:103A30002946F023FFF7DCFB5046294609F0BBFC82
:103A40005146384606F06CFE4846BB222946FFF731
:103A50001FFF4FF0010A022308AA07A94846ADF844
:103A60002030ADF81CA00AF08CFA0723A4F8D0305F
:103A70004846FFF71BFF4FF0FF3B04F5BE72494677
:103A8000C4F8C0203846C4E935BB06F049FE0DF144
:103A90000809412240462F21FFF7FAFE41464846D9
:103AA000C4F810B1A4F8145109F074FF99E80700A4
:103AB00004F58E7C8CE807002F4B089306224046C5
:103AC00008A9ADF824200AF0FFF94146384606F06F
:103AD00027FE8F2245213046FFF7DAFED4F8283141
:103AE000C4F858B1D3F88430A4F85C513146484644
:103AF000984799E8070004F5B27383E807001F4B65
:103B00001B6804F5BA782BB91D4B1E4A60211E486C
:103B100020F0FCFC1D4B1B881BB91D4B194A612171
:103B2000F5E71C4B2946186800F04CFF1A4A03467B
:103B30000421404610F0A2FC3046C4F870810AF01F
:103B4000A3F90D4B089308A93046ADF824A00AF05C
:103B5000BBF93846314606F0E3FD20460BB0BDE820
:103B6000F08F00BF18670208F47A02087066020836
:103B7000006702086D380008BC5E02086C3F012037
:103B8000186502081A66020895650208703F012050
:103B9000DC650208783F012065660208806A70478C
:103BA000704770477047806C7047C06C70477047B3
:103BB0007047704770477047704770470368DB6A0B
:103BC00018477047704790F82C304BB100F17402E1
:103BD000126842663BB100F17C031B688366704744
:103BE00000F17002F4E700F17803F6E708B590F809
:103BF0002C303BB100F1CC031B68C0F8B030FFF7AC
:103C0000E2FF08BD00F1C803F6E790F82C304BB195
:103C100000F16C021268C2653BB100F174031B68CD
:103C20000366704700F16802F4E700F17003F6E7FD
:103C300008B590F82C303BB100F1C4031B68C0F804
:103C4000A830FFF7E2FF08BD00F1C003F6E77047B8
:103C5000704770477047704730B4C2684468551069
:103C6000034604EB6200D20748BF62599B6830BC30
:103C700048BFD35818470346406830B19A681AB90C
:103C8000D86800F0010070470120704790F82D308F
:103C900080F8AE3080F85A30704790F82D3080F8B8
:103CA0005A30704790F82D3080F86030704790F8A7
:103CB0002D3080F8B63080F86230704790F82D30A3
:103CC00080F8623070470146383091F82C3013B1DB
:103CD00036310AF01DBB3431FBE710B53421044600
:103CE0001FF0CEFC204610BD10B5642104461FF025
:103CF000C7FC204610BD10B5502104461FF0C0FC83
:103D0000204610BD10B5802104461FF0B9FC2046A6
:103D100010BD10B5D02104461FF0B2FC204610BDE6
:103D200010B5782104461FF0ABFC204610BD10B53D
:103D3000C82104461FF0A4FC204610BD10B5102178
:103D400004461FF09DFC204610BD10B54FF4B46131
:103D500004461FF095FC204610BD38B500F51973D8
:103D6000994204460D4602D103681B6B984704F53F
:103D70004D739D4203D1236820465B6B984704F145
:103D8000C4039D4203D1236820469B6B984704F5EA
:103D9000CA739D4203D123682046DB6B984704F227
:103DA00004439D4203D10CF0B3FFFFF727FC04F559
:103DB0008D64A54205D10CF0ABFFBDE83840FFF79C
:103DC0001DBC38BD10B50446006B50B10368DB68FC
:103DD000984730B1206B036821469B68BDE81040CE
:103DE000184710BD90F82C3010B504466BB1B0F9EF
:103DF0003830B0F93A209A4208D10368D3F88830B5
:103E0000984700232387E38E638710BD0133038720
:103E1000FBE738B50B7990F82C2004460D468BB99A
:103E20008AB123682046D3F8883098470023238737
:103E3000A38E63870CF06CFF21460430BDE8384048
:103E40000DF05CB882B1B3FA83F35B0984F82C30CF
:103E500023682046D3F88C309847236820465B6956
:103E600098472B79002BDCD00CF052FF2146043010
:103E7000BDE838400CF099BF0B7970B590F82C6014
:103E800004460D460BB916B170BD002EFCD0B3FA36
:103E900083F35B0984F82C3023682046D3F88C30F8
:103EA0009847236820465B699847002EECD02B7911
:103EB000012BE9D123682046D3F88830BDE8704053
:103EC00018470B882DE9F04183861388B0F9085014
:103ED000C38604461046904610F08AFBB4F90A30B7
:103EE000074603EBD3734046C3F34F0610F0B4FB11
:103EF00005EBD575C5F34F0500EBD07007EBD77711
:103F0000A6EB6002A5EB670104F1380012B209B21A
:103F1000FFF7BEFC23682046D3F88C30BDE8F041A3
:103F2000184770B5036804469B6B1546984723688D
:103F300029462046DB6BBDE8704018470022C0E9E7
:103F40000122C0E90322C0E90522C0E907224FF49B
:103F500080728284014A0260704700BF5067020885
:103F600010B526220446002120F0D7FC2046FFF79A
:103F7000E5FF044B2360FF2384F826300023A3626F
:103F8000204610BDF47A0208094A02600022C0E906
:103F90000122C0E90322C0E90522C0E907228262AA
:103FA0004FF47F41026340F20112818582847047A1
:103FB000B867020870B50446FFF7E6FF154B002509
:103FC0002646C4E90D35144B46F83C3B3046FFF716
:103FD000C7FF124BE3632A4629463046C4E91C5505
:103FE000C4E91E55A566A4F86C50FFF751FC314694
:103FF0002046264606F094FB094B46F8803B3046A7
:10400000FFF796FC2046C4E93255314606F088FB9E
:10401000204670BD1E000F00E46802085C7B0208A9
:104020008069020810B48367019BC36703685DF869
:10403000044BD3F88C30C0E91C12184738B504463D
:1040400000F18005284609F03FFFB4F90A20B4F9D1
:1040500008102846FFF765FF38BD0368C0E9321233
:10406000D3F88C30184700002DE9F04F044695B086
:10407000A04600250EF022FDD94BE56348F8403BF1
:1040800004F16C074046FFF76BFF4FF6FF7B12A968
:1040900004F19809384604F1C406ADF848B009F0B7
:1040A000CFF94846FFF75CFF3046FFF783FF04F582
:1040B000CA7318460493FFF77DFF04F51973184679
:1040C0000593FFF777FF04F54D7318460693FFF746
:1040D00071FF04F20443294634221846079320F066
:1040E0001CFC0798FFF750FFBE4BC4F8043404F2E1
:1040F0003C4A4FF0FF3326222946C4F83834504654
:10410000ADF848B020F009FC5046FFF717FFB64B5A
:10411000C4F83C34BDF84830A4F86234504684F802
:1041200064B412A90AF0F4F85146079806F0F8FAB8
:1041300004F58D63294634221846039320F0EDFBE5
:104140000398FFF721FFA94BC4F8683404F29C439D
:1041500018460B93FFF704FFA54BC4F89C342A467E
:1041600029460B98C4F8C854A4F8CC54C4F8D054C9
:10417000C4F8D454C4F8D854C4F8DC54FFF788FB0E
:104180000B99039806F0CCFA9A4BC4F8683404F5FE
:104190009C6318460A93FFF7CBFB0A990398C4F86F
:1041A0002855C4F82C5506F0BBFA04F5A66318464A
:1041B0000893FFF7BDFB904BC4F830358F4BC4F824
:1041C00090358F4BC4F898354FF4A07304F1040B6D
:1041D0002A46C4F87855C4F87C55C4F89C5529463D
:1041E00040464FF07F4AC4F894450093F023FEF711
:1041F000FFFF4146C4F868A0584606F091FA3846D9
:1042000012A9ADF848500AF083F84FF4A0732A467B
:10421000294638460093F023FEF7EAFF2946384640
:1042200009F0C9F83946584606F07AFA3C234FF4AB
:104230008272294648460093F023FEF7D9FF5C239B
:104240004946C4F8C0A084F8BE3058461A2706F084
:1042500067FA4FF01E13C4F8F8302A462946009733
:10426000322304F58070FEF7C3FFDFF8ACA1654A86
:104270006549DFF8A8814FF00203A4F830313046D9
:10428000624BCDF800A0FFF7CDFE4FF00809604B60
:104290001293304612A9ADF84C90FFF7CFFE3223AF
:1042A0004A462946009704F5A270FEF7A1FF424650
:1042B00041463046FFF7D1FE04F5B26284F8E9507A
:1042C000C4F8F42032233046099200974FF49172DB
:1042D0005F21FEF78DFF3146584606F021FA4FF078
:1042E0000F13C4F8C8312A4629460097322304F533
:1042F000E870FEF77DFF4FF00202A4F80022434B66
:10430000404A41490498CDF800A0FFF78BFE4FF0DA
:104310000A013F4B0498ADF84C1012A91293FFF715
:104320008DFE32234A462946009704F50570FEF7B4
:104330005FFF424641460498364EFFF78EFE099ACB
:1043400084F8B951C4F8C421322340F20112049810
:1043500000975F21FEF74CFF0499584606F0E0F9FC
:10436000C4F898622A4629460097322304F528703B
:10437000FEF73EFF4FF00202A4F8D022234B214A61
:1043800021490598CDF800A0FFF74CFE204B059879
:10439000129312A90B23ADF84C30FFF74FFE3223D6
:1043A0004A462946009704F53970FEF721FF424638
:1043B00041460598FFF751FE099A84F88952C4F8DE
:1043C000942232234FF4877205980097A521FEF7B7
:1043D0000FFF0599584606F0A3F9C4F868631FE07B
:1043E0000C6C02081C6A0208C47B0208BC6A020842
:1043F0005C7B0208586B020854680208F46B0208E0
:104400005B3D0008CC9900FF00990DFF076600FF97
:10441000BC5E020803000600996633FF0A0A0AFF21
:104420002A4629460097322304F55C70FEF7E0FE29
:104430004FF00202A4F8A0237E4B7F4A7F490698E2
:10444000CDF800A0FFF7EEFD7D4B0698129312A960
:104450000923ADF84C30FFF7F1FD32234A462946D7
:10446000009704F56D70FEF7C3FE4246414606987C
:10447000FFF7F3FD099A84F859533223C4F86423F3
:10448000069800974FF487721921FEF7B1FE06993E
:10449000584606F045F94FF003090798ADF84490E7
:1044A00012AA11A90426ADF84860FFF70AFD1423EB
:1044B000099AC4F84054C4F83424079800934FF480
:1044C0009672DC21FEF794FE32270799584606F0D3
:1044D00027F92A4629460B9800978C23FEF788FE79
:1044E000584BC4F8D034584BC4F8D43403F54123A6
:1044F00003F2EA63C4F8D834544BC4F8DC34D4F87B
:1045000068340398D3F88C304FF0050AA4F8CCA493
:1045100098474B4B0A98129312A9ADF84CA009F09A
:10452000D3FCB4F97224B4F970140A98FFF7F9FCBB
:1045300029468C230A220A980097FEF759FE039811
:10454000C4F82885C4F82C85FFF772FB099B84F812
:104550008D54C4F898346E228C2303980097394602
:10456000FEF746FE0399DFF80481584606F0D8F8B6
:104570004FF4877208980621FFF78AF94FF0FF334E
:10458000C4F86035D4F83035A4F864550CADD3F8D0
:10459000843008992846984795E8070004F26C5340
:1045A00083E80700D8F8003004F5B06A2BB9284B2F
:1045B000284A602128481FF0A9FF284F3B88032B79
:1045C00003D8274B234A6121F4E7264D4946286842
:1045D00000F0F8F9244A0346314650460FF04EFFEA
:1045E000D8F80030C4F878A504F5B169002BDED006
:1045F0003B88022BE5D92868022100F0E3F91A4A2A
:104600000346314648460FF039FF0898C4F87C95B8
:1046100009F03AFC0A4B0898129312A9ADF84C60C5
:1046200009F052FC5846089906F07AF8204615B071
:10463000BDE8F08F076600FFCC9900FF00990DFFE1
:10464000BC5E02083338CCFF2C72D4FF31DEF5FF9C
:10465000186502081A66020895650208703F012075
:10466000DC650208783F0120656602086C3F012086
:104670007047000030B5174D2C68BFF35B8F14F006
:1046800001048FB023D128461EF0FCFFF8B1124B75
:10469000124913480A94CDE90B433F230993114B68
:1046A0000893114B0594CDE9064301220423CDE97B
:1046B00003320E23009316221123CDE90144FEF7A5
:1046C000EFFF0A481FF040FF28461EF0E7FF0448AE
:1046D0000FB030BDCC3000204C6C0208C0960208F0
:1046E000D0300020B8990208E0990208714600080D
:1046F0007047000030B5174D2C68BFF35B8F14F086
:1047000001048FB022D128461EF0BCFFF0B13F2338
:104710000993114B0893114B114912480A94CDE9A2
:10472000064301220423CDE903320A2300930E221B
:104730000C23CDE90B44CDE901440594FEF7B0FF0D
:1047400009481FF001FF28461EF0A8FF05480FB0DA
:1047500030BD00BFFC300020BC990208E49902087B
:10476000F497020800310020F1460008704700006D
:1047700030B5164D2C68BFF35B8F14F001048FB079
:1047800021D128461EF07EFFE8B13F230993104B4C
:104790000893104B07930123CDE9054304930423A9
:1047A000CDE9024316230C4900930922CDE90B44BD
:1047B0000A480A940194FEF773FF09481FF0C4FEEB
:1047C00028461EF06BFF05480FB030BD2C3100208D
:1047D000C0990208E8990208B89802083031002010
:1047E0006D4700087047000030B5174D2C68BFF3C7
:1047F0005B8F14F001048FB022D128461EF042FFD7
:10480000F0B13F230993114B0893114B07930123F8
:10481000CDE9054304930423CDE9024328230D4940
:10482000009309222923CDE90B440B480A940194F3
:10483000FEF736FF09481FF087FE28461EF02EFFC0
:1048400005480FB030BD00BF5C310020C49902089C
:10485000EC9902083899020860310020E547000809
:1048600000207047002070470EB403B503AB002151
:1048700053F8042B01930DF009FA02B05DF804EB34
:1048800003B070470CB407B504AB53F8042B019385
:104890000DF0FCF903B05DF804EB02B070470000C6
:1048A000436C10B5044673B3038F2BB9184B194AE8
:1048B000C52119481FF02AFEC38E00EB43035B8C11
:1048C0000BB30FF032F8238F012B03D8134B144A8C
:1048D000CB21EEE7E28E531C9BB2092B194688BF11
:1048E000A3F10A0104EB410140F63F10498C8142DB
:1048F00009D10A2B04EB420228BF002304EB430337
:10490000508C588451842046BDE810400EF010BFF2
:10491000A2700208AB70020856710208A07102086A
:10492000AE7102080EF0CBBE10B586B002AC84E8C2
:1049300006001A460AAB05930193099B0093214692
:10494000089B0BF067FD06B010BD000038B518BB22
:10495000124B13481C681349B4B122682244026008
:10496000626822440A60A26814440F4B00221A8035
:1049700000F038F8054600F033F80C4B1C600C4B87
:104980001D600C4B188007E00B4B03600B4B0B605A
:104990000B4B1C68002CE8D138BD00BF98310020BB
:1049A000903100208C310020943100206C3F012098
:1049B000743F0120703F0120209A0208F0990208FC
:1049C000B49A0208044B1B6853F82100034B1B6880
:1049D00003EB4000704700BF8C3100209031002075
:1049E0000C207047004870479C31002010B5FFF73D
:1049F00041FE064C2060FFF7F7FE6060FFF77AFE8D
:104A0000A060FFF7B5FEE06010BD00BF9C31002044
:104A100010B5002404600C6014601C6010BD704769
:104A200010B54FF4AE7104461EF02AFE204610BDAC
:104A300010B50446D0F8580100F06DF82046BDE8E6
:104A400010400CF029BA000010B50446FEF792FDA4
:104A5000014B2360204610BD88720208704704385D
:104A60007047704710B5102104461EF009FE20461D
:104A700010BDA0F10400F5E700228260024A026046
:104A800018324260C1607047DC7202087047000053
:104A900010B5034B03600446FEF776FE204610BDBA
:104AA0000873020810B50446FFF7F2FF20464FF4E2
:104AB000C6711EF0E5FD204610BD000008B5074B8D
:104AC000186803F0D2FE40B10CF022F9FEF7A6FD03
:104AD000BDE80840C82003F078BD08BD542E002072
:104AE00010B50446FEF746FF054B2360054B064A0A
:104AF0001B88042104F5BA700FF0C0FC204610BDDD
:104B0000087302084C2E0020FC720208FEF73DBE1E
:104B10000022026070477047704704387047704742
:104B200010B5102104461EF0ABFD204610BDA0F1CB
:104B30000400F5E700228260024A026018324260F7
:104B4000C160704740730208704700000F4B70B59A
:104B50000446036041F2B05540F27466635960192F
:104B60001B68343D9847B542F8D14FF4C46540F214
:104B70008456635960191B68343D9847B542F8D193
:104B80002046FFF719F8204670BD00BF6873020881
:104B900010B50446FFF7DAFF204641F204611EF02B
:104BA0006FFD204610BD000010B504460B480C4AAE
:104BB00084FB00010023FBF799FEE11751430948EC
:104BC00004FB0311A2FB0424101841EB0401044A66
:104BD0000023FBF78BFE104610BD00BF0CA30C009A
:104BE0000100803BAB6E080000220A21C0E90022D0
:104BF000C0E9031282607047F7B5124F044600F116
:104C000010060025D4E903C02268A16800EB8200E9
:104C100005EB800007EBC0020FFA8CF3526812FB21
:104C20000C1257F830106068009311FB0C0112B29F
:104C300056F8040F09B20135FEF7DAFA042DE1D176
:104C400003B0F0BDA8730208F8B506ACC0E90012C5
:104C500054F8045B0B4F0C4EC0E9023503460022AA
:104C600043F8102F00F12001022554F8042B43F8DB
:104C7000042F8B42C2E90A761586F6D1FFF7BCFFF6
:104C8000F8BD00BFE8760CFFBD2706FF10B44468EE
:104C90000C448168446011445DF8044B8160FFF767
:104CA000ABBF0368012B0BD003690133594201F0FC
:104CB000030103F0030358BF4B420361FFF79CBF9E
:104CC00070470000012313B580F88D34002380F86D
:104CD000593380F8893280F8E93080F8B93180F8AA
:104CE000293400F63C7280F8CD3634309042FAD147
:104CF000084C206803F0B9FD012809D834238DF849
:104D0000073020680A2300220DF1070103F04CFD53
:104D100002B010BD502E00200B4B10B50446186891
:104D2000D4F8B03500EB40001844FFF73DFF0723EF
:104D300090FBF3F3C3EBC303C31A03F5AF6304EBB8
:104D40008304606810BD00BF382E00200A4B10B5E8
:104D50001B680446D0F8B0051844FFF725FF072369
:104D600090FBF3F3C3EBC303C31A03F5AF6304EB88
:104D70008304606810BD00BF382E002001F5D563A4
:104D800001F5AF5130B504310022012493F82550CC
:104D900045B9032A40F8223002F1010583F8254085
:104DA00003D02A4634338B42F0D130BD00F5AF5CDE
:104DB0002DE9F0470CF1040C03F1100704462033F1
:104DC00057F8041FB1F904E0B1F90690BEF1000FE5
:104DD0002BDBB1F908507544F02D26DCB1F90A60DF
:104DE0004E44B6F5827F20DC04F5D56292F82500AA
:104DF00098B1914211D0B2F904A055450DDDB2F938
:104E00000880D044F04508DDB2F906A0564504DD1F
:104E1000B2F90A80D044C84505DC34329445E5D166
:104E2000BB42CDD10020BDE8F0870120FBE70000A8
:104E30002DE9F04F90F8A43695B004460E46002BAD
:104E40006CD190F88D34002B68D1364F01233B6034
:104E5000FFF77CFF04F5D068834601ADB6B120466C
:104E6000FFF75AFF2146064608A8D4F8A095D4F8C3
:104E7000A4A5FFF783FF0FC885E80F001E2300934A
:104E80004A46534631464046FFF7DEFED4F8943694
:104E90000C93D4F898360D93D4F89C360E93D4F82E
:104EA000A0360F930CAB0FCB85E80F004FF01E0917
:104EB00004F25C66CDF800907822D4F880160023C6
:104EC0003046FFF7C1FED4F8A435D4F8A0A5079367
:104ED00010A82146FFF752FF0FC885E80F00524681
:104EE000079BCDF8009059464046FFF7ADFE33468C
:104EF000002278212046FFF759FF251D50B10023DD
:104F000020463B60FFF7DEFE284615B0BDE8F04FB7
:104F10000CF0E6BF012384F8A436F5E715B0BDE830
:104F2000F08F00BF3C2E00202DE9F04190F8A456F0
:104F300004460F4690469DB100F25C663046FFF78E
:104F4000A5FED4F86426D4F8601633462046FFF751
:104F50002DFF48B1C8F1000279423046FFF796FEB6
:104F600000252846BDE8F081201D0CF0B9FFF8E7C8
:104F700010B504461E2200212046FFF7D5FF002869
:104F8000F8D110BD00226FF01D01FFF7CDBF002248
:104F90001E21FFF7C9BF38B590F8A4360446DBB12F
:104FA00000F25C652846FFF77CFED4F86426D4F84E
:104FB00060162B462046FFF7F9FE40B12846FFF762
:104FC00070FE2846FFF76DFE2846FFF76AFE201D9B
:104FD000BDE838400CF084BF38BDFFF7DCBF0000EF
:104FE00037B51C4D0446286803F03FFCD8B14FF09C
:104FF000FF33286800220DF1070103F006FC94F846
:10500000A43633B90BF084FEFEF7F8FAC82003F09B
:10501000DCFA9DF807304C2B07D100226FF01D0100
:105020002046FFF781FF03B030BD522B02D1002292
:105030001E21F5E74F2B03D12046FFF7ACFFF2E727
:10504000442BF0D11E2200212046FFF76DFF0028DF
:10505000F8D1E8E7542E00202DE9F04F89B0002365
:105060008846CA1D04468DF80F300DF10F0112F865
:1050700001090B7808B10133DBB2424501F8013D6B
:10508000F5D1D4F894360493D4F898360593D4F82F
:105090009C36069304F5AF59D4F8A036079304F56F
:1050A000D56509F104094FF01E0A4FF0000B95F881
:1050B0002530B3B304AA002352F8041BA94230D010
:1050C0000133042BF8D1B5F9062092FBFAF6F6B2BB
:1050D00018F80630EBB906F120036B44B5F904105B
:1050E00013F8187CC7EB071302EB43022B6812B2CC
:1050F0009B6D28469847A219374492F854362744A6
:10510000013B82F8543697F85436013387F8543609
:1051100007E0264485F825B096F85436013B86F81A
:10512000543634354D45C2D1B4F8B4259DF8083015
:1051300003FB03239BB2154AA4F8B435042104F5FC
:10514000B0600FF09BF9124AB4F8B4351188994257
:1051500006D2138004210D4A04F5B1600FF08EF9D8
:105160000C4D286803F081FB012809D833238DF802
:10517000073028680A2300220DF1070103F014FB11
:10518000201D09B0BDE8F04F0CF0AABEFC72020869
:105190004C2E0020502E00202DE9F04390F8AC3525
:1051A000013380F8AC35D0F8B0350446013304F54E
:1051B0008056C0F8B03585B0FFF712FF94F8AC25E3
:1051C000D6F800369A4264DBD4F8A83594F8A47671
:1051D0000021013384F8AC15C4F8A835002F58D04D
:1051E0001E222046FFF7A0FE0546002842D1DFF828
:1051F000A880CDE90200D8F8000003F036FB0128B2
:105200000AD832238DF80730D8F800000A232A463E
:105210000DF1070103F0C8FADFF880C004F26C61F9
:1052200004F27C604FF01E0E4FF0010851F8043F6D
:10523000C3F828C0B3F9063093FBFEF304EB03096F
:1052400099F854260132D2B2082A01BF10336B44B8
:105250003D4603F8088C884289F85426E6D11DB1F2
:1052600002A92046FFF7F8FE002184F8A416204684
:10527000FFF7DEFDD4F8A835322B0AD90023C4F895
:10528000A835D6F80036053B132BD8BF1423C6F833
:10529000003605B0BDE8F083502E0020C8C8C8FF16
:1052A0002DE9F7430446FEF7DFFE3F4B23609623CC
:1052B0000025C4F8A035DFF80491C4F8A8554FF4D0
:1052C0008773C4F8A43584F8AC55C4F8B055A4F875
:1052D000B45504F5B76604F254673046FEF740FE55
:1052E000343646F8349C46F8085C26F8045CBE4226
:1052F000F3D1C4F8545604F25C607560FFF774FC97
:1053000004F5D56704F5D06004F5AF58FFF76CFCE1
:1053100008F1040884F8A45600263D462846FEF706
:105320001FFE343545F8349C45F8086C25F8046CAC
:105330004545F3D11D4E0FCE04F5805C0CF2E455CB
:105340000FC596E807003C2385E80700261DCCF82A
:10535000003600253946304605F0E2F9343707F8C3
:105360000F5C4745F6D1B4F8B435114A114D04210C
:1053700004F5B0600FF082F80F4B0D4A1B88042132
:1053800004F5B1600FF07AF8286803F06EFA38B1CE
:1053900028684FF0FF3300220DF1070103F035FAC2
:1053A000204603B0BDE8F083687302086455020824
:1053B000FC720208542E00204C2E00205C7B020858
:1053C0002DE9F743074600F5B7643B254FF4827992
:1053D0000FFA85F80022204602234146CDF80090BE
:1053E000FDF706FF4FF0FF33C4E90A33142384F8B6
:1053F00026303E1D012323862146304605F090F9D4
:1054000023683C3520469B6D00224146ADB298474B
:10541000EF2D04F13404DBD1304603B0BDE8F04396
:105420000CF05EBD10B50446FEF7C7FB2046FFF743
:10543000C7FF20460121BDE81040FFF7F9BCF0206E
:1054400070474FF4A07070472920FDF7D3B828208B
:10545000FDF7D0B808B5FDF7A1F8CA20FDF7CAF8E6
:10546000C320FDF7ABF80820FDF7A8F85020FDF7A2
:10547000A5F8CF20FDF7BEF80020FDF79FF8C1206A
:10548000FDF79CF83020FDF799F8ED20FDF7B2F814
:105490006420FDF793F80320FDF790F81220FDF744
:1054A0008DF88120FDF78AF8E820FDF7A3F8852024
:1054B000FDF784F80020FDF781F87820FDF77EF8ED
:1054C000CB20FDF797F83920FDF778F82C20FDF771
:1054D00075F80020FDF772F83420FDF76FF8022010
:1054E000FDF76CF8F720FDF785F82020FDF766F84A
:1054F000EA20FDF77FF80020FDF760F80020FDF7B7
:105500005DF8B120FDF776F80020FDF757F81B2075
:10551000FDF754F8B620FDF76DF80A20FDF74EF8B8
:10552000A220FDF74BF8C020FDF764F81020FDF72E
:1055300045F8C120FDF75EF81020FDF73FF8C520C3
:10554000FDF758F84520FDF739F81520FDF736F836
:10555000C720FDF74FF89020FDF730F83620FDF713
:1055600049F8C820FDF72AF8F220FDF743F800209B
:10557000FDF724F8B020FDF73DF8C220FDF71EF836
:10558000B620FDF737F80A20FDF718F8A720FDF739
:1055900015F82720FDF712F80420FDF70FF82A2050
:1055A000FDF728F80020FDF709F80020FDF706F8C0
:1055B0000020FDF703F8EF20FDF700F82B20FDF7A2
:1055C00019F80020FCF7FAFF0020FCF7F7FF012094
:1055D000FCF7F4FF3F20FCF7F1FFF620FDF70AF897
:1055E0000120FCF7EBFF0020FCF7E8FF0620FCF7AA
:1055F000E5FF2C20FCF7FEFFC820FDF749F8262028
:10560000FCF7F8FF0120FCF7D9FFE020FCF7F2FFE0
:105610000F20FCF7D3FF2920FCF7D0FF2420FCF754
:10562000CDFF0C20FCF7CAFF0E20FCF7C7FF0920B6
:10563000FCF7C4FF4E20FCF7C1FF7820FCF7BEFF4B
:105640003C20FCF7BBFF0920FCF7B8FF1320FCF758
:10565000B5FF0520FCF7B2FF1720FCF7AFFF1120C4
:10566000FCF7ACFF0020FCF7A9FFE120FCF7C2FF2C
:105670000020FCF7A3FF1620FCF7A0FF1B20FCF77F
:105680009DFF0420FCF79AFF1120FCF797FF0720ED
:10569000FCF794FF3120FCF791FF3320FCF78EFFDD
:1056A0004220FCF78BFF0520FCF788FF0C20FCF75D
:1056B00085FF0A20FCF782FF2820FCF77FFF2F20C0
:1056C000FCF77CFF0F20FCF779FF1120FCF792FF1D
:1056D000C820FCF7DDFF2920FCF78CFFBDE808405F
:1056E0002C20FCF787BF08B5FCF758FF0321D32017
:1056F000FCF79CFF80B208BD10B5C4B202220321A2
:105700002046FCF701FF0A20FCF746FF2046002256
:105710000321FCF7F9FEBDE810400220FCF73CBF76
:1057200038B50446E4B2FCF7EDFE00212046FCF754
:1057300003FF012105462046FCF7FEFE40EA052056
:1057400080B238BD10B5C4B240212046FCF7F4FE4B
:10575000030607D54C212046FCF7EEFE003818BFA3
:10576000012010BD01224B212046FCF7CDFE204632
:1057700000224B21FCF7C8FE0020F2E773B504239A
:10578000C4B20E461546D7210DEB03022046FCF7A6
:10579000EDFE019B1BBA1A0DC3F30B23328020468A
:1057A0002B8001224B21FCF7AFFE00224B2120462B
:1057B000FCF7AAFE02B070BD10B50A4A13789842F1
:1057C00004460DD0517888420AD00BB141B901236B
:1057D000D454FCF797FE2046BDE81040FFF78CBF7D
:1057E00010BD00BFAC31002010B5C4B20921204665
:1057F000FCF7A2FE40F00102D2B220460921BDE82A
:105800001040FCF781BE10B5C4B209212046FCF758
:1058100093FE092100F0FE022046BDE81040FCF78F
:1058200073BE38B5C4B20D4620460A21FCF784FE8B
:1058300040EA0502D2B220460A21BDE83840FCF712
:1058400063BE10B50446FCF75EFE20461F21FFF73D
:10585000E8FF2046BDE81040FFF7C6BF38B5C4B228
:105860000D4620460A21FCF767FE20EA0502D2B267
:1058700020460A21BDE83840FCF746BE10B5044674
:10588000FFF7C1FF20461F21BDE81040FFF7E6BF2C
:1058900010B5C0B20C460B21FCF74EFE204010BDE7
:1058A0001F21FFF7F5BF0A46C0B20B21FCF72CBE43
:1058B0001F21FFF7F8BF38B5C4B20D4620461721A7
:1058C000FCF73AFE20EA0502D2B220461721BDE8D5
:1058D0003840FCF719BE70B5C4B206460421204614
:1058E000FCF72AFE042100F0FB0205462046FCF7E7
:1058F0000BFE3046F021FFF7DEFF05F0F8022046F0
:105900000421FCF701FE492220212046FCF7FCFD82
:105910000220FCF741FE204601222121FCF7F4FD84
:1059200020469A224121FCF7EFFD204601224A2120
:10593000FCF7EAFD204601224B21FCF7E5FD20465D
:1059400000224B21FCF7E0FD204601225621FCF706
:10595000DBFD204601225821FCF7D6FD204601221E
:105960004021FCF7D1FD2046FF220B21FCF7CCFDA6
:10597000BDE870400220FCF70FBE0000054BD3F8D5
:10598000882042F47002C3F888204FF000629A60C9
:10599000704700BF00ED00E008B50B4B1A6842F4F9
:1059A00000721A601A6842F480621A601A6842F43F
:1059B00080721A60032000F02FF80020FDF7EEF847
:1059C000FCF774FE002008BD003C0240034A044B73
:1059D00011681B780B441360704700BFB031002082
:1059E00094030020014B1868704700BFB0310020BD
:1059F00038B50446FFF7F6FF631C1CBF054B1B7848
:105A0000054618BFE418FFF7EDFF431BA342FAD386
:105A100038BD00BF940300200749CA6822F4E06241
:105A20000302120403F4E063120C134343F0BF6358
:105A300043F40033CB60704700ED00E0164B30B507
:105A4000DC68C4F30224C4F10703251D042B28BF1E
:105A50000423062D4FF0FF358CBF033C002405FACC
:105A600003F321EA0303A54022EA0502A34000282C
:105A700043EA0203ACBF00F16040084A4FEA031357
:105A8000B8BF00F00F00DBB2AABF00F561401354AD
:105A900080F8003330BD00BF00ED00E014ED00E001
:105AA000002807DB044A4109012300F01F0083405E
:105AB00042F82130704700BF00E100E010B5044615
:105AC00050B1437903F0FF0213B90271FCF70EFEE7
:105AD00001236371002010BD0120FCE710B50446CE
