:020000040800F2
:10000000000003203D0C0008692B00086B2B000842
:100010006D2B00086F2B0008712B000800000000FA
:10002000000000000000000000000000318A00080D
:10003000732B000800000000C18A00082D8300080F
:100040008D0C00088D0C00088D0C00088D0C00082C
:100050008D0C00088D0C00088D0C00088D0C00081C
:100060008D0C00088D0C00088D0C00088D0C00080C
:100070008D0C00088D0C00088D0C00088D0C0008FC
:100080008D0C00088D0C00088D0C00088D0C0008EC
:100090008D0C00088D0C00088D0C00088D0C0008DC
:1000A0008D0C00088D0C00088D0C00088D0C0008CC
:1000B0008D0C00088D0C00088D0C00088D0C0008BC
:1000C0008D0C00088D0C00088D0C00088D0C0008AC
:1000D0008D0C00088D0C00088D0C00088D0C00089C
:1000E0008D0C00088D0C00088D0C00088D0C00088C
:1000F0008D0C00088D0C00088D0C00088D0C00087C
:100100008D0C00088D0C00088D0C00088D0C00086B
:100110008D0C00088D0C0008752B00088D0C000854
:100120008D0C00088D0C00088D0C00088D0C00084B
:100130008D0C00088D0C00088D0C00088D0C00083B
:100140008D0C00088D0C00088D0C00088D0C00082B
:100150008D0C00088D0C00088D0C00088D0C00081B
:100160008D0C00088D0C00088D0C00088D0C00080B
:100170008D0C00088D0C00088D0C0008000000009C
:100180008D0C00088D0C00088D0C00088D0C0008EB
:100190008D0C00088D0C00088D0C00088D0C0008DB
:0C01A000812B00088D0C00088D2B00083E
:1001B00010B5054C237833B9044B13B10448AFF3A1
:1001C00000800123237010BD800600200000000085
:1001D000BC53020808B5034B1BB103490348AFF3F6
:1001E000008008BD0000000084060020BC53020807
:1001F00001F0FF01102A2BDB10F0070F08D010F8D8
:10020000013B013A8B422DD010F0070F42B3F6D1DB
:10021000F0B441EA012141EA014122F007047FF0F4
:1002200000070023F0E80256083C85EA010586EA4B
:10023000010685FA47F5A3FA87F586FA47F6A5FA87
:1002400087F68EB9EED1F0BC01F0FF0102F0070293
:1002500032B110F8013B013A83EA010313B1F8D13E
:100260000020704701387047002D06BF354603381F
:10027000073815F0010F07D1013015F4807F02BF58
:10028000013015F4C03F0130F0BC0138704700BFA9
:1002900070B54FF0FF0C4CF4E06C1CEA11541DBF1C
:1002A0001CEA135594EA0C0F95EA0C0F00F0DEF8E7
:1002B0002C4481EA030621EA4C5123EA4C5350EACC
:1002C000013518BF52EA033541F4801143F480131D
:1002D00038D0A0FB02CE4FF00005E1FB02E506F0AE
:1002E0000042E0FB03E54FF00006E1FB03569CF003
:1002F000000F18BF4EF0010EA4F1FF04B6F5007F09
:1003000064F5407404D25FEA4E0E6D4146EB06067A
:1003100042EAC62141EA55514FEAC52040EA5E5003
:100320004FEACE2EB4F1FD0C88BFBCF5E06F1ED8AD
:10033000BEF1004F08BF5FEA500E50F1000041EBE4
:10034000045170BD06F0004646EA010140EA020091
:1003500081EA0301B4EB5C04C2BFD4EB0C0541EAB3
:10036000045170BD41F480114FF0000E013C00F3C8
:10037000AB8014F1360FDEBF002001F0004170BDEC
:10038000C4F10004203C35DA0C341BDC04F1140405
:10039000C4F1200500FA05F320FA04F001FA05F291
:1003A00040EA020001F0004221F0004110EBD3705E
:1003B00021FA04F642EB06015EEA430E08BF20EA8A
:1003C000D37070BDC4F10C04C4F1200500FA04F32D
:1003D00020FA05F001FA04F240EA020001F00041BF
:1003E00010EBD37041F100015EEA430E08BF20EA32
:1003F000D37070BDC4F1200500FA05F24EEA020E7A
:1004000020FA04F301FA05F243EA020321FA04F0A8
:1004100001F0004121FA04F220EA020000EBD3705F
:100420005EEA430E08BF20EAD37070BD94F0000F5F
:100430000FD101F00046400041EB010111F4801F93
:1004400008BF013CF7D041EA060195F0000F18BF44
:10045000704703F00046520043EB030313F4801F80
:1004600008BF013DF7D043EA0603704794EA0C0F3A
:100470000CEA135518BF95EA0C0F0CD050EA410650
:1004800018BF52EA4306D1D181EA030101F00041CD
:100490004FF0000070BD50EA410606BF10461946F5
:1004A00052EA430619D094EA0C0F02D150EA013601
:1004B00013D195EA0C0F05D152EA03361CBF104642
:1004C00019460AD181EA030101F0004141F0FE41E1
:1004D00041F470014FF0000070BD41F0FE4141F465
:1004E000780170BD81F0004102E000BF83F000435D
:1004F00030B54FEA41044FEA430594EA050F08BFBF
:1005000090EA020F1FBF54EA000C55EA020C7FEA82
:10051000645C7FEA655C00F0E2804FEA5454D4EBFF
:100520005555B8BF6D420CDD2C4480EA020281EAC9
:10053000030382EA000083EA010180EA020281EA01
:100540000303362D88BF30BD11F0004F4FEA013153
:100550004FF4801C4CEA113102D0404261EB410162
:1005600013F0004F4FEA03334CEA133302D05242E8
:1005700063EB430394EA050F00F0A780A4F10104A4
:10058000D5F1200E0DDB02FA0EFC22FA05F28018DE
:1005900041F1000103FA0EF2801843FA05F35941C4
:1005A0000EE0A5F120050EF1200E012A03FA0EFC43
:1005B00028BF4CF0020C43FA05F3C01851EBE3716D
:1005C00001F0004507D54FF0000EDCF1000C7EEB8A
:1005D00000006EEB0101B1F5801F1BD3B1F5001FC8
:1005E0000CD349085FEA30004FEA3C0C04F10104E7
:1005F0004FEA445212F5800F80F09A80BCF1004F10
:1006000008BF5FEA500C50F1000041EB045141EA91
:10061000050130BD5FEA4C0C404141EB0101013C5A
:1006200028BFB1F5801FE9D291F0000F04BF014649
:100630000020B1FA81F308BF2033A3F10B03B3F11B
:1006400020020CDA0C3208DD02F1140CC2F10C02AB
:1006500001FA0CF021FA02F10CE002F11402D8BF09
:10066000C2F1200C01FA02F120FA0CFCDCBF41EAD5
:100670000C019040E41AA2BF01EB0451294330BDA4
:100680006FEA04041F3C1CDA0C340EDC04F1140481
:10069000C4F1200220FA04F001FA02F340EA030058
:1006A00021FA04F345EA030130BDC4F10C04C4F19E
:1006B000200220FA02F001FA04F340EA030029467E
:1006C00030BD21FA04F0294630BD94F0000F83F4C8
:1006D000801306BF81F480110134013D4EE77FEAAB
:1006E000645C18BF7FEA655C29D094EA050F08BFF7
:1006F00090EA020F05D054EA000C04BF19461046D8
:1007000030BD91EA030F1EBF0021002030BD5FEA1B
:10071000545C05D14000494128BF41F0004130BD43
:1007200014F580043CBF01F5801130BD01F0004597
:1007300045F0FE4141F470014FF0000030BD7FEA0A
:10074000645C1ABF194610467FEA655C1CBF0B4605
:10075000024650EA013406BF52EA033591EA030F1C
:1007600041F4002130BD00BF90F0000F04BF002114
:10077000704730B54FF4806404F132044FF0000547
:100780004FF0000150E700BF90F0000F04BF0021C0
:10079000704730B54FF4806404F1320410F0004526
:1007A00048BF40424FF000013EE700BF42004FEA21
:1007B000E2014FEA31014FEA02701FBF12F07F439E
:1007C00093F07F4F81F06051704732F07F4208BF55
:1007D000704793F07F4F04BF41F40021704730B55C
:1007E0004FF4607401F0004521F000411CE700BFA8
:1007F00050EA010208BF704730B54FF000050AE02B
:1008000050EA010208BF704730B511F0004502D52B
:10081000404261EB41014FF4806404F132045FEA2D
:10082000915C3FF4D8AE4FF003025FEADC0C18BFD6
:1008300003325FEADC0C18BF033202EBDC02C2F1C8
:10084000200300FA03FC20FA02F001FA03FE40EA5A
:100850000E0021FA02F11444BDE600BF4FEA410246
:1008600012F5001215D211D56FF47873B3EB625202
:1008700012D94FEAC12343F0004343EA505311F029
:10088000004F23FA02F018BF404270474FF00000BB
:10089000704750EA013005D111F0004008BF6FF0F9
:1008A000004070474FF00000704700BF7BB972B93D
:1008B0000029BEBF00204FF0004106E008BF00281D
:1008C0001CBF6FF000414FF0FF3000F0B5B9ADF143
:1008D000080C6DE904CE002909DB002B1ADB00F0BF
:1008E0004DF8DDF804E0DDE9022304B07047404232
:1008F00061EB4101002B1BDB00F040F8DDF804E068
:10090000DDE9022304B0404261EB4101524263EB56
:1009100043037047524263EB430300F02FF8DDF8C6
:1009200004E0DDE9022304B0404261EB410170477D
:10093000524263EB430300F021F8DDF804E0DDE907
:10094000022304B0524263EB4303704753B94AB9E0
:10095000002908BF00281CBF4FF0FF314FF0FF30C7
:1009600000F06AB9ADF1080C6DE904CE00F006F8AC
:10097000DDF804E0DDE9022304B070472DE9F0471B
:10098000089D0C46002B4ED194468C458646B2FA03
:1009900082F262D94AB1C2F12003914020FA03F3F6
:1009A0000CFA02FC194300FA02FE4FEA1C471FFA38
:1009B0008CF6B1FBF7F44FEA1E4307FB141143EA30
:1009C000014304FB06F199420AD91CEB030304F12D
:1009D000FF3080F01281994240F20F81023C634463
:1009E000591A1FFA8EF3B1FBF7F007FB101143EA17
:1009F000014300FB06F69E420AD91CEB030300F1FB
:100A0000FF3180F0FC809E4240F2F980634402385E
:100A10009B1B40EA044000211DB1D3400022C5E9E0
:100A20000032BDE8F0878B4205D90DB1C5E9000160
:100A300000210846F5E7B3FA83F1002946D1A34225
:100A400002D39042C0F0F080861A64EB03030120C9
:100A5000002DE6D0C5E90063E3E7002A40F090806E
:100A6000A1EB0C044FEA1C481FFA8CF70121B4FBE0
:100A7000F8F64FEA1E4308FB164443EA044307FB1B
:100A800006F0984208D91CEB030306F1FF3402D2AA
:100A9000984200F2CD8026461C1A1FFA8EF3B4FB52
:100AA000F8F008FB104443EA044300FB07F79F42B9
:100AB00008D91CEB030300F1FF3402D29F4200F27D
:100AC000B0802046DB1B40EA0640A5E7C1F12006C6
:100AD0008B4022FA06F71F4320FA06FC04FA01F3C2
:100AE00043EA0C03F44000FA01F8380C4FEA1349CA
:100AF000B4FBF0FE1FFA87FC00FB1E4449EA0444E5
:100B00000EFB0CF9A14502FA01F20AD93C190EF1CB
:100B1000FF3A80F08480A14540F28180AEF1020E60
:100B20003C44A4EB09041FFA83F9B4FBF0F300FB87
:100B3000134449EA044403FB0CFCA44507D93C19BF
:100B400003F1FF3067D2A44565D9023B3C4443EA38
:100B50000E40A0FB0293A4EB0C049C42CE469C46A4
:100B600051D34ED055B1B8EB0E0364EB0C0404FA2C
:100B700006F6CB401E43CC40C5E90064002150E797
:100B8000C2F1200320FA03F10CFA02FC24FA03F369
:100B900094400C434FEA1C4800FA02FE1FFA8CF7FF
:100BA000B3FBF8F008FB1031230C43EA014300FBD0
:100BB00007F1994208D91CEB030300F1FF362CD250
:100BC00099422AD9023863445B1AA4B2B3FBF8F104
:100BD00008FB113344EA034401FB07F3A34208D99D
:100BE0001CEB040401F1FF3613D2A34211D90239E0
:100BF0006444E41A41EA004139E70446F0E6084655
:100C000006E7C845AED2B9EB020E63EB070C01381C
:100C1000A8E73146EDE7034699E73046D4E7D646E4
:100C20007FE7634402384DE70646234608460FE750
:100C3000023E634430E700BF704700BFDFF834D0A6
:100C4000002103E00C4B5B58435004310B480C4B24
:100C500042189A42F6D30B4A02E0002342F8043BC2
:100C6000094B9A42F9D304F0BBFD23F037FE01F0A3
:100C700097F97047000003209474060800000020D4
:100C80008004002080060020584F0120FEE77047B6
:100C900008B500F0ABFDBDE8084000F02DBD00F048
:100CA000A7BD704710B50421044622F021FC204660
:100CB00010BD000038B50C4B0C4C18800C4B82203A
:100CC00019806368984740F6110398420AD1094D8C
:100CD00023682C60822098472B688220DB68984725
:100CE000002038BD0120FCE7A60600206803002094
:100CF000A4060020A80600204FF4A071F020FFF702
:100D0000D9BF0000F7B5334D2B6804461B6982201C
:100D10009847208000284AD02B680DF106025B69B5
:100D200001A982209847BDF8063040F674629342CC
:100D30003FD9ADF80620BDF80630D21A92B20A2A81
:100D40003DD90B23B2FBF3F2234B1B889A4201D906
:100D5000013B9AB2BDF8043040F6B8318B4230D82E
:100D6000C3F571630E339BB20F21B3FBF1F31B4943
:100D700009888B4201D901398BB2194E194D30685F
:100D80002F68834281B28CBF591AC91AB8B2BA42CD
:100D90008CBF101A801A89B280B201440529C8BFDD
:100DA00033603368C8BF2A6063802B68A38003B0B8
:100DB000F0BDB32B9CBFB423ADF80630BBE70022D7
:100DC000C8E7C3F56D6308339BB20E2BCCD8002364
:100DD000D3E700BFA8060020A4060020A606002036
:100DE000A00600209C06002037B568460D46144634
:100DF000FFF788FFBDF8000030B1BDF802302B606E
:100E0000BDF804302360012003B030BD032821D891
:100E1000DFE800F0020B12190F4B1A68B2FA82F2E7
:100E2000520904210D4804F071BF0B4B5A68B2FA05
:100E300082F252090821F5E7074B9A68B2FA82F26A
:100E400052091021EEE7044BDA68B2FA82F2520935
:100E50002021E7E7704700BFAC06002000100240E9
:100E6000032821D8DFE800F0020B12190F4B1A6893
:100E7000003A18BF012204210D4804F047BF0B4B74
:100E80005A68003A18BF01220821F5E7074B9A6813
:100E9000003A18BF01221021EEE7044BDA68003A4D
:100EA00018BF01222021E7E7704700BFAC060020F1
:100EB0000010024003280DD8DFE800F00206080AFF
:100EC0000421054804F027BF0821FAE71021F8E7BC
:100ED0002021F6E7704700BF0010024008B5032844
:100EE00011D8DFE800F0020A0C0E0421074804F0D4
:100EF00007FF431E5842584108BD0821F6E710215C
:100F0000F4E72021F2E70020F3E700BF00100240E1
:100F100070B5084D00240126E0B2FFF7DFFF18B1DD
:100F20002B68012B18BF2E600134052C05F1040538
:100F3000F2D170BDAC060020012380F8781080F853
:100F40007930704700207047034B4164003918BF67
:100F500001211970704700BF17420120002070471F
:100F6000836B0BB10846184770474FF6FF70704708
:100F7000406803689B6918477047704770470000D6
:100F800010B5044600F042FD23680349D3F88C30C5
:100F90002046BDE810401847000000D008B503689F
:100FA0000446D3F880309847236820469B6F9847C3
:100FB00000F0ECF8236820461B6F9847292001F0C9
:100FC000AFFA00F0E3F8236820461B6F9847F8E774
:100FD00010B504460AF006FB23682046D3F8AC306F
:100FE000BDE81040184700F0F3BC00F0F7BC00F07B
:100FF0002BBD00F0C9BC00F03BBD00F043BD00F0CC
:10100000CDBC09F05BBD10B57C21044622F070FA1E
:10101000204610BD10B590F8341090F878400C4B75
:101020008C421A7809D03AB90A4A0B4914880888C0
:1010300010800C8001221A7010BD002AFCD0054AD5
:1010400005491488088810800C800022F3E700BF4F
:10105000104201200C4201200E42012070B50D46C5
:10106000194635B9094B0A4A0A4840F2D22123F001
:1010700085F9C0E90F52084B003A18BF01221A70D7
:101080000368BDE87040D3F88C3018474854020814
:1010900080540208CE5402081642012008B5094BBC
:1010A0001B888B4203D8084B1B88934205D9074BFA
:1010B000074A08489E2123F061F9074B1980074B26
:1010C0001A8008BD0C4201200E420120135502086F
:1010D00076550208CE540208124201201442012023
:1010E000034690F87A0018B1586803681B681847DF
:1010F00070470000012108B50022084607F0A3F957
:101100000A4B186028B90A4B0A4A28210A4823F0DA
:1011100035F900220421012007F03DFA074B186041
:1011200018B9074B034A2C21F0E708BDC006002080
:1011300094560208DD5602080C570208BC0600202F
:1011400061570208024B4FF0FF31186807F0C5B92C
:10115000C0060020014B186807F0EBB9C00600205C
:10116000024B0021186807F0B8B900BFC006002084
:10117000FFF7F0BF03480449006800231A4607F050
:1011800045BA00BFBC0600200400002013B5084C7F
:1011900000231A4601A9206807F069FA20684FF079
:1011A000FF33002201A907F062FA02B010BD00BFB0
:1011B000BC06002003685B6C184701207047036879
:1011C0009B6A1847FEE740F2EF307047054B03601B
:1011D000054B4FF08062C3F88820BFF34F8FBFF3F9
:1011E0006F8F70470859020800E100E010B504460F
:1011F0004FF45A61FFF7EAFF204622F079F92046C2
:1012000010BD000082B0002301930E4B1A6B42F414
:1012100000021A631A6B02F400020192019A1A6921
:1012200042F400021A611A6922F400021A61064BA4
:10123000064A1A61064A5A61064B4FF080629A606C
:1012400002B070470038024038330020A51400086F
:10125000C511000800E100E008B50A2809D8DFE858
:1012600000F006100E0808080810101010000220E8
:1012700008BD054B054A0648902123F07FF8002061
:10128000F6E70120F4E700BFA3570208BE570208A3
:101290000958020838B50C46887FFFF7DDFFA58A9C
:1012A000E28A164B2169586342EA05425A64628B0E
:1012B000D963521B1A642568082D0ED19A611A61F0
:1012C0005862207F0E4A42EA0062DA61E2681A62DE
:1012D0000C4A5961D9601A6038BD0022D8611A6180
:1012E000E1680A0A480902F4784200F4FC6002430B
:1012F000C1F3C4010A439A63034AECE700B0024019
:1013000009000100012302000123030008B50B2896
:101310000BD8DFE800F00612100A0A0A0A080808CB
:101320000808022008BD0520FCE7054B054A0648D1
:101330006F2123F023F80020F4E70120F2E700BF3B
:10134000A35702085C580208095802082DE9F04129
:1013500091F81D800C464046FFF7D8FFA77F054651
:101360003846FFF7D3FF06463846FFF775FFA18AD8
:10137000628B444B521A1A649A61228B521A1A6178
:10138000E28A586342EA01425A6421696268D96379
:10139000DA602068802828D0227F0FD8202867D0E4
:1013A000402865D004281AD0364B45EA026545F43A
:1013B0000035B845DD6161D0334A44E0B0F5807F47
:1013C00004D0B0F5007FEFD1304800E0304840EA6B
:1013D0000262DA61E2681A625E62596132E045EAED
:1013E000026242F40032DA61F6E7A068021DDA62B6
:1013F000227F45EA026545F40035DD615E62596190
:10140000017841B1012921D0224B234A23484FF4CE
:101410008D7122F0B3FFDA69418822F47F420139ED
:1014200022F0100242EA0122DA610121154BDA6949
:1014300042F02002DA61DA699206FCD410229A6046
:101440000029B9D0164A1A60BDE8F081B2F1FF0157
:10145000DA69408822F47F4200F1FF3022F0100266
:1014600042EA002242F0100218BF0121DA61DDE7F2
:1014700045EA0262034B42F40032B4E742F2013221
:10148000E1E700BF00B002400123010009000200B3
:101490000A000200A6580208C058020809580208AB
:1014A00001230200024B1B68586803685B691847F8
:1014B0001842012070B5044625460A4B0C30002620
:1014C00060602672667245F8203B602229460AF069
:1014D000E1F904F55A63EE6024359D42FBD12046C4
:1014E00070BD00BF08590208034B1A68D207FCD42C
:1014F00023229A60704700BF00B00240704700008E
:1015000030B50F4C2568ED07FCD423250904A560F0
:1015100041F001010225FF2B65636164E0630AD09D
:101520000849656241EA0363E361074B2262606137
:10153000E060236030BDE561039BA363034BF8E7E4
:1015400000B0024009000100010002000100030098
:1015500030B50E4C2568ED07FCD423251204A56098
:1015600042F001020225FF2B65636264E063E160E3
:1015700008D01B0643F00213E361054B656260610E
:10158000236030BD034BE3610123F9E700B0024063
:1015900001000200020002FF30B50B4C2568ED0788
:1015A000FCD4232512041B06A56043F40033022556
:1015B00042F0010265636264E063E160E361034B52
:1015C00065626061236030BD00B00240010002002E
:1015D000012070474020704700EB811008307047B1
:1015E00000EB8110083070470120704741F2046021
:1015F000704741F2046303FB01000830704741F279
:10160000046303FB0100083070470120704710207D
:10161000704700EB01100830704700EB01100830F4
:101620007047084601F070BF10B5034B03600446D5
:1016300008F09BFF204610BDC059020810B50446B3
:10164000FFF7F2FF2046482121F052FF204610BD4F
:1016500010B5034B0360044608F087FF204610BD19
:101660008C59020810B50446FFF7F2FF204641F2FC
:101670000C6121F03DFF204610BD000010B5034B6A
:101680000360044608F071FF204610BD5859020857
:1016900010B50446FFF7F2FF2046182121F028FF7D
:1016A000204610BD10B5094B0360044600F5B1504B
:1016B0001830FFF7B9FF04F12C00FFF7C9FF04F160
:1016C0001400FFF7DBFF204610BD00BFF4590208ED
:1016D00008B50248FFF7E6FF08BD00BF94150020DB
:1016E00010B50446FFF7DEFF20464FF4BF5121F04E
:1016F000FFFE204610BD00002DE9F34101F0C0FAC5
:10170000054601F0C1FA0024014623462846224638
:10171000009412F091FE274B274A1A60204603F0EE
:10172000ABF8264D264B274A27489A6012F0ECFD6D
:101730002B68BFF35B8FDB0736D4284621F0DAFE37
:1017400090B3224C224F234B236007F14C0604F147
:10175000140004F12C086060C4F80880E76026617A
:1017600008F004FF1C4B6361404608F0FFFE1B4B72
:10177000E362384608F0FAFE04F58053184AC3F8CD
:10178000382604F5B45003F059F9224604F5B45153
:10179000304603F0EFF8304601F0B6FE114822F073
:1017A0000BFE284621F0B2FE0F4802B0BDE8F04122
:1017B000FFF7E6BB7C420120400700209015002087
:1017C0006007002044070020080000209415002036
:1017D000CC2B0020F4590208585902088C590208F1
:1017E000C0590208D1160008C40600207047000046
:1017F0000148FFF7D3BB00BFC406002070B5244EDC
:10180000244C254D254B23603046FFF753FE2846D8
:1018100017F018FF224810F051FB224B2248DC60E1
:1018200000224FF48071C3E9121220491A86C3E9DD
:101830001A121F4999671F4983F858200B60F0213D
:1018400001801D485A6601801C4883F870204FF4BF
:10185000A071C3E90422C3E90622C3E90822C3E94F
:101860000A22C3E90E22C3E91022C3E91422C3E904
:1018700017225A67C3E901650180114801801149A7
:101880000A70012283F834200F4A1A6070BD00BF2D
:10189000EC0700208C150020600700203854020857
:1018A00044070020C40600200C4201200100000172
:1018B0000000010118420120124201200E420120C5
:1018C0001442012010420120C45502080148FFF7CC
:1018D0007DBC00BFEC07002000207047818070476E
:1018E000C1807047018170474181704770477047E0
:1018F00070477047704710B4C4880368121B84880F
:101900005B6D091B12B25DF8044B09B218474FF624
:10191000FF7383814FF0FF3303621368C36110606C
:101920007047002070478B88838001207047704784
:1019300080F82610704790F82600704710B50022F6
:10194000B1F90840B1F90A10028042808480C18058
:1019500010BD0022028042808280C28070470177E1
:10196000704780ED080A704780F82410704780F8AF
:101970002510704701207047983070478C307047B1
:101980008430704770470000034B902283F85A233D
:1019900083F85823704700BF00E100E0094A0A4974
:1019A000D3680A48C3F30A03013B9BB20B80116959
:1019B000C1F30A01013901801364536B43F0010341
:1019C0005363704700680140762D0020742D00207D
:1019D000014BD3F8AC00704700680140024B012274
:1019E000C3F8AC105A6270470068014070477047F6
:1019F00010B52C21044621F07BFD204610BD10B50A
:101A0000BC21044621F074FD204610BD70B504468B
:101A100009F0A9F823685D6E0FF0B2F80146204680
:101A2000A8472368054AD3F888502046AC460023CF
:101A3000BDE87040A2F51631604700BF00B004D089
:101A400009F078B809F082B809F03EB809F09FB9FA
:101A500090F8252012B103685B691847704790F829
:101A600025201AB190F8242002B1186070470000B8
:101A7000034B4FF080629A604FF080729A6070471B
:101A800000E100E0084B4FF08062C3F88820BFF30C
:101A90004F8FBFF36F8F4FF08072C3F88820BFF372
:101AA0004F8FBFF36F8F704700E100E070B50023E8
:101AB000124E8380124B0360336893F8582005461A
:101AC0000AB1D86C00B998680368DB6A9847336834
:101AD000B0FA80F4D86C640930B10368DB6A9847C7
:101AE000002808BF44F001042CB9064B064A0748F9
:101AF0002C2122F043FC284670BD00BF1842012073
:101B0000045B0208005A02085E5A0208975A02084B
:101B100070B5244E3568BFF35B8F15F001053FD1DA
:101B2000304621F0E7FC00283AD01F4C1F4B2561BE
:101B300004F13400C4E90035C4E90255E584A56226
:101B4000A58510F01AFC04F158000BF09FFA184B11
:101B5000A3652046174B40F8843BFFF7A7FF164BC1
:101B6000C4F884302433C4F88C306423C4E92835A5
:101B70000023C4F8AC30C4F8B030C4F8B430C4F8B2
:101B8000B8300E480E4BC4F89050C4F89C50C4F8BE
:101B9000A850C4F8983022F00FFC304621F0B6FC73
:101BA000014870BD782D00207C2D0020DC760208D5
:101BB000245B02089C5B02089076020885190008E5
:101BC0007076020810B5144C236823B3134B144AE3
:101BD0001B6C11888B4213D1124B198804F0A8FE9C
:101BE000226892F86A30013382F86A30FFF7C2FA4D
:101BF000206809F0F7FCBDE810400020FFF706B9A7
:101C000004F096FE206803681B6A9847BDE8104000
:101C10000020FFF725B910BD1842012000680140DF
:101C2000762D0020742D002007B5064BADF8060078
:101C30001B68054801220DF1060105F019FC03B0EF
:101C40005DF804FB28030020E43100200D4BB3FBBA
:101C5000F2F2036810B55408013ADA62C26039B989
:101C60005C6306F01FFABDE81040642006F0DFBB9D
:101C7000042901D19C63F4E708290CBFDC631C64D0
:101C8000EFE700BF40420F002DE9F84F164B174E0B
:101C90001F683068DFF85CB0DFF85C90DFF85CA0AC
:101CA00000231C464FF000085BF82450002D0EDD89
:101CB00097FBF5F0012362100234C62C4AF822008B
:101CC000F2D10B4A156003B13060BDE8F88FF2D055
:101CD000684297FBF0F0FEF757FD42464B46FEF791
:101CE000D7FAFEF7BBFDE5E70C0000204C2E0020E4
:101CF000502E0020140000200000F83F542E002039
:101D000038B5144D144C2B683BB92268134B14485A
:101D100033F832200421FFF799FF23684FF446720D
:101D200093FBF2F102FB1133DB080E492A6851F8EC
:101D30002310236001328A422A6009DD0133002228
:101D40002A6023600648BDE83840042106F0EAB95D
:101D500038BD00BF442E0020482E00201000002077
:101D60009C310020542E002008B50A4B1A682AB96D
:101D7000BDE808400848042106F0D4B900221A60E2
:101D800005484FF4F7720421FFF760FF642006F066
:101D90004EFBEDE7402E00209C31002008B50A4B99
:101DA0001A682AB9BDE808400848042106F0BAB903
:101DB00000221A60054840F293220421FFF746FFF3
:101DC000642006F034FBEDE73C2E00209C3100201F
:101DD000054A536B43F040035363044A136843F0CE
:101DE00004031360704700BF00380240000806502B
:101DF000024B5A68D207FCD5986870470008065015
:101E0000F7B5FFF741FF3A4D3A4E04212846FFF758
:101E100077FF04212846FFF7A7FF04212846FFF794
:101E2000BDFFFFF7E5FF344B08211860304603F093
:101E300067FF044678B9314F386806F048FC01283E
:101E400009D84C238DF8073038680A2322460DF153
:101E5000070106F0DBFB2A48202103F051FF04466E
:101E600090B9264F386806F032FC01280CD84F2371
:101E70008DF8073038680A2322460DF1070106F075
:101E8000C5FB962006F0D3FA1D48102103F038FF59
:101E9000044690B9194F386806F019FC01280CD88F
:101EA00044238DF8073038680A2322460DF10701D4
:101EB00006F0ACFBFA2006F0BAFA0421304603F033
:101EC0001FFF044678B90D4F386806F000FC012862
:101ED00009D852238DF8073038680A2322460DF1BD
:101EE000070106F093FB642006F0A1FA8DE700BF1E
:101EF0009C31002000180240382E00205C31002068
:101F0000000C024030B595B0102200210AA822F042
:101F10003CFC1422002103A822F037FC00241E4BB5
:101F200001941A6C42F080521A641B6C03F08053C7
:101F30000193019B194B02941A6842F440421A60C3
:101F40001B6803F4404302930122029B4FF4803349
:101F5000CDE9082302254FF480030821CDE90E5373
:101F60004FF4B473CDE9101308A80423139312950A
:101F700004F036FD04F0FAFC0F23CDE903354FF4ED
:101F8000A0504FF48053CDE90603052103A8059422
:101F900004F002FF15B030BD003802400070004070
:101FA0002DE98048A5B003F029FCFFF711FFFFF7EA
:101FB000A9FF1422002117A8002422F0E6FBC44B3D
:101FC00001941A6BC348DFF854B342F010021A634D
:101FD0001A6B02F010020192019A02941A6B42F0FD
:101FE00020021A631A6B02F020020292029A0394F2
:101FF0001A6B42F080021A631A6B02F0800203929D
:10200000039A04941A6B42F004021A631A6B02F0EA
:1020100004020492049A05941A6B42F001021A63B6
:102020001A6B02F001020592059A06941A6B42F0AF
:1020300002021A631A6B02F002020692069A0794D1
:102040001A6B42F040021A631A6B02F040020792C8
:10205000079A08941A6B42F008021A631B6B03F08C
:102060000803089322463C21089B03F04FFE9A4840
:102070002246042103F04AFE224698484FF440517C
:1020800003F044FE01264FF003093C239148CDF8AC
:10209000689017A902274FF00408CDE91736199464
:1020A00003F04AFD8C48199417A9CDE917861A97B1
:1020B00003F042FD4FF44053884817A9CDE9173685
:1020C0004FF00C0ACDE9194703F036FD8448199406
:1020D00017A93025CDE917A403F02EFD7F481994E8
:1020E00017A9CDE9175403F027FD7D48199617A9C4
:1020F000CDE917A403F020FD17A978481996CDE97A
:10210000175403F019FD7748774B784D036003F0BF
:1021100007FC774A774B2C62C5E9002328464FF429
:102120008043C5E90434C5E90244C5E9064403F027
:10213000FBFF1021284604F03FFA2146284604F010
:102140005AFA6D486D4984624FF48273C0E90013F6
:102150004FF400751823C0E906530A23C362C0E98F
:102160000244C0E90444C0E9084405F025F9644A82
:102170001797CBE900264FF0100A4022CBE904A2C2
:102180004FF4C072CBE906244FF400624FF40053C1
:10219000CBE9082417A907225846CBF82830082590
:1021A000CDE91A29CBE90248CDE91828CDE91C77F9
:1021B00004F0E6FF4FF6FF7210A95846CDE911561C
:1021C00009941096139404F0FBFF304603F042FB91
:1021D0004FF6FF7210A95846CDE91075CDE912648B
:1021E00004F0EEFF4FF6FF7210A95846CDE91095A6
:1021F000CDE9128404F0E4FF4FF40C720992099ABD
:10220000139210A94FF6FF725846CDE91085129629
:1022100004F0D6FF40F26A51584604F0EFFF342232
:10222000214617A822F0B1FA364D374B2C61C5E98B
:1022300000340923C5E905361D2340F20D1CC5E90C
:10224000073940F24313C5E909C340F2171E40F2B3
:1022500047132846C5E90BE3C5E90244AC8685F877
:10226000364004F06DFAFF21F022CDE91C144FF442
:10227000806905214FF4A073CDE91824CDE91E91A2
:10228000CDE9204217A922462846CDE91A371F4D2D
:1022900022931794ADF88C408DF88E4004F01BFB10
:1022A0001B4B2B601B68DFF878B098472B68194DE3
:1022B000DB689847184B2846C5E90034C5E9027425
:1022C000C5E90A47C5E90C4403F03AFB314629E069
:1022D000003802400010024000080240000C02409A
:1022E000001802407833002000300240E432002021
:1022F000005C0040A0860100E43100200050014055
:10230000400100A03C320020006801405431002010
:10231000300300203833002000B002406831002034
:1023200000000140284603F0C3FB524621460CA89A
:1023300022F02BFA1C22214610A8344DCDE90A4484
:1023400022F023FA2022214617A822F01EFA472362
:10235000C5E900B3284640F2E733C5E90334C5E9CF
:102360000544AC6005F0A2FC4FF480530CA928464C
:102370000C9305F08BFD284605F0C4FC0AA92846FD
:10238000CDE90A4405F0D0FE6023109322464FF4B5
:10239000FA7310A928461193CDE91344CDE91544E9
:1023A000129405F011FD424610A9284605F00CFDD7
:1023B0004FF4005317A928461C93CDE91744CDE9E3
:1023C00019441B941E9405F0EDFE284600F0E4FA33
:1023D000FEF75EFCFEF75BFC05F0B6FF0C4A3946E3
:1023E000504606F0D8F80B4B0B4A186021460B48B4
:1023F00005F0D6FF0A4B0B4A186021460A4805F043
:10240000CFFF0A4B186005F0B1FFFEE79C310020BA
:10241000FC5B02085C310020385C0208011E0008E9
:1024200064310020145C02089F0C00086031002019
:10243000704770477FB5094B8DF817201B680293D2
:102440000DF117020123009201930A460146044848
:1024500003F012FF07B05DF804FB00BF2C0300205F
:10246000E43200207FB500238DF81730084B1B683D
:1024700002930A4601230DF11701009101930146D1
:10248000044803F089FF9DF8170007B05DF804FBCE
:102490002C030020E43200201FB5084C2468009271
:1024A000CDE901340A4601230146054803F074FFD3
:1024B000003818BF012004B010BD00BF2C0300205D
:1024C000E432002003F0C6B910B5064C00222046C5
:1024D000042103F01BFC20460122BDE8104004212A
:1024E00003F014BC0008024038B50B4D044601222D
:1024F0000A484FF4005103F009FC00220421284649
:1025000003F004FC2046FFF78FFB28460122BDE8BC
:102510003840042103F0FABB00080240000C0240DE
:1025200038B50B4D044600220A484FF4005103F021
:10253000EDFB00220421284603F0E8FB2046FFF7CC
:1025400073FB28460122BDE83840042103F0DEBBBE
:1025500000080240000C0240F7B5144E144F054627
:102560000C4630460022042103F0D0FB00224FF439
:102570000051384603F0CAFB2846FFF755FB0D4BC8
:102580000D481B68224601A905F01EF938460122B4
:102590004FF40051019C03F0B9FB304601220421A5
:1025A00003F0B4FB204603B0F0BD00BF00080240BA
:1025B000000C024028030020E431002003F04AB957
:1025C0000268034B9A4201D103F032B9704700BF51
:1025D000001000407047000082B00E4B00220092B5
:1025E000596C41F480415964596C01F48041009167
:1025F00000990192196C41F0805119641B6C03F031
:1026000080530193019B0F216FF0010002B003F092
:1026100047B900BF003802400268094B9A4282B0B5
:102620000BD100230193074B1A6B42F480521A63BB
:102630001B6B03F480530193019B02B0704700BFF2
:10264000003002400038024007B50F4B02689A4242
:1026500016D10022A3F5F0430192196B41F4000159
:1026600019631B6B03F40003019305215A20019B9E
:1026700003F016F95A2003B05DF804EB03F042B9F9
:1026800003B05DF804FB00BF00B002402DE9F04349
:10269000044689B01422002103A822F076F82268AB
:1026A000244B9A4243D1244C244800250095236BA7
:1026B00043F004032363236B03F004030093009BA4
:1026C0000195236B43F001032363236B03F00103A4
:1026D0000193019B4FF012094FF400734FF0010872
:1026E0000327042603A9CDE90339CDE90587079619
:1026F00003F022FA4FF480731148079603A9CDE93D
:102700000339CDE9058703F017FA0295236C43F4EA
:1027100000032364236C03F400030293029B236AE7
:1027200043F400032362236A23F40003236209B005
:10273000BDE8F083005C0040003802400008024021
:1027400000000240F0B599B004461422002107A809
:1027500022F01BF830220DEB0200002122F015F8C8
:1027600022685E4B9A4240F0B78008230C93C02346
:102770001093042312930CA84FF40033159304F024
:10278000D3FB08B1FFF726FF554B564800240094B1
:102790005A6C42F080625A645A6C02F08062009275
:1027A000009A01941A6B42F020021A631A6B02F02D
:1027B00020020192019A02941A6B42F001021A63FC
:1027C0001A6B02F001020292029A03941A6B42F011
:1027D00002021A631A6B02F002020392039A049433
:1027E0001A6B42F040021A631A6B02F04002049224
:1027F000049A05941A6B42F004021A631A6B02F0F1
:1028000004020592059A06941A6B42F008021A63B4
:102810001B6B03F00803069302250E26069B0B96FE
:102820004FF4806307A9CDE90735CDE9094503F0E9
:1028300083F941F658032C480B9607A9CDE90735D3
:102840000927CDE9094503F077F9032327480B97BA
:1028500007A9CDE90735CDE9094503F06DF94FF436
:10286000706322480B9607A9CDE90735CDE90945E4
:1028700003F062F94FF40C631D480B9607A9CDE9EC
:102880000735CDE9094503F057F9C02319480B96E0
:1028900007A9CDE90735CDE9094503F04DF908232E
:1028A00015480B9607A9CDE90735CDE9094503F091
:1028B00043F94FF4A0530E480B9707A9CDE907350C
:1028C000CDE9094503F038F958202246052102F0E8
:1028D000E7FF582003F016F819B0F0BD006801407A
:1028E0000038024000140240000002400004024090
:1028F0000018024000080240000C024010B50446D7
:1029000088B01422002103A821F03FFF2268144B55
:102910009A4223D103F56843002101915A6C114872
:1029200042F480125A645A6C02F480120192019AA5
:1029300002911A6B42F020021A631B6B03F0200312
:102940000293029B4FF4607202230321CDE903231B
:102950000523CDE9061303A903F0EEF808B010BD76
:1029600000500140001402400268094B9A4282B0B4
:102970000BD100230193074B5A6C42F001025A64B9
:102980005B6C03F001030193019B02B0704700BF31
:10299000000001400038024010B5044686B0142201
:1029A000002101A821F0F1FE22680E4B9A4216D1B7
:1029B000002300930C4B0D481A6B42F001021A637E
:1029C0001B6B03F001030093009B4FF40072022382
:1029D000CDE9012301A90123059303F0ADF806B069
:1029E00010BD00BF0000014000380240000002405E
:1029F0002DE9F04186B0002303932B4B1C68002C7B
:102A00004FD14FF00108C3F80080284B00949A6B17
:102A1000274842EA08029A639B6B03EA0803009383
:102A2000022703260C25009B01A94FF63F03CDE9A1
:102A30000137CDE9046503F07FF81E48059501A92B
:102A4000CDE90187CDE9034603F076F848F2331368
:102A50001948059501A9CDE90137CDE9034603F0F1
:102A60006BF84FF683731548059501A9CDE9013739
:102A7000CDE9034603F060F84CF203731048059566
:102A800001A9CDE90137CDE9034603F055F86023EC
:102A90000C48059501A9CDE90137CDE9034603F0BE
:102AA0004BF806B0BDE8F0818033002000380240CA
:102AB00000140240000802400018024000100240CA
:102AC000000C02400004024070B588B0002302935D
:102AD000204B1A6C42F010021A641B6C03F01003B6
:102AE0000293054601A903A8029B04F0FFF9069B87
:102AF0004BBB04F0EBF9184E184B336040F2E73350
:102B0000F360174BB0FBF3F3013B736030460023D7
:102B10003361B360B36105F0C9F8044680B930464B
:102B200004F084FF044658B9362002F0EBFE0F2D66
:102B30000DD822462946362002F0B2FE094B1D6010
:102B4000204608B070BD04F0C1F94000D3E701246D
:102B5000F6E700BF00380240843300200010004038
:102B600040420F00980300207047FEE7FEE7FEE7B3
:102B7000FEE77047014804F098BF00BF843300208F
:102B8000014803F04BBE00BF3C320020014802F078
:102B900005BF00BF383300200120704708B521F081
:102BA00097FE162303604FF0FF3008BD08B521F0F3
:102BB0008FFE16230360FEE770B50D4614460E46E1
:102BC000731B9C4201DC204670BDAFF3008006F809
:102BD000010BF5E770B50D4614460E46731B9C427B
:102BE00001DC204670BD16F8010BAFF30080F5E75D
:102BF0004FF0FF3070474FF400534B600020704798
:102C000001207047002070470A4A116808B5034642
:102C100009B9094911601068694603448B4206D915
:102C200021F056FE0C2303604FF0FF3008BD136007
:102C3000FCE700BFCC330020584F0120704710B58F
:102C40000421044620F054FC204610BD08B5032999
:102C500013D8DFE801F002060A0E01F059FE006801
:102C600008BD01F055FE4068FAE701F051FE8068AA
:102C7000F6E701F04DFEC068F2E70020F0E7000043
:102C800000487047705C02080520704713B50024A7
:102C900051B1036801948DF8034001AA9C680DF1BD
:102CA0000303A04702B010BD0846FBE7C089704788
:102CB000008A7047C088704780887047807A00F02B
:102CC0007F007047807AC00970470020704700007D
:102CD0009FED010A704700BF00000000704710B56B
:102CE0000821044620F004FC204610BD70477047C0
:102CF00000F598730868496803C3704770477047C8
:102D00004160704710B50022B1F90840B1F90A10CE
:102D1000028042808480C18010BD704770470000EF
:102D2000064BC0F84C310023C0F8503100F5A273B7
:102D3000C0F84801C0F84031704700BFD12F0008EB
:102D400001230372704770477047704770477047A0
:102D500001464068036810315B6E184770B5054640
:102D600040680368DB69984704463CB968680368B3
:102D700005F110011B6EBDE870401847A188AB89B2
:102D8000C91A236820461B6B09B29847A469ECE76F
:102D9000704710B4C26841685410034601EB6200EA
:102DA000D20748BF0A599B685DF8044B48BFD35807
:102DB00018470346406830B19A681AB9D86800F0DD
:102DC000010070470120704710B50C21044620F027
:102DD0008FFB204610BD10B51021044620F088FB63
:102DE000204610BD10B54FF4AE71044620F080FBB4
:102DF000204610BD10B53821044620F079FB20464E
:102E000010BD10B52821044620F072FB204610BDED
:102E100010B54021044620F06BFB204610BD10B5D4
:102E20000DF0AEFE0368BDE81040DB6B18470000F4
:102E300037B50546807A6B7A0130C0B29842A872E5
:102E400005D901232B720023AB7203B030BDB5F955
:102E50000C20B5F90E4000210FF01AFFC30706D56C
:102E600000284FF6FF73C8BF0123184400B2AB7AA5
:102E7000E881041B012BA4B206D1174B1B781BB1B0
:102E80000DF07EFE0DF082FE144A00231288ADF88C
:102E90000230EB891A445B42ADF80430104BADF8B8
:102EA00000201B88ADF806300DF06AFE036802AA08
:102EB00012E906001B6C984768680368DB6998474D
:102EC0000546002DC1D0A9882B68214428461B6BDC
:102ED00009B29847AD69F4E7164201200C4201207F
:102EE0000E420120054B1B7801462BB1406818B1FA
:102EF00003680C315B6E1847704700BF1742012012
:102F0000037A70B50546BBB940680368DB6998472A
:102F100004463CB96868036805F10C011B6EBDE806
:102F200070401847A1886B8FC91A236820461B6B15
:102F300009B29847A469ECE770BD10B50446D0F813
:102F4000400158B10368DB68984738B1D4F84001B4
:102F500003689B6898470023C4F8403110BD70B5E2
:102F6000044690F8390094F838300130C0B29842E5
:102F700084F8390005D901232372002384F83930FD
:102F800070BDB4F93A2000210FF082FEC30706D5C8
:102F900000284FF6FF73C8BF0123184400B2238AEC
:102FA000C01AA08760680368DB69984705462DB999
:102FB00060680368BDE870405B691847A988A38F03
:102FC00019442B6828461B6B09B29847AD69EEE798
:102FD0002DE9F14FD0E9556A0746B06803681B6ACE
:102FE0009847B0F5C67F05D2444B454AA3214548D2
:102FF00021F0C4F9706803681B6A98470F2803D84A
:10300000414B3F4AA421F2E7F06803681B6A9847E6
:103010000B2803D83D4B3A4AA521E8E70DF0B0FD57
:10302000DFF8F09004300DF011FED9F8000010B177
:103030000368DB689847D9F8000010B103681B6883
:103040009847DFF8D480D8F8000010B103685B69B6
:103050009847D7F83C0110B103685B689847D8F8E7
:10306000000010B103681B689847D7F83C0110B105
:1030700003689B689847F068036800215B6A98477B
:103080004FF0000B224BC0F804B0044680F808B0A3
:103090000360B068036859465B6A9847054601F0CB
:1030A000B5FC7068036859465B6A9847294606462E
:1030B00001F078FC331DC7F83C61C9F80040C8F83E
:1030C0000050CAF800302B68C6F808A02846DB6814
:1030D000EE639847336830461B6898472146284678
:1030E0000FF0D0FD236820461B69984723685B6971
:1030F000204601B0BDE8F04F184700BFE45C02086D
:10310000725D02083E5E0208855E0208285F0208C2
:103110006C620208604201205C4201202DE9F0410E
:103120001D460368BDF918701B6B04461646984788
:103130002368314620465B6B984723682946204622
:103140009B6B9847236839462046DB6BBDE8F0410E
:10315000184700002DE9F74FD0E9556A0746B068D7
:1031600003681B6A9847B0F5C67F05D2544B554A91
:10317000A321554821F002F9706803681B6A98473B
:103180000F2803D8514B4F4AA421F2E7F068036897
:103190001B6A98473F2803D84D4B4A4AA521E8E7C8
:1031A0000DF0EEFCDFF8389104300DF04FFDD9F84A
:1031B000000010B10368DB689847D9F8000010B12F
:1031C00003681B689847DFF81C81D8F8000010B12D
:1031D00003685B699847D7F83C0110B103685B68E6
:1031E0009847D8F8000010B103681B689847D7F8D3
:1031F0003C0110B103689B689847F06803680021A0
:103200005B6A984705460022324B4260027245F8DD
:103210000C3B0446284609F0E1FF142323872E4B7C
:103220001B780022A287002B35D101232372B068BE
:10323000036800215B6A9847054601F0E7FB706868
:10324000036800215B6A98472946064601F0AAFBFD
:10325000331DC7F83C61C9F80040C8F80050CAF8EF
:1032600000302B68C6F808A02846DB68EE63984754
:10327000336830461B689847214628460FF002FD08
:10328000236820461B69984723685B69204603B082
:10329000BDE8F04F1847114BDFF84CB0B3F90030E0
:1032A0000093BBF9003011462846FFF737FF284648
:1032B00009F00FFFBBF800305B426387B7E700BF40
:1032C000E45C0208CB5F02083E5E0208855E0208ED
:1032D000285F0208B4620208174201200E42012052
:1032E000604201205C4201200C4201202DE9F74F91
:1032F000D0E955BA0746DBF8080003681B6A98470F
:1033000041F20363984205D8544B554AA3215548CE
:1033100021F034F8DBF8040003681B6A98470F2893
:1033200003D8514B4E4AA421F1E7DBF80C000368A7
:103330001B6A9847372803D84C4B494AA521E6E732
:103340000DF01EFCDFF8389104300DF07FFCD9F849
:10335000000010B10368DB689847D9F8000010B18D
:1033600003681B689847DFF81C81D8F8000010B18B
:1033700003685B699847D7F83C0110B103685B6844
:103380009847D8F8000010B103681B689847D7F831
:103390003C0110B103689B689847DBF80C00036898
:1033A00000215B6A9847324B03604FF4A0530381BE
:1033B0004FF4807343632F4B03612F4B1B885A429A
:1033C00082812E4A0025B2F90020456004468572AC
:1033D000C581C0E90555C0E90755C0E90955C0E9EF
:1033E0000B55294600921BB22A461030FFF796FE75
:1033F000DBF80800036829465B6A9847064601F037
:1034000081FEDBF80400036829465B6A9847314671
:10341000054601F025FB2B1DC7F83C51C9F80040BB
:10342000C8F80060CAF800303368C5F808A0304614
:10343000DB68F56398472B6828461B689847214648
:1034400030460FF01FFC236820461B69984723680D
:103450005B69204603B0BDE8F04F1847E45C020802
:10346000AA6002083E5E0208855E0208285F020824
:1034700090620208986102080C4201200E4201206D
:10348000604201205C420120044B1B6893F85820E5
:103490000AB1D86C00B99868704700BF1842012083
:1034A000F8B5174604460E460DF09EFC124B1C6004
:1034B000124B2360124B0025C4E95135114BC4E96E
:1034C00053551868036801219B68C4E94F55C4E946
:1034D00055769847284601F0CFF9FFF7D5FF17F04A
:1034E00004FFFFF7D1FF17F07BFFFFF7CDFF17F0C9
:1034F00083FF2046F8BD00BF6C420120186202081D
:103500000062020818420120064BC0F84C3100232B
:10351000C0F8503100F5A273C0F84801C0F840313E
:10352000704700BFD12F0008064BC0F84C31002374
:10353000C0F8503100F5A273C0F84801C0F840311E
:10354000704700BF55310008064BC0F84C310023CE
:10355000C0F8503100F5A273C0F84801C0F84031FE
:10356000704700BFED320008406A7047806A7047BC
:1035700070478B88C0690A68DB0A50F82300104442
:10358000704710B50446BAB1107B68B1537BD27A4C
:103590001B0203F4E0631A43236A03EB82031A88D5
:1035A0008A4202D193F9020010BD05D8013880B2D9
:1035B00004330028F3D1F7E70020F5E710B52C21FC
:1035C00004461FF095FF204610BD000030B58BB0BB
:1035D0000446BDF860500895BDF85C5007959DF80D
:1035E000505006959DF84C5005959DF8485004950F
:1035F0009DF8445003959DF8405002959DF83C502D
:103600000195BDF8385000950EF074FF064B23600D
:10361000159BE361169B2362199B63621A9BA3624D
:1036200020460BB030BD00BFD8620208704770471B
:1036300070477047704730B50368018185B06D46AB
:103640000146D3F8843004462846984795E8070099
:103650003C3484E8070005B030BD30B503684181D3
:1036600085B06D460146D3F8843004462846984715
:1036700095E807003C3484E8070005B030BD00221F
:10368000028042808280C280704780F83610704786
:1036900070B5036804461B6B154698472368294696
:1036A00020465B6EBDE87040184700207047806C74
:1036B00070477047704770470368DB6A1847704768
:1036C000704730B4C26844685510034604EB62008A
:1036D000D20748BF62599B6830BC48BFD3581847CF
:1036E0000346406830B19A681AB9D86800F0010002
:1036F00070470120704710B54C2104461FF0F8FEBA
:10370000204610BD10B5102104461FF0F1FE2046E2
:1037100010BD10B54FF4C67104461FF0E9FE2046F7
:1037200010BD08B5FEF794F908BD0000036870B538
:103730005E6B124B1B6804468DB22BB9104B114ABD
:103740006C21114820F01AFE1049828D098891429F
:1037500003D80F4B0B4A6D21F3E713F812200D4BE2
:103760001B6853F8220003681B6B9847291A3346DD
:10377000204609B2BDE87040184700BF70420120E2
:10378000386302087A630208B563020874420120B4
:10379000FC630208784201209830884208B505D1C0
:1037A0000DF0EEF9BDE80840FFF7CEBE08BD0022DF
:1037B0004FF0FF31C0E900218260704770B50368A7
:1037C00004461B6B154698472368294620465B6BC9
:1037D000BDE8704018470000F8B5194B018F1B88F1
:1037E0008B4206462AD9174B1B682BB9164B174A32
:1037F00017486C2120F0C2FD13F81120154B1B68EF
:1038000053F82250144B186801F072F82B680746E1
:103810009B6B284698472B6804469B6C3946284684
:1038200098472B6814FB00F45B6A39462846984792
:10383000A4B223181BB2A6F84630F8BD0023FAE75D
:103840007442012070420120386302087A63020842
:10385000B5630208784201207C4201204FF4807158
:1038600081840D4901600D4981624FF6FF718185A8
:103870004FF47F01002241634FF0FF31C0E9012284
:10388000C0E90322C0E90522C0E90722C0E91012FD
:1038900002630287C263704784780208DC5C020816
:1038A0002DE9F04F04468BB0A34600250FF03EF8FB
:1038B000774BE5634BF8403B764B2566C4E9103502
:1038C0004FF4807304F16C0AA4F86430FF2304F110
:1038D000980908A984F8663050464FF6FF73C4E98A
:1038E0001255C4E91455C4E91655A56604F1E0085B
:1038F000ADF8203009F0DCFC48460AF079FD04F50B
:1039000094764046FFF7AAFF3046FFF7A7FF624BC9
:10391000C4F82831614BC4F87051C4E95F34604B7E
:10392000C4E961354FF4A0732A46584600932946EE
:10393000F023FFF7F3FB271D4FF07F43A3665946A3
:10394000384606F025FE504608A9ADF820500AF08A
:1039500017FC4FF4A0732A46504600932946F023E3
:10396000FFF7DCFB5046294609F05DFC514638461E
:1039700006F00EFE4846BB222946FFF71FFF4FF018
:10398000010A022308AA07A94846ADF82030ADF87D
:103990001CA00AF02EFA0723A4F8D0304846FFF7FF
:1039A0001BFF4FF0FF3B04F5BE724946C4F8C02030
:1039B0003846C4E935BB06F0EBFD0DF1080941229C
:1039C00040462F21FFF7FAFE41464846C4F810B1A1
:1039D000A4F8145109F016FF99E8070004F58E7C4D
:1039E0008CE807002F4B08930622404608A9ADF843
:1039F00024200AF0A1F94146384606F0C9FD8F227D
:103A000045213046FFF7DAFED4F82831C4F858B122
:103A1000D3F88430A4F85C5131464846984799E879
:103A2000070004F5B27383E807001F4B1B6804F519
:103A3000BA782BB91D4B1E4A60211E4820F09EFC0F
:103A40001D4B1B881BB91D4B194A6121F5E71C4B07
:103A50002946186800F04CFF1A4A034604214046E4
:103A600010F044FC3046C4F870810AF045F90D4B63
:103A7000089308A93046ADF824A00AF05DF938464D
:103A8000314606F085FD20460BB0BDE8F08F00BF43
:103A9000386502081479020890640208206502085B
:103AA00099370008DC5C0208704201203863020884
:103AB0003A640208B563020874420120FC630208FC
:103AC0007C42012085640208806A70477047704715
:103AD0007047806C7047C06C704770477047704784
:103AE00070477047704770470368DB6A1847704734
:103AF000704790F82C304BB100F1740212684266A6
:103B00003BB100F17C031B688366704700F17002D3
:103B1000F4E700F17803F6E708B590F82C303BB1F4
:103B200000F1CC031B68C0F8B030FFF7E2FF08BD1E
:103B300000F1C803F6E790F82C304BB100F16C02AD
:103B40001268C2653BB100F174031B6803667047DD
:103B500000F16802F4E700F17003F6E708B590F8A9
:103B60002C303BB100F1C4031B68C0F8A830FFF74C
:103B7000E2FF08BD00F1C003F6E7704770477047E9
:103B80007047704730B4C26844685510034604EB70
:103B90006200D20748BF62599B6830BC48BFD35807
:103BA00018470346406830B19A681AB9D86800F0DF
:103BB000010070470120704790F82D3080F8AE303A
:103BC00080F85A30704790F82D3080F85A3070479E
:103BD00090F82D3080F86030704790F82D3080F8E4
:103BE000B63080F86230704790F82D3080F862303F
:103BF00070470146383091F82C3013B136310AF055
:103C0000BFBA3431FBE710B5342104461FF070FC15
:103C1000204610BD10B5642104461FF069FC204603
:103C200010BD10B5502104461FF062FC204610BDA7
:103C300010B5802104461FF05BFC204610BD10B576
:103C4000D02104461FF054FC204610BD10B5782149
:103C500004461FF04DFC204610BD10B5C821044697
:103C60001FF046FC204610BD10B5102104461FF081
:103C70003FFC204610BD10B54FF4B46104461FF060
:103C800037FC204610BD38B500F51973994204463B
:103C90000D4602D103681B6B984704F54D739D4296
:103CA00003D1236820465B6B984704F1C4039D420F
:103CB00003D1236820469B6B984704F5CA739D4245
:103CC00003D123682046DB6B984704F204439D42EE
:103CD00003D10CF055FFFFF727FC04F58D64A542D6
:103CE00005D10CF04DFFBDE83840FFF71DBC38BDD5
:103CF00010B50446006B50B10368DB68984730B1DB
:103D0000206B036821469B68BDE81040184710BD32
:103D100090F82C3010B504466BB1B0F93830B0F9DA
:103D20003A209A4208D10368D3F888309847002394
:103D30002387E38E638710BD01330387FBE738B524
:103D40000B7990F82C2004460D468BB98AB1236874
:103D50002046D3F88830984700232387A38E6387B3
:103D60000CF00EFF21460430BDE838400CF0FEBFD9
:103D700082B1B3FA83F35B0984F82C3023682046C0
:103D8000D3F88C309847236820465B6998472B7995
:103D9000002BDCD00CF0F4FE21460430BDE83840A6
:103DA0000CF03BBF0B7970B590F82C6004460D46C3
:103DB0000BB916B170BD002EFCD0B3FA83F35B09CA
:103DC00084F82C3023682046D3F88C309847236839
:103DD00020465B699847002EECD02B79012BE9D166
:103DE00023682046D3F88830BDE8704018470B8818
:103DF0002DE9F04183861388B0F90850C386044644
:103E00001046904610F02CFBB4F90A30074603EB3D
:103E1000D3734046C3F34F0610F056FB05EBD57540
:103E2000C5F34F0500EBD07007EBD777A6EB600228
:103E3000A5EB670104F1380012B209B2FFF7BEFC2E
:103E400023682046D3F88C30BDE8F041184770B5A0
:103E5000036804469B6B154698472368294620460D
:103E6000DB6BBDE8704018470022C0E90122C0E9C1
:103E70000322C0E90522C0E907224FF48072828440
:103E8000014A0260704700BF7065020810B5262223
:103E90000446002120F079FC2046FFF7E5FF044BA3
:103EA0002360FF2384F826300023A362204610BD40
:103EB00014790208094A02600022C0E90122C0E91F
:103EC0000322C0E90522C0E9072282624FF47F4144
:103ED000026340F20112818582847047D86502082E
:103EE00070B50446FFF7E6FF154B00252646C4E9EA
:103EF0000D35144B46F83C3B3046FFF7C7FF124BDD
:103F0000E3632A4629463046C4E91C55C4E91E55D8
:103F1000A566A4F86C50FFF751FC314620462646B2
:103F200006F036FB094B46F8803B3046FFF796FC1F
:103F30002046C4E93255314606F02AFB204670BDC2
:103F40001E000F00046702087C790208A0670208BF
:103F500010B48367019BC36703685DF8044BD3F813
:103F60008C30C0E91C12184738B5044600F18005B2
:103F7000284609F0E1FEB4F90A20B4F908102846F1
:103F8000FFF765FF38BD0368C0E93212D3F88C3003
:103F9000184700002DE9F04F044695B0A0460025D3
:103FA0000EF0C4FCD94BE56348F8403B04F16C07C4
:103FB0004046FFF76BFF4FF6FF7B12A904F198090B
:103FC000384604F1C406ADF848B009F071F9484626
:103FD000FFF75CFF3046FFF783FF04F5CA7318460E
:103FE0000493FFF77DFF04F5197318460593FFF757
:103FF00077FF04F54D7318460693FFF771FF04F23F
:104000000443294634221846079320F0BEFB079844
:10401000FFF750FFBE4BC4F8043404F23C4A4FF0A3
:10402000FF3326222946C4F838345046ADF848B04C
:1040300020F0ABFB5046FFF717FFB64BC4F83C34FB
:10404000BDF84830A4F86234504684F864B412A92C
:104050000AF096F85146079806F09AFA04F58D632F
:10406000294634221846039320F08FFB0398FFF76C
:1040700021FFA94BC4F8683404F29C4318460B9303
:10408000FFF704FFA54BC4F89C342A4629460B9839
:10409000C4F8C854A4F8CC54C4F8D054C4F8D454C8
:1040A000C4F8D854C4F8DC54FFF788FB0B99039884
:1040B00006F06EFA9A4BC4F8683404F59C6318460F
:1040C0000A93FFF7CBFB0A990398C4F82855C4F864
:1040D0002C5506F05DFA04F5A66318460893FFF721
:1040E000BDFB904BC4F830358F4BC4F890358F4BE7
:1040F000C4F898354FF4A07304F1040B2A46C4F8B1
:104100007855C4F87C55C4F89C55294640464FF074
:104110007F4AC4F894450093F023FEF7FFFF414621
:10412000C4F868A0584606F033FA384612A9ADF82C
:1041300048500AF025F84FF4A0732A46294638461D
:104140000093F023FEF7EAFF2946384609F06BF8A2
:104150003946584606F01CFA3C234FF48272294631
:1041600048460093F023FEF7D9FF5C234946C4F884
:10417000C0A084F8BE3058461A2706F009FA4FF05E
:104180001E13C4F8F8302A4629460097322304F556
:104190008070FEF7C3FFDFF8ACA1654A6549DFF820
:1041A000A8814FF00203A4F830313046624BCDF8BD
:1041B00000A0FFF7CDFE4FF00809604B1293304688
:1041C00012A9ADF84C90FFF7CFFE32234A4629469C
:1041D000009704F5A270FEF7A1FF42464146304623
:1041E000FFF7D1FE04F5B26284F8E950C4F8F42078
:1041F00032233046099200974FF491725F21FEF707
:104200008DFF3146584606F0C3F94FF00F13C4F83E
:10421000C8312A4629460097322304F5E870FEF794
:104220007DFF4FF00202A4F80022434B404A41496F
:104230000498CDF800A0FFF78BFE4FF00A013F4B2A
:104240000498ADF84C1012A91293FFF78DFE32239B
:104250004A462946009704F50570FEF75FFF42467F
:1042600041460498364EFFF78EFE099A84F8B951FC
:10427000C4F8C421322340F20112049800975F2150
:10428000FEF74CFF0499584606F082F9C4F898628C
:104290002A4629460097322304F52870FEF73EFF90
:1042A0004FF00202A4F8D022234B214A214905985D
:1042B000CDF800A0FFF74CFE204B0598129312A9F1
:1042C0000B23ADF84C30FFF74FFE32234A46294608
:1042D000009704F53970FEF721FF424641460598E4
:1042E000FFF751FE099A84F88952C4F894223223C8
:1042F0004FF4877205980097A521FEF70FFF0599E7
:10430000584606F045F9C4F868631FE02C6A0208B5
:104310003C680208E4790208DC6802087C7902083B
:104320007869020874660208146A0208873C00086B
:10433000CC9900FF00990DFF076600FFDC5C0208C6
:1043400003000600996633FF0A0A0AFF2A46294637
:104350000097322304F55C70FEF7E0FE4FF0020296
:10436000A4F8A0237E4B7F4A7F490698CDF800A091
:10437000FFF7EEFD7D4B0698129312A90923ADF8C5
:104380004C30FFF7F1FD32234A462946009704F5E9
:104390006D70FEF7C3FE424641460698FFF7F3FDF7
:1043A000099A84F859533223C4F864230698009775
:1043B0004FF487721921FEF7B1FE0699584606F0B0
:1043C000E7F84FF003090798ADF8449012AA11A935
:1043D0000426ADF84860FFF70AFD1423099AC4F8D3
:1043E0004054C4F83424079800934FF49672DC21AB
:1043F000FEF794FE32270799584606F0C9F82A4678
:1044000029460B9800978C23FEF788FE584BC4F87A
:10441000D034584BC4F8D43403F5412303F2EA6393
:10442000C4F8D834544BC4F8DC34D4F86834039856
:10443000D3F88C304FF0050AA4F8CCA498474B4B26
:104440000A98129312A9ADF84CA009F075FCB4F9C2
:104450007224B4F970140A98FFF7F9FC29468C23EA
:104460000A220A980097FEF759FE0398C4F8288597
:10447000C4F82C85FFF772FB099B84F88D54C4F8AF
:1044800098346E228C23039800973946FEF746FE37
:104490000399DFF80481584606F07AF84FF48772E2
:1044A00008980621FFF78AF94FF0FF33C4F860350A
:1044B000D4F83035A4F864550CADD3F8843008999D
:1044C0002846984795E8070004F26C5383E80700F4
:1044D000D8F8003004F5B06A2BB9284B284A60217F
:1044E00028481FF04BFF284F3B88032B03D8274B4E
:1044F000234A6121F4E7264D4946286800F0F8F97F
:10450000244A0346314650460FF0F0FED8F80030FA
:10451000C4F878A504F5B169002BDED03B88022BE6
:10452000E5D92868022100F0E3F91A4A034631462A
:1045300048460FF0DBFE0898C4F87C9509F0DCFBD8
:104540000A4B0898129312A9ADF84C6009F0F4FBDD
:104550005846089906F01CF8204615B0BDE8F08FC3
:10456000076600FFCC9900FF00990DFFDC5C020894
:104570003338CCFF2C72D4FF31DEF5FF38630208EC
:104580003A640208B563020874420120FC63020821
:104590007C420120856402087042012070470000BF
:1045A00030B5174D2C68BFF35B8F14F001048FB04A
:1045B00023D128461EF09EFFF8B1124B1249134832
:1045C0000A94CDE90B433F230993114B0893114BF8
:1045D0000594CDE9064301220423CDE903320E23DD
:1045E000009316221123CDE90144FEF7EFFF0A489C
:1045F0001FF0E2FE28461EF089FF04480FB030BDD0
:10460000D03300206C6A0208E0940208D433002002
:10461000D8970208009802089D45000870470000DE
:1046200030B5174D2C68BFF35B8F14F001048FB0C9
:1046300022D128461EF05EFFF0B13F230993114BB3
:104640000893114B114912480A94CDE906430122FF
:104650000423CDE903320A2300930E220C23CDE973
:104660000B44CDE901440594FEF7B0FF09481FF063
:10467000A3FE28461EF04AFF05480FB030BD00BF1C
:1046800000340020DC9702080498020814960208FF
:10469000043400201D4600087047000030B5164D58
:1046A0002C68BFF35B8F14F001048FB021D1284632
:1046B0001EF020FFE8B13F230993104B0893104BE5
:1046C00007930123CDE9054304930423CDE9024375
:1046D00016230C4900930922CDE90B440A480A9499
:1046E0000194FEF773FF09481FF066FE28461EF08E
:1046F0000DFF05480FB030BD30340020E0970208B0
:1047000008980208D8960208343400209946000818
:104710007047000030B5174D2C68BFF35B8F14F065
:1047200001048FB022D128461EF0E4FEF0B13F23F1
:104730000993114B0893114B07930123CDE90543CE
:1047400004930423CDE9024328230D490093092251
:104750002923CDE90B440B480A940194FEF736FF58
:1047600009481FF029FE28461EF0D0FE05480FB06C
:1047700030BD00BF60340020E49702080C980208A6
:104780005897020864340020114700080020704741
:10479000002070470EB403B503AB002153F8042B7F
:1047A00001930DF0ABF902B05DF804EB03B0704774
:1047B0000CB407B504AB53F8042B01930DF09EF92C
:1047C00003B05DF804EB02B070470000436C10B515
:1047D000044673B3038F2BB9184B194AC5211948E6
:1047E0001FF0CCFDC38E00EB43035B8C0BB30EF0CC
:1047F000D4FF238F012B03D8134B144ACB21EEE7B0
:10480000E28E531C9BB2092B194688BFA3F10A0103
:1048100004EB410140F63F10498C814209D10A2B3B
:1048200004EB420228BF002304EB4303508C58845E
:1048300051842046BDE810400EF0B2BEC26E0208A0
:10484000CB6E0208766F0208C06F0208CE6F0208B6
:104850000EF06DBE10B586B002AC84E806001A46B4
:104860000AAB05930193099B00932146089B0BF02B
:1048700009FD06B010BD000038B518BB124B134837
:104880001C681349B4B12268224402606268224461
:104890000A60A26814440F4B00221A8000F038F816
:1048A000054600F033F80C4B1C600C4B1D600C4BA4
:1048B000188007E00B4B03600B4B0B600B4B1C6825
:1048C000002CE8D138BD00BF9C3400209434002077
:1048D000903400209834002070420120784201205A
:1048E000744201204098020810980208D4980208E7
:1048F000044B1B6853F82100034B1B6803EB40007B
:10490000704700BF90340020943400200C20704782
:1049100000487047A034002010B5FFF741FE064C58
:104920002060FFF7F7FE6060FFF77AFEA060FFF7F8
:10493000B5FEE06010BD00BFA034002010B500241B
:1049400004600C6014601C6010BD704710B54FF41B
:10495000AE7104461EF0CCFD204610BD10B50446D5
:10496000D0F8580100F06DF82046BDE810400CF07A
:10497000CBB9000010B50446FEF792FD014B236051
:10498000204610BDA8700208704704387047704771
:1049900010B5102104461EF0ABFD204610BDA0F15D
:1049A0000400F5E700228260024A02601832426089
:1049B000C1607047FC7002087047000010B5034BDF
:1049C00003600446FEF776FE204610BD28710208FB
:1049D00010B50446FFF7F2FF20464FF4C6711EF0F3
:1049E00087FD204610BD000008B5074B186803F08E
:1049F0006EFE40B10CF0C4F8FEF7A6FDBDE808401D
:104A0000C82003F014BD08BD5C31002010B5044679
:104A1000FEF746FF054B2360054B064A1B88042121
:104A200004F5BA700FF062FC204610BD2871020830
:104A3000583100201C710208FEF73DBE00220260C2
:104A400070477047704704387047704710B51021A1
:104A500004461EF04DFD204610BDA0F10400F5E710
:104A600000228260024A026018324260C1607047D0
:104A700060710208704700000F4B70B50446036078
:104A800041F2B05540F27466635960191B68343DB9
:104A90009847B542F8D14FF4C46540F28456635943
:104AA00060191B68343D9847B542F8D12046FFF79E
:104AB00019F8204670BD00BF8871020810B5044681
:104AC000FFF7DAFF204641F204611EF011FD204697
:104AD00010BD000010B504460B480C4A84FB0001D1
:104AE0000023FBF7E3FEE1175143094804FB0311E0
:104AF000A2FB0424101841EB0401044A0023FBF735
:104B0000D5FE104610BD00BF0CA30C000100803B79
:104B1000AB6E080000220A21C0E90022C0E903129E
:104B200082607047F7B5124F044600F11006002569
:104B3000D4E903C02268A16800EB820005EB800085
:104B400007EBC0020FFA8CF3526812FB0C1257F8F5
:104B500030106068009311FB0C0112B256F8040F7C
:104B600009B20135FEF7DAFA042DE1D103B0F0BD48
:104B7000C8710208F8B506ACC0E9001254F8045B2D
:104B80000B4F0C4EC0E902350346002243F8102FAC
:104B900000F12001022554F8042B43F8042F8B4226
:104BA000C2E90A761586F6D1FFF7BCFFF8BD00BF53
:104BB000E8760CFFBD2706FF10B444680C448168FA
:104BC000446011445DF8044B8160FFF7ABBF03689C
:104BD000012B0BD003690133594201F0030103F0AB
:104BE000030358BF4B420361FFF79CBF704701238B
:104BF00080F88D34002380F8593380F8893280F8AA
:104C0000E93080F8B93180F8293400F63C7280F838
:104C1000CD3634309042FAD1704710B50446D0F802
:104C2000B005FFF757FF072390FBF3F3C3EBC30374
:104C3000C31A03F5AF6304EB8304606810BD01F58C
:104C4000D56301F5AF5130B504310022012493F84A
:104C5000255045B9032A40F8223002F1010583F8B6
:104C6000254003D02A4634338B42F0D130BD00F5C5
:104C7000AF5C2DE9F0470CF1040C03F1100704467A
:104C8000203357F8041FB1F904E0B1F90690BEF1E2
:104C9000000F2BDBB1F908507544F02D26DCB1F97B
:104CA0000A604E44B6F5827F20DC04F5D56292F8A6
:104CB000250098B1914211D0B2F904A055450DDDFF
:104CC000B2F90880D044F04508DDB2F906A0564597
:104CD00004DDB2F90A80D044C84505DC343294457D
:104CE000E5D1BB42CDD10020BDE8F0870120FBE734
:104CF0002DE9F04F90F8A43693B004460E46002BF1
:104D000062D190F88D34002B5ED1FFF786FF04F559
:104D1000D068074601AD96B106A82146D4F8A06533
:104D2000D4F8A495FFF78BFF0FC885E80F001E236A
:104D3000009332464B4639464046FFF71BFFD4F8F6
:104D400094360A93D4F898360B93D4F89C360C9387
:104D5000D4F8A0360D930AAB0FCB85E80F004FF0C7
:104D60001E0904F25C66CDF8009000237822D4F886
:104D700080163046FFF7FEFE0EA82146D4F8A0A507
:104D8000D4F8A4B5FFF75BFF0FC885E80F005B46BA
:104D9000524639464046CDF80090FFF7EBFE7821A9
:104DA000334600222046FFF762FF211D40B1204616
:104DB000FFF71DFF084613B0BDE8F04F0CF0C8BF69
:104DC000012384F8A436F5E713B0BDE8F08F2DE990
:104DD000F04190F8A45604460F4690469DB100F26B
:104DE0005C663046FFF7E8FED4F86426D4F8601617
:104DF00033462046FFF73BFF48B1C8F10002794235
:104E00003046FFF7D9FE00252846BDE8F081201D79
:104E10000CF09EFFF8E710B504461E220021204644
:104E2000FFF7D5FF0028F8D110BD00226FF01D015B
:104E3000FFF7CDBF00221E21FFF7C9BF38B590F89C
:104E4000A4360446DBB100F25C652846FFF7BFFEDE
:104E5000D4F86426D4F860162B462046FFF707FFE7
:104E600040B12846FFF7B3FE2846FFF7B0FE2846BC
:104E7000FFF7ADFE201DBDE838400CF069BF38BD1E
:104E8000FFF7DCBF37B51C4D0446286803F01FFC54
:104E9000D8B14FF0FF33286800220DF1070103F06D
:104EA000E6FB94F8A43633B90BF06AFEFEF73CFB40
:104EB000C82003F0BCFA9DF807304C2B07D1002224
:104EC0006FF01D012046FFF782FF03B030BD522B6B
:104ED00002D100221E21F5E74F2B03D12046FFF718
:104EE000ADFFF2E7442BF0D11E2200212046FFF750
:104EF0006EFF0028F8D1E8E75C3100202DE9F04F83
:104F000087B000238846CA1D04468DF807300DF18E
:104F1000070112F801090B7808B10133DBB24245F1
:104F200001F8013DF5D1D4F894360293D4F89836BF
:104F30000393D4F89C36049304F5AF59D4F8A03603
:104F4000059304F5D56509F104094FF01E0A4FF0E9
:104F5000000B95F82530B3B302AA002352F8041BC6
:104F6000A94230D00133042BF8D1B5F9062092FBC9
:104F7000FAF6F6B218F80630EBB906F118036B44EE
:104F8000B5F9041013F8187CC7EB071302EB4302C2
:104F90002B6812B29B6D28469847A219374492F8A5
:104FA00054362744013B82F8543697F8543601337F
:104FB00087F8543607E0264485F825B096F854362D
:104FC000013B86F8543634354D45C2D1B4F8B4258A
:104FD0009DF8003003FB03239BB20F4AA4F8B435BD
:104FE000042104F5B0600FF081F90C4AB4F8B4352F
:104FF0001188994206D213800421074A04F5B16052
:105000000FF074F9064B0122201D1A6007B0BDE8AD
:10501000F04F0CF09DBE00BF1C71020858310020FB
:105020003C2E00202DE9F74390F8AC35013380F891
:10503000AC35D0F8B0350446013304F58055C0F8DE
:10504000B035FFF71FFF94F8AC25D5F800369A422B
:1050500050DBD4F8A83594F8A4660021013384F815
:10506000AC15C4F8A835002E44D01E222046FFF708
:10507000AEFE80BB214BDFF888E0CDE900000127C0
:105080001F6004F26C6104F27C6C4FF01E0851F852
:10509000043FC3F828E0B3F9063093FBF8F304EBC0
:1050A000030999F854260132D2B2082A01BF083305
:1050B0006B44304603F8087C614589F85426E6D1F4
:1050C00018B169462046FFF719FF002184F8A4169D
:1050D0002046FFF70DFED4F8A835322B0AD900235D
:1050E000C4F8A835D5F80036053B132BD8BF1423D8
:1050F000C5F8003603B0BDE8F08300BF402E0020A5
:10510000C8C8C8FF2DE9F7430446FEF743FF3F4BED
:10511000236096230025C4F8A035DFF80491C4F875
:10512000A8554FF48773C4F8A43584F8AC55C4F877
:10513000B055A4F8B45504F5B76604F25467304688
:10514000FEF7A4FE343646F8349C46F8085C26F890
:10515000045CBE42F3D1C4F8545604F25C6075603E
:10516000FFF7D8FC04F5D56704F5D06004F5AF5817
:10517000FFF7D0FC08F1040884F8A45600263D4649
:105180002846FEF783FE343545F8349C45F8086C14
:1051900025F8046C4545F3D11D4E0FCE04F5805C17
:1051A0000CF2E4550FC596E807003C2385E807009C
:1051B000261DCCF8003600253946304605F0E8F9C2
:1051C000343707F80F5C4745F6D1B4F8B435114AC7
:1051D000114D042104F5B0600FF088F80F4B0D4A13
:1051E0001B88042104F5B1600FF080F8286803F0F3
:1051F0006EFA38B128684FF0FF3300220DF1070135
:1052000003F035FA204603B0BDE8F0838871020848
:10521000D45302081C7102085C3100205831002070
:105220007C7902082DE9F743074600F5B7643B2572
:105230004FF482790FFA85F8002220460223414676
:10524000CDF80090FDF76AFF4FF0FF33C4E90A3351
:10525000142384F826303E1D012323862146304640
:1052600005F096F923683C3520469B6D00224146A7
:10527000ADB29847EF2D04F13404DBD1304603B0D2
:10528000BDE8F0430CF064BD10B50446FEF72BFCFE
:105290002046FFF7C7FF20460121BDE81040FFF779
:1052A00027BDF02070474FF4A07070472920FDF70C
:1052B00037B92820FDF734B908B5FDF705F9CA203C
:1052C000FDF72EF9C320FDF70FF90820FDF70CF9C3
:1052D0005020FDF709F9CF20FDF722F90020FDF756
:1052E00003F9C120FDF700F93020FDF7FDF8ED20AE
:1052F000FDF716F96420FDF7F7F80320FDF7F4F841
:105300001220FDF7F1F88120FDF7EEF8E820FDF717
:1053100007F98520FDF7E8F80020FDF7E5F878208B
:10532000FDF7E2F8CB20FDF7FBF83920FDF7DCF8BC
:105330002C20FDF7D9F80020FDF7D6F83420FDF732
:10534000D3F80220FDF7D0F8F720FDF7E9F8202088
:10535000FDF7CAF8EA20FDF7E3F80020FDF7C4F8EE
:105360000020FDF7C1F8B120FDF7DAF80020FDF7C5
:10537000BBF81B20FDF7B8F8B620FDF7D1F80A20DE
:10538000FDF7B2F8A220FDF7AFF8C020FDF7C8F88E
:105390001020FDF7A9F8C120FDF7C2F81020FDF795
:1053A000A3F8C520FDF7BCF84520FDF79DF81520B2
:1053B000FDF79AF8C720FDF7B3F89020FDF794F8B1
:1053C0003620FDF7ADF8C820FDF78EF8F220FDF786
:1053D000A7F80020FDF788F8B020FDF7A1F8C2205B
:1053E000FDF782F8B620FDF79BF80A20FDF77CF860
:1053F000A720FDF779F82720FDF776F80420FDF7C0
:1054000073F82A20FDF78CF80020FDF76DF80020D6
:10541000FDF76AF80020FDF767F8EF20FDF764F864
:105420002B20FDF77DF80020FDF75EF80020FDF74A
:105430005BF80120FDF758F83F20FDF755F8F620FE
:10544000FDF76EF80120FDF74FF80020FDF74CF84E
:105450000620FDF749F82C20FDF762F8C820FDF77B
:10546000ADF82620FDF75CF80120FDF73DF8E020BF
:10547000FDF756F80F20FDF737F82920FDF734F82F
:105480002420FDF731F80C20FDF72EF80E20FDF753
:105490002BF80920FDF728F84E20FDF725F8782095
:1054A000FDF722F83C20FDF71FF80920FDF71CF856
:1054B0001320FDF719F80520FDF716F81720FDF762
:1054C00013F81120FDF710F80020FDF70DF8E1208A
:1054D000FDF726F80020FDF707F81620FDF704F881
:1054E0001B20FDF701F80420FCF7FEFF1120FCF75C
:1054F000FBFF0720FCF7F8FF3120FCF7F5FF332016
:10550000FCF7F2FF4220FCF7EFFF0520FCF7ECFF71
:105510000C20FCF7E9FF0A20FCF7E6FF2820FCF747
:10552000E3FF2F20FCF7E0FF0F20FCF7DDFF112049
:10553000FCF7F6FFC820FDF741F82920FCF7F0FF43
:10554000BDE808402C20FCF7EBBF08B5FCF7BCFF1A
:105550000321D320FDF700F880B208BD10B5C4B216
:10556000022203212046FCF765FF0A20FCF7AAFF70
:10557000204600220321FCF75DFFBDE81040022019
:10558000FCF7A0BF38B50446E4B2FCF751FF002198
:105590002046FCF767FF012105462046FCF762FF25
:1055A00040EA052080B238BD10B5C4B24021204683
:1055B000FCF758FF030607D54C212046FCF752FFA5
:1055C000003818BF012010BD01224B212046FCF7F6
:1055D00031FF204600224B21FCF72CFF0020F2E790
:1055E00073B50423C4B20E461546D7210DEB030252
:1055F0002046FCF751FF019B1BBA1A0DC3F30B2386
:10560000328020462B8001224B21FCF713FF002221
:105610004B212046FCF70EFF02B070BD10B50A4AC0
:105620001378984204460DD0517888420AD00BB1C5
:1056300041B90123D454FCF7FBFE2046BDE81040DD
:10564000FFF78CBF10BD00BFB034002010B5C4B24E
:1056500009212046FCF706FF40F00102D2B22046A5
:105660000921BDE81040FCF7E5BE10B5C4B2092120
:105670002046FCF7F7FE092100F0FE022046BDE8B7
:105680001040FCF7D7BE38B5C4B20D4620460A21FB
:10569000FCF7E8FE40EA0502D2B220460A21BDE846
:1056A0003840FCF7C7BE10B50446FCF7C2FE2046E2
:1056B0001F21FFF7E8FF2046BDE81040FFF7C6BFF7
:1056C00038B5C4B20D4620460A21FCF7CBFE20EACD
:1056D0000502D2B220460A21BDE83840FCF7AABE36
:1056E00010B50446FFF7C1FF20461F21BDE810405A
:1056F000FFF7E6BF10B5C0B20C460B21FCF7B2FEB7
:10570000204010BD1F21FFF7F5BF0A46C0B20B2194
:10571000FCF790BE1F21FFF7F8BF38B5C4B20D46A5
:1057200020461721FCF79EFE20EA0502D2B2204651
:105730001721BDE83840FCF77DBE70B5C4B20646FF
:1057400004212046FCF78EFE042100F0FB020546F2
:105750002046FCF76FFE3046F021FFF7DEFF05F034
:10576000F80220460421FCF765FE4922202120464C
:10577000FCF760FE0220FCF7A5FE20460122212155
:10578000FCF758FE20469A224121FCF753FE2046A2
:1057900001224A21FCF74EFE204601224B21FCF754
:1057A00049FE204600224B21FCF744FE2046012200
:1057B0005621FCF73FFE204601225821FCF73AFE15
:1057C000204601224021FCF735FE2046FF220B2116
:1057D000FCF730FEBDE870400220FCF773BE00000D
:1057E000054BD3F8882042F47002C3F888204FF0AC
:1057F00000629A60704700BF00ED00E008B50B4BF7
:105800001A6842F400721A601A6842F480621A60E0
:105810001A6842F480721A60032000F02FF800200A
:10582000FDF752F9FCF7D8FE002008BD003C02400D
:10583000034A044B11681B780B441360704700BF88
:10584000B434002094030020014B1868704700BF57
:10585000B434002038B50446FFF7F6FF631C1CBFC4
:10586000054B1B78054618BFE418FFF7EDFF431BF7
:10587000A342FAD338BD00BF940300200749CA6889
:1058800022F4E0620302120403F4E063120C1343F7
:1058900043F0BF6343F40033CB60704700ED00E09A
:1058A000164B30B5DC68C4F30224C4F10703251D90
:1058B000042B28BF0423062D4FF0FF358CBF033C7B
:1058C000002405FA03F321EA0303A54022EA0502B6
:1058D000A340002843EA0203ACBF00F16040084A3D
:1058E0004FEA0313B8BF00F00F00DBB2AABF00F508
:1058F0006140135480F8003330BD00BF00ED00E07C
:1059000014ED00E0002807DB044A4109012300F000
:105910001F00834042F82130704700BF00E100E0E3
:1059200010B5044650B1437903F0FF0213B9027178
:10593000FCF772FE01236371002010BD0120FCE71B
:1059400010B5044630B390F8393003F0FF021BB9AC
:1059500080F83820FCF778FE22686168022384F81A
:105960003930136823F440330B431360536BA16841
:1059700023F007030B435363136CE16823F47F5355
:1059800023F03F030B43136400200123E06384F8FA
:10599000393010BD0120FCE770477047036870B5CF
:1059A0005E681D68F207044614D5E90512D51A6829
:1059B00022F480721A60C26B42F00102C2630122BB
:1059C0009A60042380F83930002380F83830436926
:1059D00003B19847B20616D5AB0414D523681A68EC
:1059E00022F400521A6020229A60E36B43F0020313
:1059F000E363042384F83930002384F83830636982
:105A00000BB120469847300716D5290514D52368D1
:105A10001A6822F400621A6008229A60E36B43F06D
:105A20000403E363042384F83930002384F8383016
:105A300063690BB12046984772070BD56B0509D5F2
:105A400023681A6822F480621A6004229A60204651
:105A5000FFF7A2FFB00714D5A90512D523681A686D
:105A600022F400721A6002229A60E36BE36301235E
:105A700084F83930002384F8383023690BB120468C
:105A80009847F20613D5EB0411D523681A6822F45F
:105A900080521A6010229A60E36BE363012384F85A
:105AA0003930002384F838302046FFF776FF70BD88
:105AB000F0B590F83820012A03464FF002002BD0B1
:105AC000012283F8382083F8390003EB0112D2E970
:105AD0000740556A174F44EA0040093C012C9CBF1F
